{
  "address": "0x15a08F9A8D9fF1bD77E6820eA78E18e6AA3F80E3",
  "abi": [
    {
      "inputs": [],
      "stateMutability": "nonpayable",
      "type": "constructor"
    },
    {
      "anonymous": false,
      "inputs": [
        {
          "indexed": true,
          "internalType": "address",
          "name": "owner",
          "type": "address"
        },
        {
          "indexed": true,
          "internalType": "address",
          "name": "approved",
          "type": "address"
        },
        {
          "indexed": true,
          "internalType": "uint256",
          "name": "tokenId",
          "type": "uint256"
        }
      ],
      "name": "Approval",
      "type": "event"
    },
    {
      "anonymous": false,
      "inputs": [
        {
          "indexed": true,
          "internalType": "address",
          "name": "owner",
          "type": "address"
        },
        {
          "indexed": true,
          "internalType": "address",
          "name": "operator",
          "type": "address"
        },
        {
          "indexed": false,
          "internalType": "bool",
          "name": "approved",
          "type": "bool"
        }
      ],
      "name": "ApprovalForAll",
      "type": "event"
    },
    {
      "anonymous": false,
      "inputs": [
        {
          "indexed": true,
          "internalType": "bytes32",
          "name": "projectId",
          "type": "bytes32"
        },
        {
          "indexed": false,
          "internalType": "address",
          "name": "signerAddress",
          "type": "address"
        },
        {
          "indexed": false,
          "internalType": "address",
          "name": "payoutAddress",
          "type": "address"
        },
        {
          "indexed": false,
          "internalType": "uint16",
          "name": "totalSupply",
          "type": "uint16"
        },
        {
          "indexed": false,
          "internalType": "uint256",
          "name": "mintPrice",
          "type": "uint256"
        },
        {
          "indexed": false,
          "internalType": "string",
          "name": "metadataURI",
          "type": "string"
        },
        {
          "indexed": false,
          "internalType": "bytes32",
          "name": "projectSeed",
          "type": "bytes32"
        }
      ],
      "name": "DefinedProject",
      "type": "event"
    },
    {
      "anonymous": false,
      "inputs": [
        {
          "indexed": false,
          "internalType": "uint8",
          "name": "version",
          "type": "uint8"
        }
      ],
      "name": "Initialized",
      "type": "event"
    },
    {
      "anonymous": false,
      "inputs": [
        {
          "indexed": true,
          "internalType": "bytes32",
          "name": "projectId",
          "type": "bytes32"
        },
        {
          "indexed": true,
          "internalType": "address",
          "name": "to",
          "type": "address"
        },
        {
          "indexed": false,
          "internalType": "uint256",
          "name": "tokenId",
          "type": "uint256"
        },
        {
          "indexed": false,
          "internalType": "uint16",
          "name": "nonceUsed",
          "type": "uint16"
        },
        {
          "indexed": false,
          "internalType": "bytes32",
          "name": "sigHash",
          "type": "bytes32"
        }
      ],
      "name": "MintedToken",
      "type": "event"
    },
    {
      "anonymous": false,
      "inputs": [
        {
          "indexed": true,
          "internalType": "address",
          "name": "previousOwner",
          "type": "address"
        },
        {
          "indexed": true,
          "internalType": "address",
          "name": "newOwner",
          "type": "address"
        }
      ],
      "name": "OwnershipTransferred",
      "type": "event"
    },
    {
      "anonymous": false,
      "inputs": [
        {
          "indexed": true,
          "internalType": "address",
          "name": "from",
          "type": "address"
        },
        {
          "indexed": true,
          "internalType": "address",
          "name": "to",
          "type": "address"
        },
        {
          "indexed": true,
          "internalType": "uint256",
          "name": "tokenId",
          "type": "uint256"
        }
      ],
      "name": "Transfer",
      "type": "event"
    },
    {
      "anonymous": false,
      "inputs": [
        {
          "indexed": true,
          "internalType": "bytes32",
          "name": "projectId",
          "type": "bytes32"
        },
        {
          "indexed": false,
          "internalType": "string",
          "name": "metadataURI",
          "type": "string"
        }
      ],
      "name": "UpdatedMetadataURI",
      "type": "event"
    },
    {
      "anonymous": false,
      "inputs": [
        {
          "indexed": true,
          "internalType": "bytes32",
          "name": "projectId",
          "type": "bytes32"
        },
        {
          "indexed": false,
          "internalType": "uint256",
          "name": "mintPrice",
          "type": "uint256"
        }
      ],
      "name": "UpdatedMintPrice",
      "type": "event"
    },
    {
      "anonymous": false,
      "inputs": [
        {
          "indexed": true,
          "internalType": "bytes32",
          "name": "projectId",
          "type": "bytes32"
        },
        {
          "indexed": false,
          "internalType": "address",
          "name": "payoutAddress",
          "type": "address"
        }
      ],
      "name": "UpdatedPayoutAddress",
      "type": "event"
    },
    {
      "inputs": [
        {
          "internalType": "address",
          "name": "to",
          "type": "address"
        },
        {
          "internalType": "uint256",
          "name": "tokenId",
          "type": "uint256"
        }
      ],
      "name": "approve",
      "outputs": [],
      "stateMutability": "nonpayable",
      "type": "function"
    },
    {
      "inputs": [
        {
          "internalType": "bytes32",
          "name": "",
          "type": "bytes32"
        }
      ],
      "name": "artProjects",
      "outputs": [
        {
          "internalType": "address",
          "name": "signerAddress",
          "type": "address"
        },
        {
          "internalType": "address",
          "name": "payoutAddress",
          "type": "address"
        },
        {
          "internalType": "string",
          "name": "metadataURI",
          "type": "string"
        },
        {
          "internalType": "uint16",
          "name": "totalSupply",
          "type": "uint16"
        },
        {
          "internalType": "uint16",
          "name": "mintedCount",
          "type": "uint16"
        },
        {
          "internalType": "uint256",
          "name": "mintPrice",
          "type": "uint256"
        },
        {
          "internalType": "bytes32",
          "name": "projectSeed",
          "type": "bytes32"
        },
        {
          "internalType": "uint256",
          "name": "projectIndex",
          "type": "uint256"
        }
      ],
      "stateMutability": "view",
      "type": "function"
    },
    {
      "inputs": [
        {
          "internalType": "address",
          "name": "owner",
          "type": "address"
        }
      ],
      "name": "balanceOf",
      "outputs": [
        {
          "internalType": "uint256",
          "name": "",
          "type": "uint256"
        }
      ],
      "stateMutability": "view",
      "type": "function"
    },
    {
      "inputs": [
        {
          "internalType": "address",
          "name": "_signerAddress",
          "type": "address"
        },
        {
          "internalType": "address",
          "name": "_artistAddress",
          "type": "address"
        },
        {
          "internalType": "string",
          "name": "_metadataURI",
          "type": "string"
        },
        {
          "internalType": "uint16",
          "name": "_totalSupply",
          "type": "uint16"
        },
        {
          "internalType": "uint256",
          "name": "_mintPrice",
          "type": "uint256"
        },
        {
          "internalType": "bytes32",
          "name": "_projectSeed",
          "type": "bytes32"
        }
      ],
      "name": "defineProject",
      "outputs": [],
      "stateMutability": "nonpayable",
      "type": "function"
    },
    {
      "inputs": [
        {
          "internalType": "uint256",
          "name": "tokenId",
          "type": "uint256"
        }
      ],
      "name": "getApproved",
      "outputs": [
        {
          "internalType": "address",
          "name": "",
          "type": "address"
        }
      ],
      "stateMutability": "view",
      "type": "function"
    },
    {
      "inputs": [
        {
          "internalType": "address",
          "name": "artistAddress",
          "type": "address"
        },
        {
          "internalType": "uint16",
          "name": "totalSupply",
          "type": "uint16"
        },
        {
          "internalType": "bytes32",
          "name": "projectSeed",
          "type": "bytes32"
        }
      ],
      "name": "getProjectId",
      "outputs": [
        {
          "internalType": "bytes32",
          "name": "",
          "type": "bytes32"
        }
      ],
      "stateMutability": "nonpayable",
      "type": "function"
    },
    {
      "inputs": [
        {
          "internalType": "uint256",
          "name": "tokenId",
          "type": "uint256"
        }
      ],
      "name": "getProjectIdFromTokenId",
      "outputs": [
        {
          "internalType": "bytes32",
          "name": "",
          "type": "bytes32"
        }
      ],
      "stateMutability": "view",
      "type": "function"
    },
    {
      "inputs": [
        {
          "internalType": "bytes32",
          "name": "projectId",
          "type": "bytes32"
        },
        {
          "internalType": "uint16",
          "name": "nonce",
          "type": "uint16"
        }
      ],
      "name": "getTypeHash",
      "outputs": [
        {
          "internalType": "bytes32",
          "name": "",
          "type": "bytes32"
        }
      ],
      "stateMutability": "view",
      "type": "function"
    },
    {
      "inputs": [],
      "name": "initialize",
      "outputs": [],
      "stateMutability": "nonpayable",
      "type": "function"
    },
    {
      "inputs": [
        {
          "internalType": "address",
          "name": "owner",
          "type": "address"
        },
        {
          "internalType": "address",
          "name": "operator",
          "type": "address"
        }
      ],
      "name": "isApprovedForAll",
      "outputs": [
        {
          "internalType": "bool",
          "name": "",
          "type": "bool"
        }
      ],
      "stateMutability": "view",
      "type": "function"
    },
    {
      "inputs": [
        {
          "internalType": "bytes32",
          "name": "_projectId",
          "type": "bytes32"
        },
        {
          "internalType": "uint16",
          "name": "_nonce",
          "type": "uint16"
        },
        {
          "internalType": "bytes",
          "name": "_signature",
          "type": "bytes"
        }
      ],
      "name": "mintToken",
      "outputs": [],
      "stateMutability": "payable",
      "type": "function"
    },
    {
      "inputs": [
        {
          "internalType": "bytes",
          "name": "_secretMessage",
          "type": "bytes"
        }
      ],
      "name": "mintTokenFromSecretMessage",
      "outputs": [],
      "stateMutability": "payable",
      "type": "function"
    },
    {
      "inputs": [
        {
          "internalType": "bytes32",
          "name": "_projectId",
          "type": "bytes32"
        },
        {
          "internalType": "string",
          "name": "_metadataURI",
          "type": "string"
        }
      ],
      "name": "modifyProjectMetadata",
      "outputs": [],
      "stateMutability": "nonpayable",
      "type": "function"
    },
    {
      "inputs": [
        {
          "internalType": "bytes32",
          "name": "_projectId",
          "type": "bytes32"
        },
        {
          "internalType": "uint256",
          "name": "_mintPrice",
          "type": "uint256"
        }
      ],
      "name": "modifyProjectMintPrice",
      "outputs": [],
      "stateMutability": "nonpayable",
      "type": "function"
    },
    {
      "inputs": [
        {
          "internalType": "bytes32",
          "name": "_projectId",
          "type": "bytes32"
        },
        {
          "internalType": "address",
          "name": "_payoutAddress",
          "type": "address"
        }
      ],
      "name": "modifyProjectPayoutAddress",
      "outputs": [],
      "stateMutability": "nonpayable",
      "type": "function"
    },
    {
      "inputs": [],
      "name": "name",
      "outputs": [
        {
          "internalType": "string",
          "name": "",
          "type": "string"
        }
      ],
      "stateMutability": "view",
      "type": "function"
    },
    {
      "inputs": [],
      "name": "owner",
      "outputs": [
        {
          "internalType": "address",
          "name": "",
          "type": "address"
        }
      ],
      "stateMutability": "view",
      "type": "function"
    },
    {
      "inputs": [
        {
          "internalType": "uint256",
          "name": "tokenId",
          "type": "uint256"
        }
      ],
      "name": "ownerOf",
      "outputs": [
        {
          "internalType": "address",
          "name": "",
          "type": "address"
        }
      ],
      "stateMutability": "view",
      "type": "function"
    },
    {
      "inputs": [
        {
          "internalType": "uint256",
          "name": "",
          "type": "uint256"
        }
      ],
      "name": "projectIdLookup",
      "outputs": [
        {
          "internalType": "bytes32",
          "name": "",
          "type": "bytes32"
        }
      ],
      "stateMutability": "view",
      "type": "function"
    },
    {
      "inputs": [],
      "name": "renounceOwnership",
      "outputs": [],
      "stateMutability": "nonpayable",
      "type": "function"
    },
    {
      "inputs": [
        {
          "internalType": "address",
          "name": "from",
          "type": "address"
        },
        {
          "internalType": "address",
          "name": "to",
          "type": "address"
        },
        {
          "internalType": "uint256",
          "name": "tokenId",
          "type": "uint256"
        }
      ],
      "name": "safeTransferFrom",
      "outputs": [],
      "stateMutability": "nonpayable",
      "type": "function"
    },
    {
      "inputs": [
        {
          "internalType": "address",
          "name": "from",
          "type": "address"
        },
        {
          "internalType": "address",
          "name": "to",
          "type": "address"
        },
        {
          "internalType": "uint256",
          "name": "tokenId",
          "type": "uint256"
        },
        {
          "internalType": "bytes",
          "name": "_data",
          "type": "bytes"
        }
      ],
      "name": "safeTransferFrom",
      "outputs": [],
      "stateMutability": "nonpayable",
      "type": "function"
    },
    {
      "inputs": [
        {
          "internalType": "address",
          "name": "operator",
          "type": "address"
        },
        {
          "internalType": "bool",
          "name": "approved",
          "type": "bool"
        }
      ],
      "name": "setApprovalForAll",
      "outputs": [],
      "stateMutability": "nonpayable",
      "type": "function"
    },
    {
      "inputs": [
        {
          "internalType": "bytes",
          "name": "_signature",
          "type": "bytes"
        }
      ],
      "name": "signatureHasBeenUsed",
      "outputs": [
        {
          "internalType": "bool",
          "name": "",
          "type": "bool"
        }
      ],
      "stateMutability": "view",
      "type": "function"
    },
    {
      "inputs": [
        {
          "internalType": "bytes4",
          "name": "interfaceId",
          "type": "bytes4"
        }
      ],
      "name": "supportsInterface",
      "outputs": [
        {
          "internalType": "bool",
          "name": "",
          "type": "bool"
        }
      ],
      "stateMutability": "view",
      "type": "function"
    },
    {
      "inputs": [],
      "name": "symbol",
      "outputs": [
        {
          "internalType": "string",
          "name": "",
          "type": "string"
        }
      ],
      "stateMutability": "view",
      "type": "function"
    },
    {
      "inputs": [
        {
          "internalType": "uint256",
          "name": "tokenId",
          "type": "uint256"
        }
      ],
      "name": "tokenURI",
      "outputs": [
        {
          "internalType": "string",
          "name": "",
          "type": "string"
        }
      ],
      "stateMutability": "view",
      "type": "function"
    },
    {
      "inputs": [
        {
          "internalType": "address",
          "name": "from",
          "type": "address"
        },
        {
          "internalType": "address",
          "name": "to",
          "type": "address"
        },
        {
          "internalType": "uint256",
          "name": "tokenId",
          "type": "uint256"
        }
      ],
      "name": "transferFrom",
      "outputs": [],
      "stateMutability": "nonpayable",
      "type": "function"
    },
    {
      "inputs": [
        {
          "internalType": "address",
          "name": "newOwner",
          "type": "address"
        }
      ],
      "name": "transferOwnership",
      "outputs": [],
      "stateMutability": "nonpayable",
      "type": "function"
    },
    {
      "inputs": [
        {
          "internalType": "bytes32",
          "name": "",
          "type": "bytes32"
        }
      ],
      "name": "usedSignatureHashes",
      "outputs": [
        {
          "internalType": "bool",
          "name": "",
          "type": "bool"
        }
      ],
      "stateMutability": "view",
      "type": "function"
    }
  ],
  "transactionHash": "0x5f85e790eecaa74c46438cee542973847adde231ef6e3a645195e8a43769115b",
  "args": [],
  "solcInputHash": "93a7b66d1a894129c7d90653501a0e89",
  "bytecode": "0x60a060405261271060805234801561001657600080fd5b50608051612e1d61003960003960008181610aa601526119170152612e1d6000f3fe6080604052600436106101cd5760003560e01c80638d54a10c116100f7578063ae45bb1b11610095578063dddf96d611610064578063dddf96d61461055d578063e985e9c514610570578063f2fde38b146105b9578063fcba710e146105d957600080fd5b8063ae45bb1b146104dd578063b71ed561146104fd578063b88d4fde1461051d578063c87b56dd1461053d57600080fd5b80639a1552df116100d15780639a1552df14610452578063a22cb46514610465578063a5135a7414610485578063a6932b2a146104bd57600080fd5b80638d54a10c146103ef5780638da5cb5b1461041f57806395d89b411461043d57600080fd5b806342842e0e1161016f578063715018a61161013e578063715018a614610385578063754abc241461039a5780638129fc1c146103ba57806386e5fcdd146103cf57600080fd5b806342842e0e146102f75780635d89170d146103175780636352211e1461034557806370a082311461036557600080fd5b80630818e648116101ab5780630818e64814610261578063095ea7b31461029557806323b872dd146102b75780632d86ef6f146102d757600080fd5b806301ffc9a7146101d257806306fdde0314610207578063081812fc14610229575b600080fd5b3480156101de57600080fd5b506101f26101ed3660046125a4565b610606565b60405190151581526020015b60405180910390f35b34801561021357600080fd5b5061021c610658565b6040516101fe9190612615565b34801561023557600080fd5b50610249610244366004612628565b6106ea565b6040516001600160a01b0390911681526020016101fe565b34801561026d57600080fd5b5061028161027c366004612628565b610784565b6040516101fe989796959493929190612641565b3480156102a157600080fd5b506102b56102b03660046126b8565b610863565b005b3480156102c357600080fd5b506102b56102d23660046126e2565b610979565b3480156102e357600080fd5b506102b56102f236600461271e565b6109aa565b34801561030357600080fd5b506102b56103123660046126e2565b610a80565b34801561032357600080fd5b50610337610332366004612628565b610a9b565b6040519081526020016101fe565b34801561035157600080fd5b50610249610360366004612628565b610ae2565b34801561037157600080fd5b5061033761038036600461274a565b610b59565b34801561039157600080fd5b506102b5610be0565b3480156103a657600080fd5b506102b56103b5366004612808565b610c16565b3480156103c657600080fd5b506102b5610cd9565b3480156103db57600080fd5b506103376103ea366004612861565b610d9a565b3480156103fb57600080fd5b506101f261040a366004612628565b60ca6020526000908152604090205460ff1681565b34801561042b57600080fd5b506097546001600160a01b0316610249565b34801561044957600080fd5b5061021c610df8565b6102b5610460366004612884565b610e07565b34801561047157600080fd5b506102b56104803660046128b9565b610e88565b34801561049157600080fd5b506101f26104a0366004612884565b8051602091820120600090815260ca909152604090205460ff1690565b3480156104c957600080fd5b506102b56104d83660046128f5565b610e97565b3480156104e957600080fd5b506103376104f8366004612917565b610f4c565b34801561050957600080fd5b506102b5610518366004612943565b610f97565b34801561052957600080fd5b506102b56105383660046129c4565b6111f2565b34801561054957600080fd5b5061021c610558366004612628565b611224565b6102b561056b366004612a2c565b6112f9565b34801561057c57600080fd5b506101f261058b366004612a83565b6001600160a01b039182166000908152606a6020908152604080832093909416825291909152205460ff1690565b3480156105c557600080fd5b506102b56105d436600461274a565b611305565b3480156105e557600080fd5b506103376105f4366004612628565b60cb6020526000908152604090205481565b60006001600160e01b031982166380ac58cd60e01b148061063757506001600160e01b03198216635b5e139f60e01b145b8061065257506301ffc9a760e01b6001600160e01b03198316145b92915050565b60606065805461066790612aad565b80601f016020809104026020016040519081016040528092919081815260200182805461069390612aad565b80156106e05780601f106106b5576101008083540402835291602001916106e0565b820191906000526020600020905b8154815290600101906020018083116106c357829003601f168201915b5050505050905090565b6000818152606760205260408120546001600160a01b03166107685760405162461bcd60e51b815260206004820152602c60248201527f4552433732313a20617070726f76656420717565727920666f72206e6f6e657860448201526b34b9ba32b73a103a37b5b2b760a11b60648201526084015b60405180910390fd5b506000908152606960205260409020546001600160a01b031690565b60c9602052600090815260409020805460018201546002830180546001600160a01b039384169492909316926107b990612aad565b80601f01602080910402602001604051908101604052809291908181526020018280546107e590612aad565b80156108325780601f1061080757610100808354040283529160200191610832565b820191906000526020600020905b81548152906001019060200180831161081557829003601f168201915b50505050600383015460048401546005850154600690950154939461ffff8084169562010000909404169350909188565b600061086e82610ae2565b9050806001600160a01b0316836001600160a01b031614156108dc5760405162461bcd60e51b815260206004820152602160248201527f4552433732313a20617070726f76616c20746f2063757272656e74206f776e656044820152603960f91b606482015260840161075f565b336001600160a01b03821614806108f857506108f8813361058b565b61096a5760405162461bcd60e51b815260206004820152603860248201527f4552433732313a20617070726f76652063616c6c6572206973206e6f74206f7760448201527f6e6572206e6f7220617070726f76656420666f7220616c6c0000000000000000606482015260840161075f565b610974838361139d565b505050565b610983338261140b565b61099f5760405162461bcd60e51b815260040161075f90612ae8565b610974838383611502565b600082815260c960205260409020546001600160a01b03166109d46097546001600160a01b031690565b6001600160a01b0316336001600160a01b031614806109fb5750336001600160a01b038216145b610a175760405162461bcd60e51b815260040161075f90612b39565b600083815260c9602090815260409182902060010180546001600160a01b0319166001600160a01b038616908117909155915191825284917f3833e45d14699086c62a94aa805cdb486f3d41948169c884edf13dbcf897337691015b60405180910390a2505050565b610974838383604051806020016040528060008152506111f2565b600080610acc61ffff7f00000000000000000000000000000000000000000000000000000000000000001684612b84565b600090815260cb60205260409020549392505050565b6000818152606760205260408120546001600160a01b0316806106525760405162461bcd60e51b815260206004820152602960248201527f4552433732313a206f776e657220717565727920666f72206e6f6e657869737460448201526832b73a103a37b5b2b760b91b606482015260840161075f565b60006001600160a01b038216610bc45760405162461bcd60e51b815260206004820152602a60248201527f4552433732313a2062616c616e636520717565727920666f7220746865207a65604482015269726f206164647265737360b01b606482015260840161075f565b506001600160a01b031660009081526068602052604090205490565b6097546001600160a01b03163314610c0a5760405162461bcd60e51b815260040161075f90612b39565b610c14600061169e565b565b600082815260c960205260409020546001600160a01b0316610c406097546001600160a01b031690565b6001600160a01b0316336001600160a01b03161480610c675750336001600160a01b038216145b610c835760405162461bcd60e51b815260040161075f90612b39565b600083815260c9602090815260409091208351610ca8926002909201918501906124f5565b50827ff4eeed15314036815e11c8066165d190d98c781526371d82124d3180c7d643e983604051610a739190612615565b6000610ce560016116f0565b90508015610cfd576000805461ff0019166101001790555b610d0561177d565b610d516040518060400160405280600f81526020016e11195d1c9bda5d131bd8d85b105c9d608a1b81525060405180604001604052806003815260200162444c4160e81b8152506117ac565b8015610d97576000805461ff0019169055604051600181527f7f26b83ff96e1f2b6a682f133852f6798a09c465da95921460cefb38474024989060200160405180910390a15b50565b604080517fbb74bfc0cab13a6451fe94dacc112ee8bc07ee15641a20757bf5498310869cad602082015290810183905261ffff8216606082015260009060800160405160208183030381529060405280519060200120905092915050565b60606066805461066790612aad565b8051606314610e585760405162461bcd60e51b815260206004820152601860248201527f7369676e6174757265206c656e67746820696e76616c69640000000000000000604482015260640161075f565b602081015160228083015190606090610e7490859060416117dd565b9050610e82338484846118ea565b50505050565b610e93338383611c1a565b5050565b600082815260c960205260409020546001600160a01b0316610ec16097546001600160a01b031690565b6001600160a01b0316336001600160a01b03161480610ee85750336001600160a01b038216145b610f045760405162461bcd60e51b815260040161075f90612b39565b600083815260c96020526040908190206004018390555183907f8bf28d99366bdadee1faf93b04fb78aef0a2dbc2a916f000c84ca16cad2cd75b90610a739085815260200190565b604080516001600160a01b038516602082015261ffff841691810191909152606081018290526000906080016040516020818303038152906040528051906020012090509392505050565b85610faa6097546001600160a01b031690565b6001600160a01b0316336001600160a01b03161480610fd15750336001600160a01b038216145b610fed5760405162461bcd60e51b815260040161075f90612b39565b6000610ffa888685610f4c565b600081815260c960205260409020549091506001600160a01b03161561106c5760405162461bcd60e51b815260206004820152602160248201527f4172742070726f6a65637420696420616c7265616479207265676973746572656044820152601960fa1b606482015260840161075f565b60cc805460009161ffff909116908261108483612ba6565b825461ffff91821661010093840a90810290830219909116179092556040805191820181526001600160a01b03808e1683528c811660208085019182528484018e81528d8716606087015260006080870181905260a087018e905260c087018d90529790961660e0860181905289885260c9825293909620845181549084166001600160a01b03199182161782559151600182018054919094169216919091179091559251805191955091936111419260028501929101906124f5565b506060820151600382018054608085015161ffff908116620100000263ffffffff1990921693169290921791909117905560a0820151600482015560c0820151600582015560e090910151600690910155600081815260cb6020526040908190208390555182907f7677ec20b7e77961879d69447f71a0dec6b633f3f1c857c8125138b7704a16e8906111df908c908c908b908b908e908c90612bc8565b60405180910390a2505050505050505050565b6111fc338361140b565b6112185760405162461bcd60e51b815260040161075f90612ae8565b610e8284848484611ce9565b6000818152606760205260409020546060906001600160a01b031661124857600080fd5b600061125383610a9b565b600081815260c96020526040902060020180549192509061127390612aad565b80601f016020809104026020016040519081016040528092919081815260200182805461129f90612aad565b80156112ec5780601f106112c1576101008083540402835291602001916112ec565b820191906000526020600020905b8154815290600101906020018083116112cf57829003601f168201915b5050505050915050919050565b610974338484846118ea565b6097546001600160a01b0316331461132f5760405162461bcd60e51b815260040161075f90612b39565b6001600160a01b0381166113945760405162461bcd60e51b815260206004820152602660248201527f4f776e61626c653a206e6577206f776e657220697320746865207a65726f206160448201526564647265737360d01b606482015260840161075f565b610d978161169e565b600081815260696020526040902080546001600160a01b0319166001600160a01b03841690811790915581906113d282610ae2565b6001600160a01b03167f8c5be1e5ebec7d5bd14f71427d1e84f3dd0314c0f7b2291e5b200ac8c7c3b92560405160405180910390a45050565b6000818152606760205260408120546001600160a01b03166114845760405162461bcd60e51b815260206004820152602c60248201527f4552433732313a206f70657261746f7220717565727920666f72206e6f6e657860448201526b34b9ba32b73a103a37b5b2b760a11b606482015260840161075f565b600061148f83610ae2565b9050806001600160a01b0316846001600160a01b031614806114d657506001600160a01b038082166000908152606a602090815260408083209388168352929052205460ff165b806114fa5750836001600160a01b03166114ef846106ea565b6001600160a01b0316145b949350505050565b826001600160a01b031661151582610ae2565b6001600160a01b0316146115795760405162461bcd60e51b815260206004820152602560248201527f4552433732313a207472616e736665722066726f6d20696e636f72726563742060448201526437bbb732b960d91b606482015260840161075f565b6001600160a01b0382166115db5760405162461bcd60e51b8152602060048201526024808201527f4552433732313a207472616e7366657220746f20746865207a65726f206164646044820152637265737360e01b606482015260840161075f565b6115e660008261139d565b6001600160a01b038316600090815260686020526040812080546001929061160f908490612c18565b90915550506001600160a01b038216600090815260686020526040812080546001929061163d908490612c2f565b909155505060008181526067602052604080822080546001600160a01b0319166001600160a01b0386811691821790925591518493918716917fddf252ad1be2c89b69c2b068fc378daa952ba7f163c4a11628f55a4df523b3ef91a4505050565b609780546001600160a01b038381166001600160a01b0319831681179093556040519116919082907f8be0079c531659141344cd1fd0a4f28419497f9722a3daafe3b4186f6b6457e090600090a35050565b60008054610100900460ff1615611737578160ff1660011480156117135750303b155b61172f5760405162461bcd60e51b815260040161075f90612c47565b506000919050565b60005460ff80841691161061175e5760405162461bcd60e51b815260040161075f90612c47565b506000805460ff191660ff92909216919091179055600190565b919050565b600054610100900460ff166117a45760405162461bcd60e51b815260040161075f90612c95565b610c14611d1c565b600054610100900460ff166117d35760405162461bcd60e51b815260040161075f90612c95565b610e938282611d4c565b6060816117eb81601f612c2f565b101561182a5760405162461bcd60e51b815260206004820152600e60248201526d736c6963655f6f766572666c6f7760901b604482015260640161075f565b6118348284612c2f565b845110156118785760405162461bcd60e51b8152602060048201526011602482015270736c6963655f6f75744f66426f756e647360781b604482015260640161075f565b60608215801561189757604051915060008252602082016040526118e1565b6040519150601f8416801560200281840101858101878315602002848b0101015b818310156118d05780518352602092830192016118b8565b5050858452601f01601f1916604052505b50949350505050565b600083815260c96020526040812060038101546006909101546201000090910461ffff9081169161193d917f00000000000000000000000000000000000000000000000000000000000000001690612ce0565b6119479190612c2f565b600085815260c960205260409020600301805491925060019160029061197890849062010000900461ffff16612cff565b82546101009290920a61ffff818102199093169183160217909155600086815260c960205260409020600301548082166201000090910490911611159050611a195760405162461bcd60e51b815260206004820152602e60248201527f546f74616c20737570706c7920686173206265656e206d696e74656420666f7260448201526d103a3434b990383937b532b1ba1760911b606482015260840161075f565b611a3a828051602091820120600090815260ca909152604090205460ff1690565b15611a7b5760405162461bcd60e51b815260206004820152601160248201527010dbd91948185b1c9958591e481d5cd959607a1b604482015260640161075f565b8151602080840191909120600090815260ca82526040808220805460ff1916600117905586825260c99092522054611abe906001600160a01b0316858585611d9a565b611afe5760405162461bcd60e51b815260206004820152601160248201527014da59db985d1d5c99481a5b9d985b1a59607a1b604482015260640161075f565b611b088582611ee7565b600084815260c960205260409020600401543414611b685760405162461bcd60e51b815260206004820152601860248201527f496e76616c6964207061796d656e7420666f72206d696e740000000000000000604482015260640161075f565b600084815260c960205260408082206001015490516001600160a01b03909116913480156108fc02929091818181858888f19350505050158015611bb0573d6000803e3d6000fd5b50846001600160a01b0316847f858f7f381d57a58f2e65ea21be7a4da2bd2f3937ea0ceba485140ba8719efb0483868680519060200120604051611c0b9392919092835261ffff919091166020830152604082015260600190565b60405180910390a35050505050565b816001600160a01b0316836001600160a01b03161415611c7c5760405162461bcd60e51b815260206004820152601960248201527f4552433732313a20617070726f766520746f2063616c6c657200000000000000604482015260640161075f565b6001600160a01b038381166000818152606a6020908152604080832094871680845294825291829020805460ff191686151590811790915591519182527f17307eab39ab6107e8899845ad3d59bd9653f200f220920489ca2b5937696c31910160405180910390a3505050565b611cf4848484611502565b611d0084848484611f01565b610e825760405162461bcd60e51b815260040161075f90612d25565b600054610100900460ff16611d435760405162461bcd60e51b815260040161075f90612c95565b610c143361169e565b600054610100900460ff16611d735760405162461bcd60e51b815260040161075f90612c95565b8151611d869060659060208501906124f5565b5080516109749060669060208401906124f5565b600080611da78585610d9a565b90506000611e86604080518082018252600f81526e11195d1c9bda5d131bd8d85b105c9d608a1b6020918201528151808301835260038152620312e360ec1b9082015281517f8b73c3c69bb8fe3d512ecc4cf759cc79239f7b179b0ffacaa9a75d522b39400f818301527f2ce4acec12f6b2fa3a81e174b6db681e5adda69b27cd290e84bab93cba6cc65d818401527fe6bbd6277e1bf288eed5e8d1780f9a50b239e86b153736bceebccf4ea79d90b360608201524660808201523060a0808301919091528351808303909101815260c0909101909252815191012090565b60405161190160f01b6020820152602281019190915260428101839052606201604051602081830303815290604052805190602001209050866001600160a01b0316611ed2828661200b565b6001600160a01b031614979650505050505050565b610e9382826040518060200160405280600081525061202f565b60006001600160a01b0384163b1561200357604051630a85bd0160e11b81526001600160a01b0385169063150b7a0290611f45903390899088908890600401612d77565b602060405180830381600087803b158015611f5f57600080fd5b505af1925050508015611f8f575060408051601f3d908101601f19168201909252611f8c91810190612db4565b60015b611fe9573d808015611fbd576040519150601f19603f3d011682016040523d82523d6000602084013e611fc2565b606091505b508051611fe15760405162461bcd60e51b815260040161075f90612d25565b805181602001fd5b6001600160e01b031916630a85bd0160e11b1490506114fa565b5060016114fa565b600080600061201a8585612062565b91509150612027816120d2565b509392505050565b612039838361228d565b6120466000848484611f01565b6109745760405162461bcd60e51b815260040161075f90612d25565b6000808251604114156120995760208301516040840151606085015160001a61208d878285856123cf565b945094505050506120cb565b8251604014156120c357602083015160408401516120b88683836124bc565b9350935050506120cb565b506000905060025b9250929050565b60008160048111156120e6576120e6612dd1565b14156120ef5750565b600181600481111561210357612103612dd1565b14156121515760405162461bcd60e51b815260206004820152601860248201527f45434453413a20696e76616c6964207369676e61747572650000000000000000604482015260640161075f565b600281600481111561216557612165612dd1565b14156121b35760405162461bcd60e51b815260206004820152601f60248201527f45434453413a20696e76616c6964207369676e6174757265206c656e67746800604482015260640161075f565b60038160048111156121c7576121c7612dd1565b14156122205760405162461bcd60e51b815260206004820152602260248201527f45434453413a20696e76616c6964207369676e6174757265202773272076616c604482015261756560f01b606482015260840161075f565b600481600481111561223457612234612dd1565b1415610d975760405162461bcd60e51b815260206004820152602260248201527f45434453413a20696e76616c6964207369676e6174757265202776272076616c604482015261756560f01b606482015260840161075f565b6001600160a01b0382166122e35760405162461bcd60e51b815260206004820181905260248201527f4552433732313a206d696e7420746f20746865207a65726f2061646472657373604482015260640161075f565b6000818152606760205260409020546001600160a01b0316156123485760405162461bcd60e51b815260206004820152601c60248201527f4552433732313a20746f6b656e20616c7265616479206d696e74656400000000604482015260640161075f565b6001600160a01b0382166000908152606860205260408120805460019290612371908490612c2f565b909155505060008181526067602052604080822080546001600160a01b0319166001600160a01b03861690811790915590518392907fddf252ad1be2c89b69c2b068fc378daa952ba7f163c4a11628f55a4df523b3ef908290a45050565b6000807f7fffffffffffffffffffffffffffffff5d576e7357a4501ddfe92f46681b20a083111561240657506000905060036124b3565b8460ff16601b1415801561241e57508460ff16601c14155b1561242f57506000905060046124b3565b6040805160008082526020820180845289905260ff881692820192909252606081018690526080810185905260019060a0016020604051602081039080840390855afa158015612483573d6000803e3d6000fd5b5050604051601f1901519150506001600160a01b0381166124ac576000600192509250506124b3565b9150600090505b94509492505050565b6000806001600160ff1b038316816124d960ff86901c601b612c2f565b90506124e7878288856123cf565b935093505050935093915050565b82805461250190612aad565b90600052602060002090601f0160209004810192826125235760008555612569565b82601f1061253c57805160ff1916838001178555612569565b82800160010185558215612569579182015b8281111561256957825182559160200191906001019061254e565b50612575929150612579565b5090565b5b80821115612575576000815560010161257a565b6001600160e01b031981168114610d9757600080fd5b6000602082840312156125b657600080fd5b81356125c18161258e565b9392505050565b6000815180845260005b818110156125ee576020818501810151868301820152016125d2565b81811115612600576000602083870101525b50601f01601f19169290920160200192915050565b6020815260006125c160208301846125c8565b60006020828403121561263a57600080fd5b5035919050565b6001600160a01b038981168252881660208201526101006040820181905260009061266e8382018a6125c8565b61ffff98891660608501529690971660808301525060a081019390935260c083019190915260e090910152949350505050565b80356001600160a01b038116811461177857600080fd5b600080604083850312156126cb57600080fd5b6126d4836126a1565b946020939093013593505050565b6000806000606084860312156126f757600080fd5b612700846126a1565b925061270e602085016126a1565b9150604084013590509250925092565b6000806040838503121561273157600080fd5b82359150612741602084016126a1565b90509250929050565b60006020828403121561275c57600080fd5b6125c1826126a1565b634e487b7160e01b600052604160045260246000fd5b600082601f83011261278c57600080fd5b813567ffffffffffffffff808211156127a7576127a7612765565b604051601f8301601f19908116603f011681019082821181831017156127cf576127cf612765565b816040528381528660208588010111156127e857600080fd5b836020870160208301376000602085830101528094505050505092915050565b6000806040838503121561281b57600080fd5b82359150602083013567ffffffffffffffff81111561283957600080fd5b6128458582860161277b565b9150509250929050565b803561ffff8116811461177857600080fd5b6000806040838503121561287457600080fd5b823591506127416020840161284f565b60006020828403121561289657600080fd5b813567ffffffffffffffff8111156128ad57600080fd5b6114fa8482850161277b565b600080604083850312156128cc57600080fd5b6128d5836126a1565b9150602083013580151581146128ea57600080fd5b809150509250929050565b6000806040838503121561290857600080fd5b50508035926020909101359150565b60008060006060848603121561292c57600080fd5b612935846126a1565b925061270e6020850161284f565b60008060008060008060c0878903121561295c57600080fd5b612965876126a1565b9550612973602088016126a1565b9450604087013567ffffffffffffffff81111561298f57600080fd5b61299b89828a0161277b565b9450506129aa6060880161284f565b92506080870135915060a087013590509295509295509295565b600080600080608085870312156129da57600080fd5b6129e3856126a1565b93506129f1602086016126a1565b925060408501359150606085013567ffffffffffffffff811115612a1457600080fd5b612a208782880161277b565b91505092959194509250565b600080600060608486031215612a4157600080fd5b83359250612a516020850161284f565b9150604084013567ffffffffffffffff811115612a6d57600080fd5b612a798682870161277b565b9150509250925092565b60008060408385031215612a9657600080fd5b612a9f836126a1565b9150612741602084016126a1565b600181811c90821680612ac157607f821691505b60208210811415612ae257634e487b7160e01b600052602260045260246000fd5b50919050565b60208082526031908201527f4552433732313a207472616e736665722063616c6c6572206973206e6f74206f6040820152701ddb995c881b9bdc88185c1c1c9bdd9959607a1b606082015260800190565b6020808252818101527f4f776e61626c653a2063616c6c6572206973206e6f7420746865206f776e6572604082015260600190565b634e487b7160e01b600052601160045260246000fd5b600082612ba157634e487b7160e01b600052601260045260246000fd5b500490565b600061ffff80831681811415612bbe57612bbe612b6e565b6001019392505050565b6001600160a01b0387811682528616602082015261ffff851660408201526060810184905260c060808201819052600090612c05908301856125c8565b90508260a0830152979650505050505050565b600082821015612c2a57612c2a612b6e565b500390565b60008219821115612c4257612c42612b6e565b500190565b6020808252602e908201527f496e697469616c697a61626c653a20636f6e747261637420697320616c72656160408201526d191e481a5b9a5d1a585b1a5e995960921b606082015260800190565b6020808252602b908201527f496e697469616c697a61626c653a20636f6e7472616374206973206e6f74206960408201526a6e697469616c697a696e6760a81b606082015260800190565b6000816000190483118215151615612cfa57612cfa612b6e565b500290565b600061ffff808316818516808303821115612d1c57612d1c612b6e565b01949350505050565b60208082526032908201527f4552433732313a207472616e7366657220746f206e6f6e20455243373231526560408201527131b2b4bb32b91034b6b83632b6b2b73a32b960711b606082015260800190565b6001600160a01b0385811682528416602082015260408101839052608060608201819052600090612daa908301846125c8565b9695505050505050565b600060208284031215612dc657600080fd5b81516125c18161258e565b634e487b7160e01b600052602160045260246000fdfea264697066735822122046ee8c8d4703770f9739882f60f6c2170dbcbee63ce08a36a8a5255961d4d04764736f6c63430008090033",
  "devdoc": {
    "kind": "dev",
    "methods": {
      "approve(address,uint256)": {
        "details": "See {IERC721-approve}."
      },
      "balanceOf(address)": {
        "details": "See {IERC721-balanceOf}."
      },
      "getApproved(uint256)": {
        "details": "See {IERC721-getApproved}."
      },
      "isApprovedForAll(address,address)": {
        "details": "See {IERC721-isApprovedForAll}."
      },
      "name()": {
        "details": "See {IERC721Metadata-name}."
      },
      "owner()": {
        "details": "Returns the address of the current owner."
      },
      "ownerOf(uint256)": {
        "details": "See {IERC721-ownerOf}."
      },
      "renounceOwnership()": {
        "details": "Leaves the contract without owner. It will not be possible to call `onlyOwner` functions anymore. Can only be called by the current owner. NOTE: Renouncing ownership will leave the contract without an owner, thereby removing any functionality that is only available to the owner."
      },
      "safeTransferFrom(address,address,uint256)": {
        "details": "See {IERC721-safeTransferFrom}."
      },
      "safeTransferFrom(address,address,uint256,bytes)": {
        "details": "See {IERC721-safeTransferFrom}."
      },
      "setApprovalForAll(address,bool)": {
        "details": "See {IERC721-setApprovalForAll}."
      },
      "supportsInterface(bytes4)": {
        "details": "See {IERC165-supportsInterface}."
      },
      "symbol()": {
        "details": "See {IERC721Metadata-symbol}."
      },
      "tokenURI(uint256)": {
        "details": "Returns an URI for a given token ID Throws if the token ID does not exist. May return an empty string.",
        "params": {
          "tokenId": "uint256 ID of the token to query"
        }
      },
      "transferFrom(address,address,uint256)": {
        "details": "See {IERC721-transferFrom}."
      },
      "transferOwnership(address)": {
        "details": "Transfers ownership of the contract to a new account (`newOwner`). Can only be called by the current owner."
      }
    },
    "version": 1
  },
  "userdoc": {
    "kind": "user",
    "methods": {},
    "version": 1
  },
  "storageLayout": {
    "storage": [
      {
        "astId": 130,
        "contract": "contracts/DetroitLocalArt.sol:DetroitLocalArt",
        "label": "_initialized",
        "offset": 0,
        "slot": "0",
        "type": "t_uint8"
      },
      {
        "astId": 133,
        "contract": "contracts/DetroitLocalArt.sol:DetroitLocalArt",
        "label": "_initializing",
        "offset": 1,
        "slot": "0",
        "type": "t_bool"
      },
      {
        "astId": 1601,
        "contract": "contracts/DetroitLocalArt.sol:DetroitLocalArt",
        "label": "__gap",
        "offset": 0,
        "slot": "1",
        "type": "t_array(t_uint256)50_storage"
      },
      {
        "astId": 2255,
        "contract": "contracts/DetroitLocalArt.sol:DetroitLocalArt",
        "label": "__gap",
        "offset": 0,
        "slot": "51",
        "type": "t_array(t_uint256)50_storage"
      },
      {
        "astId": 294,
        "contract": "contracts/DetroitLocalArt.sol:DetroitLocalArt",
        "label": "_name",
        "offset": 0,
        "slot": "101",
        "type": "t_string_storage"
      },
      {
        "astId": 296,
        "contract": "contracts/DetroitLocalArt.sol:DetroitLocalArt",
        "label": "_symbol",
        "offset": 0,
        "slot": "102",
        "type": "t_string_storage"
      },
      {
        "astId": 300,
        "contract": "contracts/DetroitLocalArt.sol:DetroitLocalArt",
        "label": "_owners",
        "offset": 0,
        "slot": "103",
        "type": "t_mapping(t_uint256,t_address)"
      },
      {
        "astId": 304,
        "contract": "contracts/DetroitLocalArt.sol:DetroitLocalArt",
        "label": "_balances",
        "offset": 0,
        "slot": "104",
        "type": "t_mapping(t_address,t_uint256)"
      },
      {
        "astId": 308,
        "contract": "contracts/DetroitLocalArt.sol:DetroitLocalArt",
        "label": "_tokenApprovals",
        "offset": 0,
        "slot": "105",
        "type": "t_mapping(t_uint256,t_address)"
      },
      {
        "astId": 314,
        "contract": "contracts/DetroitLocalArt.sol:DetroitLocalArt",
        "label": "_operatorApprovals",
        "offset": 0,
        "slot": "106",
        "type": "t_mapping(t_address,t_mapping(t_address,t_bool))"
      },
      {
        "astId": 1155,
        "contract": "contracts/DetroitLocalArt.sol:DetroitLocalArt",
        "label": "__gap",
        "offset": 0,
        "slot": "107",
        "type": "t_array(t_uint256)44_storage"
      },
      {
        "astId": 10,
        "contract": "contracts/DetroitLocalArt.sol:DetroitLocalArt",
        "label": "_owner",
        "offset": 0,
        "slot": "151",
        "type": "t_address"
      },
      {
        "astId": 122,
        "contract": "contracts/DetroitLocalArt.sol:DetroitLocalArt",
        "label": "__gap",
        "offset": 0,
        "slot": "152",
        "type": "t_array(t_uint256)49_storage"
      },
      {
        "astId": 2682,
        "contract": "contracts/DetroitLocalArt.sol:DetroitLocalArt",
        "label": "artProjects",
        "offset": 0,
        "slot": "201",
        "type": "t_mapping(t_bytes32,t_struct(ArtProject)2631_storage)"
      },
      {
        "astId": 2686,
        "contract": "contracts/DetroitLocalArt.sol:DetroitLocalArt",
        "label": "usedSignatureHashes",
        "offset": 0,
        "slot": "202",
        "type": "t_mapping(t_bytes32,t_bool)"
      },
      {
        "astId": 2690,
        "contract": "contracts/DetroitLocalArt.sol:DetroitLocalArt",
        "label": "projectIdLookup",
        "offset": 0,
        "slot": "203",
        "type": "t_mapping(t_uint256,t_bytes32)"
      },
      {
        "astId": 2692,
        "contract": "contracts/DetroitLocalArt.sol:DetroitLocalArt",
        "label": "projectCount",
        "offset": 0,
        "slot": "204",
        "type": "t_uint16"
      }
    ],
    "types": {
      "t_address": {
        "encoding": "inplace",
        "label": "address",
        "numberOfBytes": "20"
      },
      "t_array(t_uint256)44_storage": {
        "base": "t_uint256",
        "encoding": "inplace",
        "label": "uint256[44]",
        "numberOfBytes": "1408"
      },
      "t_array(t_uint256)49_storage": {
        "base": "t_uint256",
        "encoding": "inplace",
        "label": "uint256[49]",
        "numberOfBytes": "1568"
      },
      "t_array(t_uint256)50_storage": {
        "base": "t_uint256",
        "encoding": "inplace",
        "label": "uint256[50]",
        "numberOfBytes": "1600"
      },
      "t_bool": {
        "encoding": "inplace",
        "label": "bool",
        "numberOfBytes": "1"
      },
      "t_bytes32": {
        "encoding": "inplace",
        "label": "bytes32",
        "numberOfBytes": "32"
      },
      "t_mapping(t_address,t_bool)": {
        "encoding": "mapping",
        "key": "t_address",
        "label": "mapping(address => bool)",
        "numberOfBytes": "32",
        "value": "t_bool"
      },
      "t_mapping(t_address,t_mapping(t_address,t_bool))": {
        "encoding": "mapping",
        "key": "t_address",
        "label": "mapping(address => mapping(address => bool))",
        "numberOfBytes": "32",
        "value": "t_mapping(t_address,t_bool)"
      },
      "t_mapping(t_address,t_uint256)": {
        "encoding": "mapping",
        "key": "t_address",
        "label": "mapping(address => uint256)",
        "numberOfBytes": "32",
        "value": "t_uint256"
      },
      "t_mapping(t_bytes32,t_bool)": {
        "encoding": "mapping",
        "key": "t_bytes32",
        "label": "mapping(bytes32 => bool)",
        "numberOfBytes": "32",
        "value": "t_bool"
      },
      "t_mapping(t_bytes32,t_struct(ArtProject)2631_storage)": {
        "encoding": "mapping",
        "key": "t_bytes32",
        "label": "mapping(bytes32 => struct DetroitLocalArt.ArtProject)",
        "numberOfBytes": "32",
        "value": "t_struct(ArtProject)2631_storage"
      },
      "t_mapping(t_uint256,t_address)": {
        "encoding": "mapping",
        "key": "t_uint256",
        "label": "mapping(uint256 => address)",
        "numberOfBytes": "32",
        "value": "t_address"
      },
      "t_mapping(t_uint256,t_bytes32)": {
        "encoding": "mapping",
        "key": "t_uint256",
        "label": "mapping(uint256 => bytes32)",
        "numberOfBytes": "32",
        "value": "t_bytes32"
      },
      "t_string_storage": {
        "encoding": "bytes",
        "label": "string",
        "numberOfBytes": "32"
      },
      "t_struct(ArtProject)2631_storage": {
        "encoding": "inplace",
        "label": "struct DetroitLocalArt.ArtProject",
        "members": [
          {
            "astId": 2616,
            "contract": "contracts/DetroitLocalArt.sol:DetroitLocalArt",
            "label": "signerAddress",
            "offset": 0,
            "slot": "0",
            "type": "t_address"
          },
          {
            "astId": 2618,
            "contract": "contracts/DetroitLocalArt.sol:DetroitLocalArt",
            "label": "payoutAddress",
            "offset": 0,
            "slot": "1",
            "type": "t_address"
          },
          {
            "astId": 2620,
            "contract": "contracts/DetroitLocalArt.sol:DetroitLocalArt",
            "label": "metadataURI",
            "offset": 0,
            "slot": "2",
            "type": "t_string_storage"
          },
          {
            "astId": 2622,
            "contract": "contracts/DetroitLocalArt.sol:DetroitLocalArt",
            "label": "totalSupply",
            "offset": 0,
            "slot": "3",
            "type": "t_uint16"
          },
          {
            "astId": 2624,
            "contract": "contracts/DetroitLocalArt.sol:DetroitLocalArt",
            "label": "mintedCount",
            "offset": 2,
            "slot": "3",
            "type": "t_uint16"
          },
          {
            "astId": 2626,
            "contract": "contracts/DetroitLocalArt.sol:DetroitLocalArt",
            "label": "mintPrice",
            "offset": 0,
            "slot": "4",
            "type": "t_uint256"
          },
          {
            "astId": 2628,
            "contract": "contracts/DetroitLocalArt.sol:DetroitLocalArt",
            "label": "projectSeed",
            "offset": 0,
            "slot": "5",
            "type": "t_bytes32"
          },
          {
            "astId": 2630,
            "contract": "contracts/DetroitLocalArt.sol:DetroitLocalArt",
            "label": "projectIndex",
            "offset": 0,
            "slot": "6",
            "type": "t_uint256"
          }
        ],
        "numberOfBytes": "224"
      },
      "t_uint16": {
        "encoding": "inplace",
        "label": "uint16",
        "numberOfBytes": "2"
      },
      "t_uint256": {
        "encoding": "inplace",
        "label": "uint256",
        "numberOfBytes": "32"
      },
      "t_uint8": {
        "encoding": "inplace",
        "label": "uint8",
        "numberOfBytes": "1"
      }
    }
  }
}