{
  "address": "0x2B7d9acD18E9E3eeB74cD20E91589671068137e5",
  "abi": [
    {
      "inputs": [],
      "stateMutability": "nonpayable",
      "type": "constructor"
    },
    {
      "anonymous": false,
      "inputs": [
        {
          "indexed": true,
          "internalType": "address",
          "name": "owner",
          "type": "address"
        },
        {
          "indexed": true,
          "internalType": "address",
          "name": "approved",
          "type": "address"
        },
        {
          "indexed": true,
          "internalType": "uint256",
          "name": "tokenId",
          "type": "uint256"
        }
      ],
      "name": "Approval",
      "type": "event"
    },
    {
      "anonymous": false,
      "inputs": [
        {
          "indexed": true,
          "internalType": "address",
          "name": "owner",
          "type": "address"
        },
        {
          "indexed": true,
          "internalType": "address",
          "name": "operator",
          "type": "address"
        },
        {
          "indexed": false,
          "internalType": "bool",
          "name": "approved",
          "type": "bool"
        }
      ],
      "name": "ApprovalForAll",
      "type": "event"
    },
    {
      "anonymous": false,
      "inputs": [
        {
          "indexed": true,
          "internalType": "bytes32",
          "name": "projectId",
          "type": "bytes32"
        },
        {
          "indexed": false,
          "internalType": "address",
          "name": "signerAddress",
          "type": "address"
        },
        {
          "indexed": false,
          "internalType": "address",
          "name": "payoutAddress",
          "type": "address"
        },
        {
          "indexed": false,
          "internalType": "uint16",
          "name": "totalSupply",
          "type": "uint16"
        },
        {
          "indexed": false,
          "internalType": "uint256",
          "name": "mintPrice",
          "type": "uint256"
        },
        {
          "indexed": false,
          "internalType": "string",
          "name": "metadataURI",
          "type": "string"
        },
        {
          "indexed": false,
          "internalType": "bytes32",
          "name": "projectSeed",
          "type": "bytes32"
        }
      ],
      "name": "DefinedProject",
      "type": "event"
    },
    {
      "anonymous": false,
      "inputs": [
        {
          "indexed": false,
          "internalType": "uint8",
          "name": "version",
          "type": "uint8"
        }
      ],
      "name": "Initialized",
      "type": "event"
    },
    {
      "anonymous": false,
      "inputs": [
        {
          "indexed": true,
          "internalType": "bytes32",
          "name": "projectId",
          "type": "bytes32"
        },
        {
          "indexed": true,
          "internalType": "address",
          "name": "to",
          "type": "address"
        },
        {
          "indexed": false,
          "internalType": "uint256",
          "name": "tokenId",
          "type": "uint256"
        },
        {
          "indexed": false,
          "internalType": "uint16",
          "name": "nonceUsed",
          "type": "uint16"
        },
        {
          "indexed": false,
          "internalType": "bytes32",
          "name": "sigHash",
          "type": "bytes32"
        }
      ],
      "name": "MintedToken",
      "type": "event"
    },
    {
      "anonymous": false,
      "inputs": [
        {
          "indexed": true,
          "internalType": "address",
          "name": "previousOwner",
          "type": "address"
        },
        {
          "indexed": true,
          "internalType": "address",
          "name": "newOwner",
          "type": "address"
        }
      ],
      "name": "OwnershipTransferred",
      "type": "event"
    },
    {
      "anonymous": false,
      "inputs": [
        {
          "indexed": true,
          "internalType": "address",
          "name": "from",
          "type": "address"
        },
        {
          "indexed": true,
          "internalType": "address",
          "name": "to",
          "type": "address"
        },
        {
          "indexed": true,
          "internalType": "uint256",
          "name": "tokenId",
          "type": "uint256"
        }
      ],
      "name": "Transfer",
      "type": "event"
    },
    {
      "anonymous": false,
      "inputs": [
        {
          "indexed": true,
          "internalType": "bytes32",
          "name": "projectId",
          "type": "bytes32"
        },
        {
          "indexed": false,
          "internalType": "string",
          "name": "metadataURI",
          "type": "string"
        }
      ],
      "name": "UpdatedMetadataURI",
      "type": "event"
    },
    {
      "anonymous": false,
      "inputs": [
        {
          "indexed": true,
          "internalType": "bytes32",
          "name": "projectId",
          "type": "bytes32"
        },
        {
          "indexed": false,
          "internalType": "uint256",
          "name": "mintPrice",
          "type": "uint256"
        }
      ],
      "name": "UpdatedMintPrice",
      "type": "event"
    },
    {
      "anonymous": false,
      "inputs": [
        {
          "indexed": true,
          "internalType": "bytes32",
          "name": "projectId",
          "type": "bytes32"
        },
        {
          "indexed": false,
          "internalType": "address",
          "name": "payoutAddress",
          "type": "address"
        }
      ],
      "name": "UpdatedPayoutAddress",
      "type": "event"
    },
    {
      "inputs": [
        {
          "internalType": "address",
          "name": "to",
          "type": "address"
        },
        {
          "internalType": "uint256",
          "name": "tokenId",
          "type": "uint256"
        }
      ],
      "name": "approve",
      "outputs": [],
      "stateMutability": "nonpayable",
      "type": "function"
    },
    {
      "inputs": [
        {
          "internalType": "bytes32",
          "name": "",
          "type": "bytes32"
        }
      ],
      "name": "artProjects",
      "outputs": [
        {
          "internalType": "address",
          "name": "signerAddress",
          "type": "address"
        },
        {
          "internalType": "address",
          "name": "payoutAddress",
          "type": "address"
        },
        {
          "internalType": "string",
          "name": "metadataURI",
          "type": "string"
        },
        {
          "internalType": "uint16",
          "name": "totalSupply",
          "type": "uint16"
        },
        {
          "internalType": "uint16",
          "name": "mintedCount",
          "type": "uint16"
        },
        {
          "internalType": "uint256",
          "name": "mintPrice",
          "type": "uint256"
        },
        {
          "internalType": "bytes32",
          "name": "projectSeed",
          "type": "bytes32"
        },
        {
          "internalType": "uint256",
          "name": "projectIndex",
          "type": "uint256"
        }
      ],
      "stateMutability": "view",
      "type": "function"
    },
    {
      "inputs": [
        {
          "internalType": "address",
          "name": "owner",
          "type": "address"
        }
      ],
      "name": "balanceOf",
      "outputs": [
        {
          "internalType": "uint256",
          "name": "",
          "type": "uint256"
        }
      ],
      "stateMutability": "view",
      "type": "function"
    },
    {
      "inputs": [
        {
          "internalType": "address",
          "name": "_signerAddress",
          "type": "address"
        },
        {
          "internalType": "address",
          "name": "_artistAddress",
          "type": "address"
        },
        {
          "internalType": "string",
          "name": "_metadataURI",
          "type": "string"
        },
        {
          "internalType": "uint16",
          "name": "_totalSupply",
          "type": "uint16"
        },
        {
          "internalType": "uint256",
          "name": "_mintPrice",
          "type": "uint256"
        },
        {
          "internalType": "bytes32",
          "name": "_projectSeed",
          "type": "bytes32"
        }
      ],
      "name": "defineProject",
      "outputs": [],
      "stateMutability": "nonpayable",
      "type": "function"
    },
    {
      "inputs": [
        {
          "internalType": "uint256",
          "name": "tokenId",
          "type": "uint256"
        }
      ],
      "name": "getApproved",
      "outputs": [
        {
          "internalType": "address",
          "name": "",
          "type": "address"
        }
      ],
      "stateMutability": "view",
      "type": "function"
    },
    {
      "inputs": [
        {
          "internalType": "address",
          "name": "artistAddress",
          "type": "address"
        },
        {
          "internalType": "uint16",
          "name": "totalSupply",
          "type": "uint16"
        },
        {
          "internalType": "bytes32",
          "name": "projectSeed",
          "type": "bytes32"
        }
      ],
      "name": "getProjectId",
      "outputs": [
        {
          "internalType": "bytes32",
          "name": "",
          "type": "bytes32"
        }
      ],
      "stateMutability": "nonpayable",
      "type": "function"
    },
    {
      "inputs": [
        {
          "internalType": "uint256",
          "name": "tokenId",
          "type": "uint256"
        }
      ],
      "name": "getProjectIdFromTokenId",
      "outputs": [
        {
          "internalType": "bytes32",
          "name": "",
          "type": "bytes32"
        }
      ],
      "stateMutability": "view",
      "type": "function"
    },
    {
      "inputs": [
        {
          "internalType": "bytes32",
          "name": "projectId",
          "type": "bytes32"
        },
        {
          "internalType": "uint16",
          "name": "nonce",
          "type": "uint16"
        }
      ],
      "name": "getTypeHash",
      "outputs": [
        {
          "internalType": "bytes32",
          "name": "",
          "type": "bytes32"
        }
      ],
      "stateMutability": "view",
      "type": "function"
    },
    {
      "inputs": [],
      "name": "initialize",
      "outputs": [],
      "stateMutability": "nonpayable",
      "type": "function"
    },
    {
      "inputs": [
        {
          "internalType": "address",
          "name": "owner",
          "type": "address"
        },
        {
          "internalType": "address",
          "name": "operator",
          "type": "address"
        }
      ],
      "name": "isApprovedForAll",
      "outputs": [
        {
          "internalType": "bool",
          "name": "",
          "type": "bool"
        }
      ],
      "stateMutability": "view",
      "type": "function"
    },
    {
      "inputs": [
        {
          "internalType": "bytes32",
          "name": "_projectId",
          "type": "bytes32"
        },
        {
          "internalType": "uint16",
          "name": "_nonce",
          "type": "uint16"
        },
        {
          "internalType": "bytes",
          "name": "_signature",
          "type": "bytes"
        }
      ],
      "name": "mintToken",
      "outputs": [],
      "stateMutability": "payable",
      "type": "function"
    },
    {
      "inputs": [
        {
          "internalType": "bytes",
          "name": "_secretMessage",
          "type": "bytes"
        }
      ],
      "name": "mintTokenFromSecretMessage",
      "outputs": [],
      "stateMutability": "payable",
      "type": "function"
    },
    {
      "inputs": [
        {
          "internalType": "bytes32",
          "name": "_projectId",
          "type": "bytes32"
        },
        {
          "internalType": "string",
          "name": "_metadataURI",
          "type": "string"
        }
      ],
      "name": "modifyProjectMetadata",
      "outputs": [],
      "stateMutability": "nonpayable",
      "type": "function"
    },
    {
      "inputs": [
        {
          "internalType": "bytes32",
          "name": "_projectId",
          "type": "bytes32"
        },
        {
          "internalType": "uint256",
          "name": "_mintPrice",
          "type": "uint256"
        }
      ],
      "name": "modifyProjectMintPrice",
      "outputs": [],
      "stateMutability": "nonpayable",
      "type": "function"
    },
    {
      "inputs": [
        {
          "internalType": "bytes32",
          "name": "_projectId",
          "type": "bytes32"
        },
        {
          "internalType": "address",
          "name": "_payoutAddress",
          "type": "address"
        }
      ],
      "name": "modifyProjectPayoutAddress",
      "outputs": [],
      "stateMutability": "nonpayable",
      "type": "function"
    },
    {
      "inputs": [],
      "name": "name",
      "outputs": [
        {
          "internalType": "string",
          "name": "",
          "type": "string"
        }
      ],
      "stateMutability": "view",
      "type": "function"
    },
    {
      "inputs": [],
      "name": "owner",
      "outputs": [
        {
          "internalType": "address",
          "name": "",
          "type": "address"
        }
      ],
      "stateMutability": "view",
      "type": "function"
    },
    {
      "inputs": [
        {
          "internalType": "uint256",
          "name": "tokenId",
          "type": "uint256"
        }
      ],
      "name": "ownerOf",
      "outputs": [
        {
          "internalType": "address",
          "name": "",
          "type": "address"
        }
      ],
      "stateMutability": "view",
      "type": "function"
    },
    {
      "inputs": [
        {
          "internalType": "uint256",
          "name": "",
          "type": "uint256"
        }
      ],
      "name": "projectIdLookup",
      "outputs": [
        {
          "internalType": "bytes32",
          "name": "",
          "type": "bytes32"
        }
      ],
      "stateMutability": "view",
      "type": "function"
    },
    {
      "inputs": [],
      "name": "renounceOwnership",
      "outputs": [],
      "stateMutability": "nonpayable",
      "type": "function"
    },
    {
      "inputs": [
        {
          "internalType": "address",
          "name": "from",
          "type": "address"
        },
        {
          "internalType": "address",
          "name": "to",
          "type": "address"
        },
        {
          "internalType": "uint256",
          "name": "tokenId",
          "type": "uint256"
        }
      ],
      "name": "safeTransferFrom",
      "outputs": [],
      "stateMutability": "nonpayable",
      "type": "function"
    },
    {
      "inputs": [
        {
          "internalType": "address",
          "name": "from",
          "type": "address"
        },
        {
          "internalType": "address",
          "name": "to",
          "type": "address"
        },
        {
          "internalType": "uint256",
          "name": "tokenId",
          "type": "uint256"
        },
        {
          "internalType": "bytes",
          "name": "_data",
          "type": "bytes"
        }
      ],
      "name": "safeTransferFrom",
      "outputs": [],
      "stateMutability": "nonpayable",
      "type": "function"
    },
    {
      "inputs": [
        {
          "internalType": "address",
          "name": "operator",
          "type": "address"
        },
        {
          "internalType": "bool",
          "name": "approved",
          "type": "bool"
        }
      ],
      "name": "setApprovalForAll",
      "outputs": [],
      "stateMutability": "nonpayable",
      "type": "function"
    },
    {
      "inputs": [
        {
          "internalType": "bytes",
          "name": "_signature",
          "type": "bytes"
        }
      ],
      "name": "signatureHasBeenUsed",
      "outputs": [
        {
          "internalType": "bool",
          "name": "",
          "type": "bool"
        }
      ],
      "stateMutability": "view",
      "type": "function"
    },
    {
      "inputs": [
        {
          "internalType": "bytes4",
          "name": "interfaceId",
          "type": "bytes4"
        }
      ],
      "name": "supportsInterface",
      "outputs": [
        {
          "internalType": "bool",
          "name": "",
          "type": "bool"
        }
      ],
      "stateMutability": "view",
      "type": "function"
    },
    {
      "inputs": [],
      "name": "symbol",
      "outputs": [
        {
          "internalType": "string",
          "name": "",
          "type": "string"
        }
      ],
      "stateMutability": "view",
      "type": "function"
    },
    {
      "inputs": [
        {
          "internalType": "uint256",
          "name": "tokenId",
          "type": "uint256"
        }
      ],
      "name": "tokenURI",
      "outputs": [
        {
          "internalType": "string",
          "name": "",
          "type": "string"
        }
      ],
      "stateMutability": "view",
      "type": "function"
    },
    {
      "inputs": [
        {
          "internalType": "address",
          "name": "from",
          "type": "address"
        },
        {
          "internalType": "address",
          "name": "to",
          "type": "address"
        },
        {
          "internalType": "uint256",
          "name": "tokenId",
          "type": "uint256"
        }
      ],
      "name": "transferFrom",
      "outputs": [],
      "stateMutability": "nonpayable",
      "type": "function"
    },
    {
      "inputs": [
        {
          "internalType": "address",
          "name": "newOwner",
          "type": "address"
        }
      ],
      "name": "transferOwnership",
      "outputs": [],
      "stateMutability": "nonpayable",
      "type": "function"
    },
    {
      "inputs": [
        {
          "internalType": "bytes32",
          "name": "",
          "type": "bytes32"
        }
      ],
      "name": "usedSignatureHashes",
      "outputs": [
        {
          "internalType": "bool",
          "name": "",
          "type": "bool"
        }
      ],
      "stateMutability": "view",
      "type": "function"
    }
  ],
  "transactionHash": "0x3d34dbc901d8139c99cb8afde97c07abcea7a16af675ba231b604cc94c17e083",
  "args": [],
  "solcInputHash": "e36f37a530a82084a87ea850b45216a7",
  "bytecode": "0x60a060405261271061ffff1660809061ffff1681525034801561002157600080fd5b506080516154d761004460003960008181610db701526124de01526154d76000f3fe6080604052600436106101cd5760003560e01c80638d54a10c116100f7578063ae45bb1b11610095578063dddf96d611610064578063dddf96d6146106b4578063e985e9c5146106d0578063f2fde38b1461070d578063fcba710e14610736576101cd565b8063ae45bb1b146105e8578063b71ed56114610625578063b88d4fde1461064e578063c87b56dd14610677576101cd565b80639a1552df116100d15780639a1552df1461053d578063a22cb46514610559578063a5135a7414610582578063a6932b2a146105bf576101cd565b80638d54a10c146104aa5780638da5cb5b146104e757806395d89b4114610512576101cd565b806342842e0e1161016f578063715018a61161013e578063715018a614610416578063754abc241461042d5780638129fc1c1461045657806386e5fcdd1461046d576101cd565b806342842e0e146103365780635d89170d1461035f5780636352211e1461039c57806370a08231146103d9576101cd565b80630818e648116101ab5780630818e64814610277578063095ea7b3146102bb57806323b872dd146102e45780632d86ef6f1461030d576101cd565b806301ffc9a7146101d257806306fdde031461020f578063081812fc1461023a575b600080fd5b3480156101de57600080fd5b506101f960048036038101906101f49190613568565b610773565b60405161020691906135b0565b60405180910390f35b34801561021b57600080fd5b50610224610855565b6040516102319190613664565b60405180910390f35b34801561024657600080fd5b50610261600480360381019061025c91906136bc565b6108e7565b60405161026e919061372a565b60405180910390f35b34801561028357600080fd5b5061029e6004803603810190610299919061377b565b61096c565b6040516102b29897969594939291906137e3565b60405180910390f35b3480156102c757600080fd5b506102e260048036038101906102dd9190613894565b610a98565b005b3480156102f057600080fd5b5061030b600480360381019061030691906138d4565b610bb0565b005b34801561031957600080fd5b50610334600480360381019061032f9190613927565b610c10565b005b34801561034257600080fd5b5061035d600480360381019061035891906138d4565b610d92565b005b34801561036b57600080fd5b50610386600480360381019061038191906136bc565b610db2565b6040516103939190613967565b60405180910390f35b3480156103a857600080fd5b506103c360048036038101906103be91906136bc565b610e03565b6040516103d0919061372a565b60405180910390f35b3480156103e557600080fd5b5061040060048036038101906103fb9190613982565b610eb5565b60405161040d91906139af565b60405180910390f35b34801561042257600080fd5b5061042b610f6d565b005b34801561043957600080fd5b50610454600480360381019061044f9190613aff565b610ff5565b005b34801561046257600080fd5b5061046b61114d565b005b34801561047957600080fd5b50610494600480360381019061048f9190613b87565b611255565b6040516104a19190613967565b60405180910390f35b3480156104b657600080fd5b506104d160048036038101906104cc919061377b565b6112aa565b6040516104de91906135b0565b60405180910390f35b3480156104f357600080fd5b506104fc6112ca565b604051610509919061372a565b60405180910390f35b34801561051e57600080fd5b506105276112f4565b6040516105349190613664565b60405180910390f35b61055760048036038101906105529190613c68565b611386565b005b34801561056557600080fd5b50610580600480360381019061057b9190613cdd565b6113fe565b005b34801561058e57600080fd5b506105a960048036038101906105a49190613c68565b611414565b6040516105b691906135b0565b60405180910390f35b3480156105cb57600080fd5b506105e660048036038101906105e19190613d1d565b611445565b005b3480156105f457600080fd5b5061060f600480360381019061060a9190613d5d565b61158d565b60405161061c9190613967565b60405180910390f35b34801561063157600080fd5b5061064c60048036038101906106479190613db0565b6115c3565b005b34801561065a57600080fd5b5061067560048036038101906106709190613e59565b61196c565b005b34801561068357600080fd5b5061069e600480360381019061069991906136bc565b6119ce565b6040516106ab9190613664565b60405180910390f35b6106ce60048036038101906106c99190613edc565b611a96565b005b3480156106dc57600080fd5b506106f760048036038101906106f29190613f4b565b611aa7565b60405161070491906135b0565b60405180910390f35b34801561071957600080fd5b50610734600480360381019061072f9190613982565b611b3b565b005b34801561074257600080fd5b5061075d600480360381019061075891906136bc565b611c33565b60405161076a9190613967565b60405180910390f35b60007f80ac58cd000000000000000000000000000000000000000000000000000000007bffffffffffffffffffffffffffffffffffffffffffffffffffffffff1916827bffffffffffffffffffffffffffffffffffffffffffffffffffffffff1916148061083e57507f5b5e139f000000000000000000000000000000000000000000000000000000007bffffffffffffffffffffffffffffffffffffffffffffffffffffffff1916827bffffffffffffffffffffffffffffffffffffffffffffffffffffffff1916145b8061084e575061084d82611c4b565b5b9050919050565b60606065805461086490613fba565b80601f016020809104026020016040519081016040528092919081815260200182805461089090613fba565b80156108dd5780601f106108b2576101008083540402835291602001916108dd565b820191906000526020600020905b8154815290600101906020018083116108c057829003601f168201915b5050505050905090565b60006108f282611cb5565b610931576040517f08c379a00000000000000000000000000000000000000000000000000000000081526004016109289061405e565b60405180910390fd5b6069600083815260200190815260200160002060009054906101000a900473ffffffffffffffffffffffffffffffffffffffff169050919050565b60c96020528060005260406000206000915090508060000160009054906101000a900473ffffffffffffffffffffffffffffffffffffffff16908060010160009054906101000a900473ffffffffffffffffffffffffffffffffffffffff16908060020180546109db90613fba565b80601f0160208091040260200160405190810160405280929190818152602001828054610a0790613fba565b8015610a545780601f10610a2957610100808354040283529160200191610a54565b820191906000526020600020905b815481529060010190602001808311610a3757829003601f168201915b5050505050908060030160009054906101000a900461ffff16908060030160029054906101000a900461ffff16908060040154908060050154908060060154905088565b6000610aa382610e03565b90508073ffffffffffffffffffffffffffffffffffffffff168373ffffffffffffffffffffffffffffffffffffffff161415610b14576040517f08c379a0000000000000000000000000000000000000000000000000000000008152600401610b0b906140f0565b60405180910390fd5b8073ffffffffffffffffffffffffffffffffffffffff16610b33611d21565b73ffffffffffffffffffffffffffffffffffffffff161480610b625750610b6181610b5c611d21565b611aa7565b5b610ba1576040517f08c379a0000000000000000000000000000000000000000000000000000000008152600401610b9890614182565b60405180910390fd5b610bab8383611d29565b505050565b610bc1610bbb611d21565b82611de2565b610c00576040517f08c379a0000000000000000000000000000000000000000000000000000000008152600401610bf790614214565b60405180910390fd5b610c0b838383611ec0565b505050565b60c9600083815260200190815260200160002060000160009054906101000a900473ffffffffffffffffffffffffffffffffffffffff16610c4f6112ca565b73ffffffffffffffffffffffffffffffffffffffff16610c6d611d21565b73ffffffffffffffffffffffffffffffffffffffff161480610cc157508073ffffffffffffffffffffffffffffffffffffffff16610ca9611d21565b73ffffffffffffffffffffffffffffffffffffffff16145b610d00576040517f08c379a0000000000000000000000000000000000000000000000000000000008152600401610cf790614280565b60405180910390fd5b8160c9600085815260200190815260200160002060010160006101000a81548173ffffffffffffffffffffffffffffffffffffffff021916908373ffffffffffffffffffffffffffffffffffffffff160217905550827f3833e45d14699086c62a94aa805cdb486f3d41948169c884edf13dbcf897337683604051610d85919061372a565b60405180910390a2505050565b610dad8383836040518060200160405280600081525061196c565b505050565b6000807f000000000000000000000000000000000000000000000000000000000000000061ffff1683610de591906142fe565b905060cb600082815260200190815260200160002054915050919050565b6000806067600084815260200190815260200160002060009054906101000a900473ffffffffffffffffffffffffffffffffffffffff169050600073ffffffffffffffffffffffffffffffffffffffff168173ffffffffffffffffffffffffffffffffffffffff161415610eac576040517f08c379a0000000000000000000000000000000000000000000000000000000008152600401610ea3906143a1565b60405180910390fd5b80915050919050565b60008073ffffffffffffffffffffffffffffffffffffffff168273ffffffffffffffffffffffffffffffffffffffff161415610f26576040517f08c379a0000000000000000000000000000000000000000000000000000000008152600401610f1d90614433565b60405180910390fd5b606860008373ffffffffffffffffffffffffffffffffffffffff1673ffffffffffffffffffffffffffffffffffffffff168152602001908152602001600020549050919050565b610f75611d21565b73ffffffffffffffffffffffffffffffffffffffff16610f936112ca565b73ffffffffffffffffffffffffffffffffffffffff1614610fe9576040517f08c379a0000000000000000000000000000000000000000000000000000000008152600401610fe090614280565b60405180910390fd5b610ff36000612127565b565b60c9600083815260200190815260200160002060000160009054906101000a900473ffffffffffffffffffffffffffffffffffffffff166110346112ca565b73ffffffffffffffffffffffffffffffffffffffff16611052611d21565b73ffffffffffffffffffffffffffffffffffffffff1614806110a657508073ffffffffffffffffffffffffffffffffffffffff1661108e611d21565b73ffffffffffffffffffffffffffffffffffffffff16145b6110e5576040517f08c379a00000000000000000000000000000000000000000000000000000000081526004016110dc90614280565b60405180910390fd5b8160c96000858152602001908152602001600020600201908051906020019061110f929190613459565b50827ff4eeed15314036815e11c8066165d190d98c781526371d82124d3180c7d643e9836040516111409190613664565b60405180910390a2505050565b600061115960016121ed565b9050801561117d576001600060016101000a81548160ff0219169083151502179055505b6111856122dd565b6111f96040518060400160405280600f81526020017f446574726f69744c6f63616c41727400000000000000000000000000000000008152506040518060400160405280600381526020017f444c410000000000000000000000000000000000000000000000000000000000815250612336565b80156112525760008060016101000a81548160ff0219169083151502179055507f7f26b83ff96e1f2b6a682f133852f6798a09c465da95921460cefb3847402498600160405161124991906144a5565b60405180910390a15b50565b60007fbb74bfc0cab13a6451fe94dacc112ee8bc07ee15641a20757bf5498310869cad838360405160200161128c939291906144c0565b60405160208183030381529060405280519060200120905092915050565b60ca6020528060005260406000206000915054906101000a900460ff1681565b6000609760009054906101000a900473ffffffffffffffffffffffffffffffffffffffff16905090565b60606066805461130390613fba565b80601f016020809104026020016040519081016040528092919081815260200182805461132f90613fba565b801561137c5780601f106113515761010080835404028352916020019161137c565b820191906000526020600020905b81548152906001019060200180831161135f57829003601f168201915b5050505050905090565b60638151146113ca576040517f08c379a00000000000000000000000000000000000000000000000000000000081526004016113c190614543565b60405180910390fd5b600080606060208401519250602284015191506113ea8460226041612393565b90506113f8338484846124b1565b50505050565b611410611409611d21565b8383612852565b5050565b600060ca60008380519060200120815260200190815260200160002060009054906101000a900460ff169050919050565b60c9600083815260200190815260200160002060000160009054906101000a900473ffffffffffffffffffffffffffffffffffffffff166114846112ca565b73ffffffffffffffffffffffffffffffffffffffff166114a2611d21565b73ffffffffffffffffffffffffffffffffffffffff1614806114f657508073ffffffffffffffffffffffffffffffffffffffff166114de611d21565b73ffffffffffffffffffffffffffffffffffffffff16145b611535576040517f08c379a000000000000000000000000000000000000000000000000000000000815260040161152c90614280565b60405180910390fd5b8160c9600085815260200190815260200160002060040181905550827f8bf28d99366bdadee1faf93b04fb78aef0a2dbc2a916f000c84ca16cad2cd75b8360405161158091906139af565b60405180910390a2505050565b60008383836040516020016115a493929190614563565b6040516020818303038152906040528051906020012090509392505050565b846115cc6112ca565b73ffffffffffffffffffffffffffffffffffffffff166115ea611d21565b73ffffffffffffffffffffffffffffffffffffffff16148061163e57508073ffffffffffffffffffffffffffffffffffffffff16611626611d21565b73ffffffffffffffffffffffffffffffffffffffff16145b61167d576040517f08c379a000000000000000000000000000000000000000000000000000000000815260040161167490614280565b60405180910390fd5b600061168a87868561158d565b9050600073ffffffffffffffffffffffffffffffffffffffff1660c9600083815260200190815260200160002060000160009054906101000a900473ffffffffffffffffffffffffffffffffffffffff1673ffffffffffffffffffffffffffffffffffffffff1614611731576040517f08c379a00000000000000000000000000000000000000000000000000000000081526004016117289061460c565b60405180910390fd5b600060cc600081819054906101000a900461ffff16809291906117539061462c565b91906101000a81548161ffff021916908361ffff16021790555061ffff1690506040518061010001604052808a73ffffffffffffffffffffffffffffffffffffffff1681526020018973ffffffffffffffffffffffffffffffffffffffff1681526020018881526020018761ffff168152602001600061ffff1681526020018681526020018581526020018281525060c9600084815260200190815260200160002060008201518160000160006101000a81548173ffffffffffffffffffffffffffffffffffffffff021916908373ffffffffffffffffffffffffffffffffffffffff16021790555060208201518160010160006101000a81548173ffffffffffffffffffffffffffffffffffffffff021916908373ffffffffffffffffffffffffffffffffffffffff160217905550604082015181600201908051906020019061189f929190613459565b5060608201518160030160006101000a81548161ffff021916908361ffff16021790555060808201518160030160026101000a81548161ffff021916908361ffff16021790555060a0820151816004015560c0820151816005015560e082015181600601559050508160cb600083815260200190815260200160002081905550817f7677ec20b7e77961879d69447f71a0dec6b633f3f1c857c8125138b7704a16e88a8a89898c8a60405161195996959493929190614657565b60405180910390a2505050505050505050565b61197d611977611d21565b83611de2565b6119bc576040517f08c379a00000000000000000000000000000000000000000000000000000000081526004016119b390614214565b60405180910390fd5b6119c8848484846129bf565b50505050565b60606119d982611cb5565b6119e257600080fd5b60006119ed83610db2565b905060c960008281526020019081526020016000206002018054611a1090613fba565b80601f0160208091040260200160405190810160405280929190818152602001828054611a3c90613fba565b8015611a895780601f10611a5e57610100808354040283529160200191611a89565b820191906000526020600020905b815481529060010190602001808311611a6c57829003601f168201915b5050505050915050919050565b611aa2338484846124b1565b505050565b6000606a60008473ffffffffffffffffffffffffffffffffffffffff1673ffffffffffffffffffffffffffffffffffffffff16815260200190815260200160002060008373ffffffffffffffffffffffffffffffffffffffff1673ffffffffffffffffffffffffffffffffffffffff16815260200190815260200160002060009054906101000a900460ff16905092915050565b611b43611d21565b73ffffffffffffffffffffffffffffffffffffffff16611b616112ca565b73ffffffffffffffffffffffffffffffffffffffff1614611bb7576040517f08c379a0000000000000000000000000000000000000000000000000000000008152600401611bae90614280565b60405180910390fd5b600073ffffffffffffffffffffffffffffffffffffffff168173ffffffffffffffffffffffffffffffffffffffff161415611c27576040517f08c379a0000000000000000000000000000000000000000000000000000000008152600401611c1e90614731565b60405180910390fd5b611c3081612127565b50565b60cb6020528060005260406000206000915090505481565b60007f01ffc9a7000000000000000000000000000000000000000000000000000000007bffffffffffffffffffffffffffffffffffffffffffffffffffffffff1916827bffffffffffffffffffffffffffffffffffffffffffffffffffffffff1916149050919050565b60008073ffffffffffffffffffffffffffffffffffffffff166067600084815260200190815260200160002060009054906101000a900473ffffffffffffffffffffffffffffffffffffffff1673ffffffffffffffffffffffffffffffffffffffff1614159050919050565b600033905090565b816069600083815260200190815260200160002060006101000a81548173ffffffffffffffffffffffffffffffffffffffff021916908373ffffffffffffffffffffffffffffffffffffffff160217905550808273ffffffffffffffffffffffffffffffffffffffff16611d9c83610e03565b73ffffffffffffffffffffffffffffffffffffffff167f8c5be1e5ebec7d5bd14f71427d1e84f3dd0314c0f7b2291e5b200ac8c7c3b92560405160405180910390a45050565b6000611ded82611cb5565b611e2c576040517f08c379a0000000000000000000000000000000000000000000000000000000008152600401611e23906147c3565b60405180910390fd5b6000611e3783610e03565b90508073ffffffffffffffffffffffffffffffffffffffff168473ffffffffffffffffffffffffffffffffffffffff161480611e795750611e788185611aa7565b5b80611eb757508373ffffffffffffffffffffffffffffffffffffffff16611e9f846108e7565b73ffffffffffffffffffffffffffffffffffffffff16145b91505092915050565b8273ffffffffffffffffffffffffffffffffffffffff16611ee082610e03565b73ffffffffffffffffffffffffffffffffffffffff1614611f36576040517f08c379a0000000000000000000000000000000000000000000000000000000008152600401611f2d90614855565b60405180910390fd5b600073ffffffffffffffffffffffffffffffffffffffff168273ffffffffffffffffffffffffffffffffffffffff161415611fa6576040517f08c379a0000000000000000000000000000000000000000000000000000000008152600401611f9d906148e7565b60405180910390fd5b611fb1838383612a1b565b611fbc600082611d29565b6001606860008573ffffffffffffffffffffffffffffffffffffffff1673ffffffffffffffffffffffffffffffffffffffff168152602001908152602001600020600082825461200c9190614907565b925050819055506001606860008473ffffffffffffffffffffffffffffffffffffffff1673ffffffffffffffffffffffffffffffffffffffff1681526020019081526020016000206000828254612063919061493b565b92505081905550816067600083815260200190815260200160002060006101000a81548173ffffffffffffffffffffffffffffffffffffffff021916908373ffffffffffffffffffffffffffffffffffffffff160217905550808273ffffffffffffffffffffffffffffffffffffffff168473ffffffffffffffffffffffffffffffffffffffff167fddf252ad1be2c89b69c2b068fc378daa952ba7f163c4a11628f55a4df523b3ef60405160405180910390a4612122838383612a20565b505050565b6000609760009054906101000a900473ffffffffffffffffffffffffffffffffffffffff16905081609760006101000a81548173ffffffffffffffffffffffffffffffffffffffff021916908373ffffffffffffffffffffffffffffffffffffffff1602179055508173ffffffffffffffffffffffffffffffffffffffff168173ffffffffffffffffffffffffffffffffffffffff167f8be0079c531659141344cd1fd0a4f28419497f9722a3daafe3b4186f6b6457e060405160405180910390a35050565b60008060019054906101000a900460ff16156122645760018260ff1614801561221c575061221a30612a25565b155b61225b576040517f08c379a000000000000000000000000000000000000000000000000000000000815260040161225290614a03565b60405180910390fd5b600090506122d8565b8160ff1660008054906101000a900460ff1660ff16106122b9576040517f08c379a00000000000000000000000000000000000000000000000000000000081526004016122b090614a03565b60405180910390fd5b816000806101000a81548160ff021916908360ff160217905550600190505b919050565b600060019054906101000a900460ff1661232c576040517f08c379a000000000000000000000000000000000000000000000000000000000815260040161232390614a95565b60405180910390fd5b612334612a48565b565b600060019054906101000a900460ff16612385576040517f08c379a000000000000000000000000000000000000000000000000000000000815260040161237c90614a95565b60405180910390fd5b61238f8282612aa9565b5050565b606081601f836123a3919061493b565b10156123e4576040517f08c379a00000000000000000000000000000000000000000000000000000000081526004016123db90614b01565b60405180910390fd5b81836123f0919061493b565b84511015612433576040517f08c379a000000000000000000000000000000000000000000000000000000000815260040161242a90614b6d565b60405180910390fd5b606082156000811461245457604051915060008252602082016040526124a5565b6040519150601f8416801560200281840101858101878315602002848b0101015b818310156124925780518352602083019250602081019050612475565b50868552601f19601f8301166040525050505b50809150509392505050565b600060c9600085815260200190815260200160002060030160029054906101000a900461ffff1661ffff167f000000000000000000000000000000000000000000000000000000000000000061ffff1660c96000878152602001908152602001600020600601546125229190614b8d565b61252c919061493b565b9050600160c9600086815260200190815260200160002060030160028282829054906101000a900461ffff166125629190614be7565b92506101000a81548161ffff021916908361ffff16021790555060c9600085815260200190815260200160002060030160009054906101000a900461ffff1661ffff1660c9600086815260200190815260200160002060030160029054906101000a900461ffff1661ffff16111561260f576040517f08c379a000000000000000000000000000000000000000000000000000000000815260040161260690614c91565b60405180910390fd5b6000151561261c83611414565b15151461265e576040517f08c379a000000000000000000000000000000000000000000000000000000000815260040161265590614cfd565b60405180910390fd5b600160ca60008480519060200120815260200190815260200160002060006101000a81548160ff0219169083151502179055506126d360c9600086815260200190815260200160002060000160009054906101000a900473ffffffffffffffffffffffffffffffffffffffff16858585612b2a565b612712576040517f08c379a000000000000000000000000000000000000000000000000000000000815260040161270990614d69565b60405180910390fd5b61271c8582612bb1565b60c96000858152602001908152602001600020600401543414612774576040517f08c379a000000000000000000000000000000000000000000000000000000000815260040161276b90614dd5565b60405180910390fd5b60c9600085815260200190815260200160002060010160009054906101000a900473ffffffffffffffffffffffffffffffffffffffff1673ffffffffffffffffffffffffffffffffffffffff166108fc349081150290604051600060405180830381858888f193505050501580156127f0573d6000803e3d6000fd5b508473ffffffffffffffffffffffffffffffffffffffff16847f858f7f381d57a58f2e65ea21be7a4da2bd2f3937ea0ceba485140ba8719efb048386868051906020012060405161284393929190614df5565b60405180910390a35050505050565b8173ffffffffffffffffffffffffffffffffffffffff168373ffffffffffffffffffffffffffffffffffffffff1614156128c1576040517f08c379a00000000000000000000000000000000000000000000000000000000081526004016128b890614e78565b60405180910390fd5b80606a60008573ffffffffffffffffffffffffffffffffffffffff1673ffffffffffffffffffffffffffffffffffffffff16815260200190815260200160002060008473ffffffffffffffffffffffffffffffffffffffff1673ffffffffffffffffffffffffffffffffffffffff16815260200190815260200160002060006101000a81548160ff0219169083151502179055508173ffffffffffffffffffffffffffffffffffffffff168373ffffffffffffffffffffffffffffffffffffffff167f17307eab39ab6107e8899845ad3d59bd9653f200f220920489ca2b5937696c31836040516129b291906135b0565b60405180910390a3505050565b6129ca848484611ec0565b6129d684848484612bcf565b612a15576040517f08c379a0000000000000000000000000000000000000000000000000000000008152600401612a0c90614f0a565b60405180910390fd5b50505050565b505050565b505050565b6000808273ffffffffffffffffffffffffffffffffffffffff163b119050919050565b600060019054906101000a900460ff16612a97576040517f08c379a0000000000000000000000000000000000000000000000000000000008152600401612a8e90614a95565b60405180910390fd5b612aa7612aa2611d21565b612127565b565b600060019054906101000a900460ff16612af8576040517f08c379a0000000000000000000000000000000000000000000000000000000008152600401612aef90614a95565b60405180910390fd5b8160659080519060200190612b0e929190613459565b508060669080519060200190612b25929190613459565b505050565b600080612b378585611255565b90506000612b43612d66565b82604051602001612b55929190614fa2565b6040516020818303038152906040528051906020012090508673ffffffffffffffffffffffffffffffffffffffff16612b8e8286612e39565b73ffffffffffffffffffffffffffffffffffffffff161492505050949350505050565b612bcb828260405180602001604052806000815250612e60565b5050565b6000612bf08473ffffffffffffffffffffffffffffffffffffffff16612a25565b15612d59578373ffffffffffffffffffffffffffffffffffffffff1663150b7a02612c19611d21565b8786866040518563ffffffff1660e01b8152600401612c3b949392919061502e565b602060405180830381600087803b158015612c5557600080fd5b505af1925050508015612c8657506040513d601f19601f82011682018060405250810190612c83919061508f565b60015b612d09573d8060008114612cb6576040519150601f19603f3d011682016040523d82523d6000602084013e612cbb565b606091505b50600081511415612d01576040517f08c379a0000000000000000000000000000000000000000000000000000000008152600401612cf890614f0a565b60405180910390fd5b805181602001fd5b63150b7a0260e01b7bffffffffffffffffffffffffffffffffffffffffffffffffffffffff1916817bffffffffffffffffffffffffffffffffffffffffffffffffffffffff191614915050612d5e565b600190505b949350505050565b6000804690507f8b73c3c69bb8fe3d512ecc4cf759cc79239f7b179b0ffacaa9a75d522b39400f6040518060400160405280600f81526020017f446574726f69744c6f63616c4172740000000000000000000000000000000000815250805190602001206040518060400160405280600381526020017f312e300000000000000000000000000000000000000000000000000000000000815250805190602001208330604051602001612e1d9594939291906150f7565b6040516020818303038152906040528051906020012091505090565b6000806000612e488585612ebb565b91509150612e5581612f3e565b819250505092915050565b612e6a8383613113565b612e776000848484612bcf565b612eb6576040517f08c379a0000000000000000000000000000000000000000000000000000000008152600401612ead90614f0a565b60405180910390fd5b505050565b600080604183511415612efd5760008060006020860151925060408601519150606086015160001a9050612ef1878285856132ed565b94509450505050612f37565b604083511415612f2e576000806020850151915060408501519050612f238683836133fa565b935093505050612f37565b60006002915091505b9250929050565b60006004811115612f5257612f5161514a565b5b816004811115612f6557612f6461514a565b5b1415612f7057613110565b60016004811115612f8457612f8361514a565b5b816004811115612f9757612f9661514a565b5b1415612fd8576040517f08c379a0000000000000000000000000000000000000000000000000000000008152600401612fcf906151c5565b60405180910390fd5b60026004811115612fec57612feb61514a565b5b816004811115612fff57612ffe61514a565b5b1415613040576040517f08c379a000000000000000000000000000000000000000000000000000000000815260040161303790615231565b60405180910390fd5b600360048111156130545761305361514a565b5b8160048111156130675761306661514a565b5b14156130a8576040517f08c379a000000000000000000000000000000000000000000000000000000000815260040161309f906152c3565b60405180910390fd5b6004808111156130bb576130ba61514a565b5b8160048111156130ce576130cd61514a565b5b141561310f576040517f08c379a000000000000000000000000000000000000000000000000000000000815260040161310690615355565b60405180910390fd5b5b50565b600073ffffffffffffffffffffffffffffffffffffffff168273ffffffffffffffffffffffffffffffffffffffff161415613183576040517f08c379a000000000000000000000000000000000000000000000000000000000815260040161317a906153c1565b60405180910390fd5b61318c81611cb5565b156131cc576040517f08c379a00000000000000000000000000000000000000000000000000000000081526004016131c39061542d565b60405180910390fd5b6131d860008383612a1b565b6001606860008473ffffffffffffffffffffffffffffffffffffffff1673ffffffffffffffffffffffffffffffffffffffff1681526020019081526020016000206000828254613228919061493b565b92505081905550816067600083815260200190815260200160002060006101000a81548173ffffffffffffffffffffffffffffffffffffffff021916908373ffffffffffffffffffffffffffffffffffffffff160217905550808273ffffffffffffffffffffffffffffffffffffffff16600073ffffffffffffffffffffffffffffffffffffffff167fddf252ad1be2c89b69c2b068fc378daa952ba7f163c4a11628f55a4df523b3ef60405160405180910390a46132e960008383612a20565b5050565b6000807f7fffffffffffffffffffffffffffffff5d576e7357a4501ddfe92f46681b20a08360001c11156133285760006003915091506133f1565b601b8560ff16141580156133405750601c8560ff1614155b156133525760006004915091506133f1565b600060018787878760405160008152602001604052604051613377949392919061545c565b6020604051602081039080840390855afa158015613399573d6000803e3d6000fd5b505050602060405103519050600073ffffffffffffffffffffffffffffffffffffffff168173ffffffffffffffffffffffffffffffffffffffff1614156133e8576000600192509250506133f1565b80600092509250505b94509492505050565b60008060007f7fffffffffffffffffffffffffffffffffffffffffffffffffffffffffffffff60001b841690506000601b60ff8660001c901c61343d919061493b565b905061344b878288856132ed565b935093505050935093915050565b82805461346590613fba565b90600052602060002090601f01602090048101928261348757600085556134ce565b82601f106134a057805160ff19168380011785556134ce565b828001600101855582156134ce579182015b828111156134cd5782518255916020019190600101906134b2565b5b5090506134db91906134df565b5090565b5b808211156134f85760008160009055506001016134e0565b5090565b6000604051905090565b600080fd5b600080fd5b60007fffffffff0000000000000000000000000000000000000000000000000000000082169050919050565b61354581613510565b811461355057600080fd5b50565b6000813590506135628161353c565b92915050565b60006020828403121561357e5761357d613506565b5b600061358c84828501613553565b91505092915050565b60008115159050919050565b6135aa81613595565b82525050565b60006020820190506135c560008301846135a1565b92915050565b600081519050919050565b600082825260208201905092915050565b60005b838110156136055780820151818401526020810190506135ea565b83811115613614576000848401525b50505050565b6000601f19601f8301169050919050565b6000613636826135cb565b61364081856135d6565b93506136508185602086016135e7565b6136598161361a565b840191505092915050565b6000602082019050818103600083015261367e818461362b565b905092915050565b6000819050919050565b61369981613686565b81146136a457600080fd5b50565b6000813590506136b681613690565b92915050565b6000602082840312156136d2576136d1613506565b5b60006136e0848285016136a7565b91505092915050565b600073ffffffffffffffffffffffffffffffffffffffff82169050919050565b6000613714826136e9565b9050919050565b61372481613709565b82525050565b600060208201905061373f600083018461371b565b92915050565b6000819050919050565b61375881613745565b811461376357600080fd5b50565b6000813590506137758161374f565b92915050565b60006020828403121561379157613790613506565b5b600061379f84828501613766565b91505092915050565b600061ffff82169050919050565b6137bf816137a8565b82525050565b6137ce81613686565b82525050565b6137dd81613745565b82525050565b6000610100820190506137f9600083018b61371b565b613806602083018a61371b565b8181036040830152613818818961362b565b905061382760608301886137b6565b61383460808301876137b6565b61384160a08301866137c5565b61384e60c08301856137d4565b61385b60e08301846137c5565b9998505050505050505050565b61387181613709565b811461387c57600080fd5b50565b60008135905061388e81613868565b92915050565b600080604083850312156138ab576138aa613506565b5b60006138b98582860161387f565b92505060206138ca858286016136a7565b9150509250929050565b6000806000606084860312156138ed576138ec613506565b5b60006138fb8682870161387f565b935050602061390c8682870161387f565b925050604061391d868287016136a7565b9150509250925092565b6000806040838503121561393e5761393d613506565b5b600061394c85828601613766565b925050602061395d8582860161387f565b9150509250929050565b600060208201905061397c60008301846137d4565b92915050565b60006020828403121561399857613997613506565b5b60006139a68482850161387f565b91505092915050565b60006020820190506139c460008301846137c5565b92915050565b600080fd5b600080fd5b7f4e487b7100000000000000000000000000000000000000000000000000000000600052604160045260246000fd5b613a0c8261361a565b810181811067ffffffffffffffff82111715613a2b57613a2a6139d4565b5b80604052505050565b6000613a3e6134fc565b9050613a4a8282613a03565b919050565b600067ffffffffffffffff821115613a6a57613a696139d4565b5b613a738261361a565b9050602081019050919050565b82818337600083830152505050565b6000613aa2613a9d84613a4f565b613a34565b905082815260208101848484011115613abe57613abd6139cf565b5b613ac9848285613a80565b509392505050565b600082601f830112613ae657613ae56139ca565b5b8135613af6848260208601613a8f565b91505092915050565b60008060408385031215613b1657613b15613506565b5b6000613b2485828601613766565b925050602083013567ffffffffffffffff811115613b4557613b4461350b565b5b613b5185828601613ad1565b9150509250929050565b613b64816137a8565b8114613b6f57600080fd5b50565b600081359050613b8181613b5b565b92915050565b60008060408385031215613b9e57613b9d613506565b5b6000613bac85828601613766565b9250506020613bbd85828601613b72565b9150509250929050565b600067ffffffffffffffff821115613be257613be16139d4565b5b613beb8261361a565b9050602081019050919050565b6000613c0b613c0684613bc7565b613a34565b905082815260208101848484011115613c2757613c266139cf565b5b613c32848285613a80565b509392505050565b600082601f830112613c4f57613c4e6139ca565b5b8135613c5f848260208601613bf8565b91505092915050565b600060208284031215613c7e57613c7d613506565b5b600082013567ffffffffffffffff811115613c9c57613c9b61350b565b5b613ca884828501613c3a565b91505092915050565b613cba81613595565b8114613cc557600080fd5b50565b600081359050613cd781613cb1565b92915050565b60008060408385031215613cf457613cf3613506565b5b6000613d028582860161387f565b9250506020613d1385828601613cc8565b9150509250929050565b60008060408385031215613d3457613d33613506565b5b6000613d4285828601613766565b9250506020613d53858286016136a7565b9150509250929050565b600080600060608486031215613d7657613d75613506565b5b6000613d848682870161387f565b9350506020613d9586828701613b72565b9250506040613da686828701613766565b9150509250925092565b60008060008060008060c08789031215613dcd57613dcc613506565b5b6000613ddb89828a0161387f565b9650506020613dec89828a0161387f565b955050604087013567ffffffffffffffff811115613e0d57613e0c61350b565b5b613e1989828a01613ad1565b9450506060613e2a89828a01613b72565b9350506080613e3b89828a016136a7565b92505060a0613e4c89828a01613766565b9150509295509295509295565b60008060008060808587031215613e7357613e72613506565b5b6000613e818782880161387f565b9450506020613e928782880161387f565b9350506040613ea3878288016136a7565b925050606085013567ffffffffffffffff811115613ec457613ec361350b565b5b613ed087828801613c3a565b91505092959194509250565b600080600060608486031215613ef557613ef4613506565b5b6000613f0386828701613766565b9350506020613f1486828701613b72565b925050604084013567ffffffffffffffff811115613f3557613f3461350b565b5b613f4186828701613c3a565b9150509250925092565b60008060408385031215613f6257613f61613506565b5b6000613f708582860161387f565b9250506020613f818582860161387f565b9150509250929050565b7f4e487b7100000000000000000000000000000000000000000000000000000000600052602260045260246000fd5b60006002820490506001821680613fd257607f821691505b60208210811415613fe657613fe5613f8b565b5b50919050565b7f4552433732313a20617070726f76656420717565727920666f72206e6f6e657860008201527f697374656e7420746f6b656e0000000000000000000000000000000000000000602082015250565b6000614048602c836135d6565b915061405382613fec565b604082019050919050565b600060208201905081810360008301526140778161403b565b9050919050565b7f4552433732313a20617070726f76616c20746f2063757272656e74206f776e6560008201527f7200000000000000000000000000000000000000000000000000000000000000602082015250565b60006140da6021836135d6565b91506140e58261407e565b604082019050919050565b60006020820190508181036000830152614109816140cd565b9050919050565b7f4552433732313a20617070726f76652063616c6c6572206973206e6f74206f7760008201527f6e6572206e6f7220617070726f76656420666f7220616c6c0000000000000000602082015250565b600061416c6038836135d6565b915061417782614110565b604082019050919050565b6000602082019050818103600083015261419b8161415f565b9050919050565b7f4552433732313a207472616e736665722063616c6c6572206973206e6f74206f60008201527f776e6572206e6f7220617070726f766564000000000000000000000000000000602082015250565b60006141fe6031836135d6565b9150614209826141a2565b604082019050919050565b6000602082019050818103600083015261422d816141f1565b9050919050565b7f4f776e61626c653a2063616c6c6572206973206e6f7420746865206f776e6572600082015250565b600061426a6020836135d6565b915061427582614234565b602082019050919050565b600060208201905081810360008301526142998161425d565b9050919050565b7f4e487b7100000000000000000000000000000000000000000000000000000000600052601260045260246000fd5b7f4e487b7100000000000000000000000000000000000000000000000000000000600052601160045260246000fd5b600061430982613686565b915061431483613686565b925082614324576143236142a0565b5b828204905092915050565b7f4552433732313a206f776e657220717565727920666f72206e6f6e657869737460008201527f656e7420746f6b656e0000000000000000000000000000000000000000000000602082015250565b600061438b6029836135d6565b91506143968261432f565b604082019050919050565b600060208201905081810360008301526143ba8161437e565b9050919050565b7f4552433732313a2062616c616e636520717565727920666f7220746865207a6560008201527f726f206164647265737300000000000000000000000000000000000000000000602082015250565b600061441d602a836135d6565b9150614428826143c1565b604082019050919050565b6000602082019050818103600083015261444c81614410565b9050919050565b6000819050919050565b600060ff82169050919050565b6000819050919050565b600061448f61448a61448584614453565b61446a565b61445d565b9050919050565b61449f81614474565b82525050565b60006020820190506144ba6000830184614496565b92915050565b60006060820190506144d560008301866137d4565b6144e260208301856137d4565b6144ef60408301846137b6565b949350505050565b7f7369676e6174757265206c656e67746820696e76616c69640000000000000000600082015250565b600061452d6018836135d6565b9150614538826144f7565b602082019050919050565b6000602082019050818103600083015261455c81614520565b9050919050565b6000606082019050614578600083018661371b565b61458560208301856137b6565b61459260408301846137d4565b949350505050565b7f4172742070726f6a65637420696420616c72656164792072656769737465726560008201527f6400000000000000000000000000000000000000000000000000000000000000602082015250565b60006145f66021836135d6565b91506146018261459a565b604082019050919050565b60006020820190508181036000830152614625816145e9565b9050919050565b6000614637826137a8565b915061ffff82141561464c5761464b6142cf565b5b600182019050919050565b600060c08201905061466c600083018961371b565b614679602083018861371b565b61468660408301876137b6565b61469360608301866137c5565b81810360808301526146a5818561362b565b90506146b460a08301846137d4565b979650505050505050565b7f4f776e61626c653a206e6577206f776e657220697320746865207a65726f206160008201527f6464726573730000000000000000000000000000000000000000000000000000602082015250565b600061471b6026836135d6565b9150614726826146bf565b604082019050919050565b6000602082019050818103600083015261474a8161470e565b9050919050565b7f4552433732313a206f70657261746f7220717565727920666f72206e6f6e657860008201527f697374656e7420746f6b656e0000000000000000000000000000000000000000602082015250565b60006147ad602c836135d6565b91506147b882614751565b604082019050919050565b600060208201905081810360008301526147dc816147a0565b9050919050565b7f4552433732313a207472616e736665722066726f6d20696e636f72726563742060008201527f6f776e6572000000000000000000000000000000000000000000000000000000602082015250565b600061483f6025836135d6565b915061484a826147e3565b604082019050919050565b6000602082019050818103600083015261486e81614832565b9050919050565b7f4552433732313a207472616e7366657220746f20746865207a65726f2061646460008201527f7265737300000000000000000000000000000000000000000000000000000000602082015250565b60006148d16024836135d6565b91506148dc82614875565b604082019050919050565b60006020820190508181036000830152614900816148c4565b9050919050565b600061491282613686565b915061491d83613686565b9250828210156149305761492f6142cf565b5b828203905092915050565b600061494682613686565b915061495183613686565b9250827fffffffffffffffffffffffffffffffffffffffffffffffffffffffffffffffff03821115614986576149856142cf565b5b828201905092915050565b7f496e697469616c697a61626c653a20636f6e747261637420697320616c72656160008201527f647920696e697469616c697a6564000000000000000000000000000000000000602082015250565b60006149ed602e836135d6565b91506149f882614991565b604082019050919050565b60006020820190508181036000830152614a1c816149e0565b9050919050565b7f496e697469616c697a61626c653a20636f6e7472616374206973206e6f74206960008201527f6e697469616c697a696e67000000000000000000000000000000000000000000602082015250565b6000614a7f602b836135d6565b9150614a8a82614a23565b604082019050919050565b60006020820190508181036000830152614aae81614a72565b9050919050565b7f736c6963655f6f766572666c6f77000000000000000000000000000000000000600082015250565b6000614aeb600e836135d6565b9150614af682614ab5565b602082019050919050565b60006020820190508181036000830152614b1a81614ade565b9050919050565b7f736c6963655f6f75744f66426f756e6473000000000000000000000000000000600082015250565b6000614b576011836135d6565b9150614b6282614b21565b602082019050919050565b60006020820190508181036000830152614b8681614b4a565b9050919050565b6000614b9882613686565b9150614ba383613686565b9250817fffffffffffffffffffffffffffffffffffffffffffffffffffffffffffffffff0483118215151615614bdc57614bdb6142cf565b5b828202905092915050565b6000614bf2826137a8565b9150614bfd836137a8565b92508261ffff03821115614c1457614c136142cf565b5b828201905092915050565b7f546f74616c20737570706c7920686173206265656e206d696e74656420666f7260008201527f20746869732070726f6a6563742e000000000000000000000000000000000000602082015250565b6000614c7b602e836135d6565b9150614c8682614c1f565b604082019050919050565b60006020820190508181036000830152614caa81614c6e565b9050919050565b7f436f646520616c72656164792075736564000000000000000000000000000000600082015250565b6000614ce76011836135d6565b9150614cf282614cb1565b602082019050919050565b60006020820190508181036000830152614d1681614cda565b9050919050565b7f5369676e617475726520696e76616c6964000000000000000000000000000000600082015250565b6000614d536011836135d6565b9150614d5e82614d1d565b602082019050919050565b60006020820190508181036000830152614d8281614d46565b9050919050565b7f496e76616c6964207061796d656e7420666f72206d696e740000000000000000600082015250565b6000614dbf6018836135d6565b9150614dca82614d89565b602082019050919050565b60006020820190508181036000830152614dee81614db2565b9050919050565b6000606082019050614e0a60008301866137c5565b614e1760208301856137b6565b614e2460408301846137d4565b949350505050565b7f4552433732313a20617070726f766520746f2063616c6c657200000000000000600082015250565b6000614e626019836135d6565b9150614e6d82614e2c565b602082019050919050565b60006020820190508181036000830152614e9181614e55565b9050919050565b7f4552433732313a207472616e7366657220746f206e6f6e20455243373231526560008201527f63656976657220696d706c656d656e7465720000000000000000000000000000602082015250565b6000614ef46032836135d6565b9150614eff82614e98565b604082019050919050565b60006020820190508181036000830152614f2381614ee7565b9050919050565b600081905092915050565b7f1901000000000000000000000000000000000000000000000000000000000000600082015250565b6000614f6b600283614f2a565b9150614f7682614f35565b600282019050919050565b6000819050919050565b614f9c614f9782613745565b614f81565b82525050565b6000614fad82614f5e565b9150614fb98285614f8b565b602082019150614fc98284614f8b565b6020820191508190509392505050565b600081519050919050565b600082825260208201905092915050565b600061500082614fd9565b61500a8185614fe4565b935061501a8185602086016135e7565b6150238161361a565b840191505092915050565b6000608082019050615043600083018761371b565b615050602083018661371b565b61505d60408301856137c5565b818103606083015261506f8184614ff5565b905095945050505050565b6000815190506150898161353c565b92915050565b6000602082840312156150a5576150a4613506565b5b60006150b38482850161507a565b91505092915050565b6000819050919050565b60006150e16150dc6150d7846150bc565b61446a565b613686565b9050919050565b6150f1816150c6565b82525050565b600060a08201905061510c60008301886150e8565b61511960208301876137d4565b61512660408301866137d4565b61513360608301856137c5565b615140608083018461371b565b9695505050505050565b7f4e487b7100000000000000000000000000000000000000000000000000000000600052602160045260246000fd5b7f45434453413a20696e76616c6964207369676e61747572650000000000000000600082015250565b60006151af6018836135d6565b91506151ba82615179565b602082019050919050565b600060208201905081810360008301526151de816151a2565b9050919050565b7f45434453413a20696e76616c6964207369676e6174757265206c656e67746800600082015250565b600061521b601f836135d6565b9150615226826151e5565b602082019050919050565b6000602082019050818103600083015261524a8161520e565b9050919050565b7f45434453413a20696e76616c6964207369676e6174757265202773272076616c60008201527f7565000000000000000000000000000000000000000000000000000000000000602082015250565b60006152ad6022836135d6565b91506152b882615251565b604082019050919050565b600060208201905081810360008301526152dc816152a0565b9050919050565b7f45434453413a20696e76616c6964207369676e6174757265202776272076616c60008201527f7565000000000000000000000000000000000000000000000000000000000000602082015250565b600061533f6022836135d6565b915061534a826152e3565b604082019050919050565b6000602082019050818103600083015261536e81615332565b9050919050565b7f4552433732313a206d696e7420746f20746865207a65726f2061646472657373600082015250565b60006153ab6020836135d6565b91506153b682615375565b602082019050919050565b600060208201905081810360008301526153da8161539e565b9050919050565b7f4552433732313a20746f6b656e20616c7265616479206d696e74656400000000600082015250565b6000615417601c836135d6565b9150615422826153e1565b602082019050919050565b600060208201905081810360008301526154468161540a565b9050919050565b6154568161445d565b82525050565b600060808201905061547160008301876137d4565b61547e602083018661544d565b61548b60408301856137d4565b61549860608301846137d4565b9594505050505056fea26469706673582212202dbdc8a4f13ec8694bbc05854950ecb39110c364135fc87607ed652fd79f2b4e64736f6c63430008090033",
  "devdoc": {
    "kind": "dev",
    "methods": {
      "approve(address,uint256)": {
        "details": "See {IERC721-approve}."
      },
      "balanceOf(address)": {
        "details": "See {IERC721-balanceOf}."
      },
      "getApproved(uint256)": {
        "details": "See {IERC721-getApproved}."
      },
      "isApprovedForAll(address,address)": {
        "details": "See {IERC721-isApprovedForAll}."
      },
      "name()": {
        "details": "See {IERC721Metadata-name}."
      },
      "owner()": {
        "details": "Returns the address of the current owner."
      },
      "ownerOf(uint256)": {
        "details": "See {IERC721-ownerOf}."
      },
      "renounceOwnership()": {
        "details": "Leaves the contract without owner. It will not be possible to call `onlyOwner` functions anymore. Can only be called by the current owner. NOTE: Renouncing ownership will leave the contract without an owner, thereby removing any functionality that is only available to the owner."
      },
      "safeTransferFrom(address,address,uint256)": {
        "details": "See {IERC721-safeTransferFrom}."
      },
      "safeTransferFrom(address,address,uint256,bytes)": {
        "details": "See {IERC721-safeTransferFrom}."
      },
      "setApprovalForAll(address,bool)": {
        "details": "See {IERC721-setApprovalForAll}."
      },
      "supportsInterface(bytes4)": {
        "details": "See {IERC165-supportsInterface}."
      },
      "symbol()": {
        "details": "See {IERC721Metadata-symbol}."
      },
      "tokenURI(uint256)": {
        "details": "Returns an URI for a given token ID Throws if the token ID does not exist. May return an empty string.",
        "params": {
          "tokenId": "uint256 ID of the token to query"
        }
      },
      "transferFrom(address,address,uint256)": {
        "details": "See {IERC721-transferFrom}."
      },
      "transferOwnership(address)": {
        "details": "Transfers ownership of the contract to a new account (`newOwner`). Can only be called by the current owner."
      }
    },
    "version": 1
  },
  "userdoc": {
    "kind": "user",
    "methods": {},
    "version": 1
  },
  "storageLayout": {
    "storage": [
      {
        "astId": 130,
        "contract": "contracts/DetroitLocalArt.sol:DetroitLocalArt",
        "label": "_initialized",
        "offset": 0,
        "slot": "0",
        "type": "t_uint8"
      },
      {
        "astId": 133,
        "contract": "contracts/DetroitLocalArt.sol:DetroitLocalArt",
        "label": "_initializing",
        "offset": 1,
        "slot": "0",
        "type": "t_bool"
      },
      {
        "astId": 1601,
        "contract": "contracts/DetroitLocalArt.sol:DetroitLocalArt",
        "label": "__gap",
        "offset": 0,
        "slot": "1",
        "type": "t_array(t_uint256)50_storage"
      },
      {
        "astId": 2255,
        "contract": "contracts/DetroitLocalArt.sol:DetroitLocalArt",
        "label": "__gap",
        "offset": 0,
        "slot": "51",
        "type": "t_array(t_uint256)50_storage"
      },
      {
        "astId": 294,
        "contract": "contracts/DetroitLocalArt.sol:DetroitLocalArt",
        "label": "_name",
        "offset": 0,
        "slot": "101",
        "type": "t_string_storage"
      },
      {
        "astId": 296,
        "contract": "contracts/DetroitLocalArt.sol:DetroitLocalArt",
        "label": "_symbol",
        "offset": 0,
        "slot": "102",
        "type": "t_string_storage"
      },
      {
        "astId": 300,
        "contract": "contracts/DetroitLocalArt.sol:DetroitLocalArt",
        "label": "_owners",
        "offset": 0,
        "slot": "103",
        "type": "t_mapping(t_uint256,t_address)"
      },
      {
        "astId": 304,
        "contract": "contracts/DetroitLocalArt.sol:DetroitLocalArt",
        "label": "_balances",
        "offset": 0,
        "slot": "104",
        "type": "t_mapping(t_address,t_uint256)"
      },
      {
        "astId": 308,
        "contract": "contracts/DetroitLocalArt.sol:DetroitLocalArt",
        "label": "_tokenApprovals",
        "offset": 0,
        "slot": "105",
        "type": "t_mapping(t_uint256,t_address)"
      },
      {
        "astId": 314,
        "contract": "contracts/DetroitLocalArt.sol:DetroitLocalArt",
        "label": "_operatorApprovals",
        "offset": 0,
        "slot": "106",
        "type": "t_mapping(t_address,t_mapping(t_address,t_bool))"
      },
      {
        "astId": 1155,
        "contract": "contracts/DetroitLocalArt.sol:DetroitLocalArt",
        "label": "__gap",
        "offset": 0,
        "slot": "107",
        "type": "t_array(t_uint256)44_storage"
      },
      {
        "astId": 10,
        "contract": "contracts/DetroitLocalArt.sol:DetroitLocalArt",
        "label": "_owner",
        "offset": 0,
        "slot": "151",
        "type": "t_address"
      },
      {
        "astId": 122,
        "contract": "contracts/DetroitLocalArt.sol:DetroitLocalArt",
        "label": "__gap",
        "offset": 0,
        "slot": "152",
        "type": "t_array(t_uint256)49_storage"
      },
      {
        "astId": 2760,
        "contract": "contracts/DetroitLocalArt.sol:DetroitLocalArt",
        "label": "artProjects",
        "offset": 0,
        "slot": "201",
        "type": "t_mapping(t_bytes32,t_struct(ArtProject)2709_storage)"
      },
      {
        "astId": 2764,
        "contract": "contracts/DetroitLocalArt.sol:DetroitLocalArt",
        "label": "usedSignatureHashes",
        "offset": 0,
        "slot": "202",
        "type": "t_mapping(t_bytes32,t_bool)"
      },
      {
        "astId": 2768,
        "contract": "contracts/DetroitLocalArt.sol:DetroitLocalArt",
        "label": "projectIdLookup",
        "offset": 0,
        "slot": "203",
        "type": "t_mapping(t_uint256,t_bytes32)"
      },
      {
        "astId": 2770,
        "contract": "contracts/DetroitLocalArt.sol:DetroitLocalArt",
        "label": "projectCount",
        "offset": 0,
        "slot": "204",
        "type": "t_uint16"
      }
    ],
    "types": {
      "t_address": {
        "encoding": "inplace",
        "label": "address",
        "numberOfBytes": "20"
      },
      "t_array(t_uint256)44_storage": {
        "base": "t_uint256",
        "encoding": "inplace",
        "label": "uint256[44]",
        "numberOfBytes": "1408"
      },
      "t_array(t_uint256)49_storage": {
        "base": "t_uint256",
        "encoding": "inplace",
        "label": "uint256[49]",
        "numberOfBytes": "1568"
      },
      "t_array(t_uint256)50_storage": {
        "base": "t_uint256",
        "encoding": "inplace",
        "label": "uint256[50]",
        "numberOfBytes": "1600"
      },
      "t_bool": {
        "encoding": "inplace",
        "label": "bool",
        "numberOfBytes": "1"
      },
      "t_bytes32": {
        "encoding": "inplace",
        "label": "bytes32",
        "numberOfBytes": "32"
      },
      "t_mapping(t_address,t_bool)": {
        "encoding": "mapping",
        "key": "t_address",
        "label": "mapping(address => bool)",
        "numberOfBytes": "32",
        "value": "t_bool"
      },
      "t_mapping(t_address,t_mapping(t_address,t_bool))": {
        "encoding": "mapping",
        "key": "t_address",
        "label": "mapping(address => mapping(address => bool))",
        "numberOfBytes": "32",
        "value": "t_mapping(t_address,t_bool)"
      },
      "t_mapping(t_address,t_uint256)": {
        "encoding": "mapping",
        "key": "t_address",
        "label": "mapping(address => uint256)",
        "numberOfBytes": "32",
        "value": "t_uint256"
      },
      "t_mapping(t_bytes32,t_bool)": {
        "encoding": "mapping",
        "key": "t_bytes32",
        "label": "mapping(bytes32 => bool)",
        "numberOfBytes": "32",
        "value": "t_bool"
      },
      "t_mapping(t_bytes32,t_struct(ArtProject)2709_storage)": {
        "encoding": "mapping",
        "key": "t_bytes32",
        "label": "mapping(bytes32 => struct DetroitLocalArt.ArtProject)",
        "numberOfBytes": "32",
        "value": "t_struct(ArtProject)2709_storage"
      },
      "t_mapping(t_uint256,t_address)": {
        "encoding": "mapping",
        "key": "t_uint256",
        "label": "mapping(uint256 => address)",
        "numberOfBytes": "32",
        "value": "t_address"
      },
      "t_mapping(t_uint256,t_bytes32)": {
        "encoding": "mapping",
        "key": "t_uint256",
        "label": "mapping(uint256 => bytes32)",
        "numberOfBytes": "32",
        "value": "t_bytes32"
      },
      "t_string_storage": {
        "encoding": "bytes",
        "label": "string",
        "numberOfBytes": "32"
      },
      "t_struct(ArtProject)2709_storage": {
        "encoding": "inplace",
        "label": "struct DetroitLocalArt.ArtProject",
        "members": [
          {
            "astId": 2694,
            "contract": "contracts/DetroitLocalArt.sol:DetroitLocalArt",
            "label": "signerAddress",
            "offset": 0,
            "slot": "0",
            "type": "t_address"
          },
          {
            "astId": 2696,
            "contract": "contracts/DetroitLocalArt.sol:DetroitLocalArt",
            "label": "payoutAddress",
            "offset": 0,
            "slot": "1",
            "type": "t_address"
          },
          {
            "astId": 2698,
            "contract": "contracts/DetroitLocalArt.sol:DetroitLocalArt",
            "label": "metadataURI",
            "offset": 0,
            "slot": "2",
            "type": "t_string_storage"
          },
          {
            "astId": 2700,
            "contract": "contracts/DetroitLocalArt.sol:DetroitLocalArt",
            "label": "totalSupply",
            "offset": 0,
            "slot": "3",
            "type": "t_uint16"
          },
          {
            "astId": 2702,
            "contract": "contracts/DetroitLocalArt.sol:DetroitLocalArt",
            "label": "mintedCount",
            "offset": 2,
            "slot": "3",
            "type": "t_uint16"
          },
          {
            "astId": 2704,
            "contract": "contracts/DetroitLocalArt.sol:DetroitLocalArt",
            "label": "mintPrice",
            "offset": 0,
            "slot": "4",
            "type": "t_uint256"
          },
          {
            "astId": 2706,
            "contract": "contracts/DetroitLocalArt.sol:DetroitLocalArt",
            "label": "projectSeed",
            "offset": 0,
            "slot": "5",
            "type": "t_bytes32"
          },
          {
            "astId": 2708,
            "contract": "contracts/DetroitLocalArt.sol:DetroitLocalArt",
            "label": "projectIndex",
            "offset": 0,
            "slot": "6",
            "type": "t_uint256"
          }
        ],
        "numberOfBytes": "224"
      },
      "t_uint16": {
        "encoding": "inplace",
        "label": "uint16",
        "numberOfBytes": "2"
      },
      "t_uint256": {
        "encoding": "inplace",
        "label": "uint256",
        "numberOfBytes": "32"
      },
      "t_uint8": {
        "encoding": "inplace",
        "label": "uint8",
        "numberOfBytes": "1"
      }
    }
  }
}