{
  "address": "0xD3A9265F1306e87c5761A8BDd15Bc7eAF70ef8b8",
  "abi": [
    {
      "inputs": [],
      "stateMutability": "nonpayable",
      "type": "constructor"
    },
    {
      "anonymous": false,
      "inputs": [
        {
          "indexed": true,
          "internalType": "address",
          "name": "artist",
          "type": "address"
        },
        {
          "indexed": false,
          "internalType": "bool",
          "name": "enabled",
          "type": "bool"
        }
      ],
      "name": "AllowlistedArtist",
      "type": "event"
    },
    {
      "anonymous": false,
      "inputs": [
        {
          "indexed": true,
          "internalType": "address",
          "name": "owner",
          "type": "address"
        },
        {
          "indexed": true,
          "internalType": "address",
          "name": "approved",
          "type": "address"
        },
        {
          "indexed": true,
          "internalType": "uint256",
          "name": "tokenId",
          "type": "uint256"
        }
      ],
      "name": "Approval",
      "type": "event"
    },
    {
      "anonymous": false,
      "inputs": [
        {
          "indexed": true,
          "internalType": "address",
          "name": "owner",
          "type": "address"
        },
        {
          "indexed": true,
          "internalType": "address",
          "name": "operator",
          "type": "address"
        },
        {
          "indexed": false,
          "internalType": "bool",
          "name": "approved",
          "type": "bool"
        }
      ],
      "name": "ApprovalForAll",
      "type": "event"
    },
    {
      "anonymous": false,
      "inputs": [
        {
          "indexed": true,
          "internalType": "uint16",
          "name": "projectId",
          "type": "uint16"
        },
        {
          "indexed": false,
          "internalType": "address",
          "name": "artistAddress",
          "type": "address"
        },
        {
          "indexed": false,
          "internalType": "uint16",
          "name": "totalSupply",
          "type": "uint16"
        }
      ],
      "name": "DefinedProject",
      "type": "event"
    },
    {
      "anonymous": false,
      "inputs": [
        {
          "indexed": false,
          "internalType": "uint8",
          "name": "version",
          "type": "uint8"
        }
      ],
      "name": "Initialized",
      "type": "event"
    },
    {
      "anonymous": false,
      "inputs": [
        {
          "indexed": true,
          "internalType": "address",
          "name": "previousOwner",
          "type": "address"
        },
        {
          "indexed": true,
          "internalType": "address",
          "name": "newOwner",
          "type": "address"
        }
      ],
      "name": "OwnershipTransferred",
      "type": "event"
    },
    {
      "anonymous": false,
      "inputs": [
        {
          "indexed": true,
          "internalType": "address",
          "name": "from",
          "type": "address"
        },
        {
          "indexed": true,
          "internalType": "address",
          "name": "to",
          "type": "address"
        },
        {
          "indexed": true,
          "internalType": "uint256",
          "name": "tokenId",
          "type": "uint256"
        }
      ],
      "name": "Transfer",
      "type": "event"
    },
    {
      "inputs": [],
      "name": "DOMAIN_SEPARATOR",
      "outputs": [
        {
          "internalType": "bytes32",
          "name": "",
          "type": "bytes32"
        }
      ],
      "stateMutability": "view",
      "type": "function"
    },
    {
      "inputs": [],
      "name": "IMPLEMENTATION_ADDRESS",
      "outputs": [
        {
          "internalType": "address",
          "name": "",
          "type": "address"
        }
      ],
      "stateMutability": "view",
      "type": "function"
    },
    {
      "inputs": [
        {
          "internalType": "address",
          "name": "",
          "type": "address"
        }
      ],
      "name": "allowlistedArtists",
      "outputs": [
        {
          "internalType": "bool",
          "name": "",
          "type": "bool"
        }
      ],
      "stateMutability": "view",
      "type": "function"
    },
    {
      "inputs": [
        {
          "internalType": "address",
          "name": "to",
          "type": "address"
        },
        {
          "internalType": "uint256",
          "name": "tokenId",
          "type": "uint256"
        }
      ],
      "name": "approve",
      "outputs": [],
      "stateMutability": "nonpayable",
      "type": "function"
    },
    {
      "inputs": [
        {
          "internalType": "uint16",
          "name": "",
          "type": "uint16"
        }
      ],
      "name": "artProjects",
      "outputs": [
        {
          "internalType": "address",
          "name": "artistAddress",
          "type": "address"
        },
        {
          "internalType": "string",
          "name": "metadataURI",
          "type": "string"
        },
        {
          "internalType": "uint16",
          "name": "totalSupply",
          "type": "uint16"
        },
        {
          "internalType": "uint16",
          "name": "mintedCount",
          "type": "uint16"
        }
      ],
      "stateMutability": "view",
      "type": "function"
    },
    {
      "inputs": [
        {
          "internalType": "address",
          "name": "owner",
          "type": "address"
        }
      ],
      "name": "balanceOf",
      "outputs": [
        {
          "internalType": "uint256",
          "name": "",
          "type": "uint256"
        }
      ],
      "stateMutability": "view",
      "type": "function"
    },
    {
      "inputs": [
        {
          "internalType": "address",
          "name": "_artistAddress",
          "type": "address"
        },
        {
          "internalType": "string",
          "name": "_metadataURI",
          "type": "string"
        },
        {
          "internalType": "uint16",
          "name": "_totalSupply",
          "type": "uint16"
        }
      ],
      "name": "defineProject",
      "outputs": [],
      "stateMutability": "nonpayable",
      "type": "function"
    },
    {
      "inputs": [
        {
          "internalType": "uint256",
          "name": "tokenId",
          "type": "uint256"
        }
      ],
      "name": "getApproved",
      "outputs": [
        {
          "internalType": "address",
          "name": "",
          "type": "address"
        }
      ],
      "stateMutability": "view",
      "type": "function"
    },
    {
      "inputs": [],
      "name": "getImplementationAddress",
      "outputs": [
        {
          "internalType": "address",
          "name": "",
          "type": "address"
        }
      ],
      "stateMutability": "view",
      "type": "function"
    },
    {
      "inputs": [
        {
          "internalType": "uint256",
          "name": "tokenId",
          "type": "uint256"
        }
      ],
      "name": "getProjectIdFromTokenId",
      "outputs": [
        {
          "internalType": "uint16",
          "name": "",
          "type": "uint16"
        }
      ],
      "stateMutability": "view",
      "type": "function"
    },
    {
      "inputs": [
        {
          "internalType": "uint16",
          "name": "projectId",
          "type": "uint16"
        },
        {
          "internalType": "uint16",
          "name": "nonce",
          "type": "uint16"
        }
      ],
      "name": "getTypeHash",
      "outputs": [
        {
          "internalType": "bytes32",
          "name": "",
          "type": "bytes32"
        }
      ],
      "stateMutability": "view",
      "type": "function"
    },
    {
      "inputs": [],
      "name": "initialize",
      "outputs": [],
      "stateMutability": "nonpayable",
      "type": "function"
    },
    {
      "inputs": [
        {
          "internalType": "address",
          "name": "owner",
          "type": "address"
        },
        {
          "internalType": "address",
          "name": "operator",
          "type": "address"
        }
      ],
      "name": "isApprovedForAll",
      "outputs": [
        {
          "internalType": "bool",
          "name": "",
          "type": "bool"
        }
      ],
      "stateMutability": "view",
      "type": "function"
    },
    {
      "inputs": [
        {
          "internalType": "uint16",
          "name": "_projectId",
          "type": "uint16"
        },
        {
          "internalType": "uint16",
          "name": "_nonce",
          "type": "uint16"
        },
        {
          "internalType": "bytes",
          "name": "_signature",
          "type": "bytes"
        }
      ],
      "name": "mintToken",
      "outputs": [],
      "stateMutability": "nonpayable",
      "type": "function"
    },
    {
      "inputs": [
        {
          "internalType": "bytes",
          "name": "_secretMessage",
          "type": "bytes"
        }
      ],
      "name": "mintTokenFromSecretMessage",
      "outputs": [],
      "stateMutability": "nonpayable",
      "type": "function"
    },
    {
      "inputs": [
        {
          "internalType": "address",
          "name": "_to",
          "type": "address"
        },
        {
          "internalType": "uint16",
          "name": "_projectId",
          "type": "uint16"
        },
        {
          "internalType": "uint16",
          "name": "_nonce",
          "type": "uint16"
        },
        {
          "internalType": "bytes",
          "name": "_signature",
          "type": "bytes"
        }
      ],
      "name": "mintTokenTo",
      "outputs": [],
      "stateMutability": "nonpayable",
      "type": "function"
    },
    {
      "inputs": [
        {
          "internalType": "uint16",
          "name": "projectId",
          "type": "uint16"
        },
        {
          "internalType": "string",
          "name": "_metadataURI",
          "type": "string"
        }
      ],
      "name": "modifyProjectMetadata",
      "outputs": [],
      "stateMutability": "nonpayable",
      "type": "function"
    },
    {
      "inputs": [],
      "name": "name",
      "outputs": [
        {
          "internalType": "string",
          "name": "",
          "type": "string"
        }
      ],
      "stateMutability": "view",
      "type": "function"
    },
    {
      "inputs": [],
      "name": "owner",
      "outputs": [
        {
          "internalType": "address",
          "name": "",
          "type": "address"
        }
      ],
      "stateMutability": "view",
      "type": "function"
    },
    {
      "inputs": [
        {
          "internalType": "uint256",
          "name": "tokenId",
          "type": "uint256"
        }
      ],
      "name": "ownerOf",
      "outputs": [
        {
          "internalType": "address",
          "name": "",
          "type": "address"
        }
      ],
      "stateMutability": "view",
      "type": "function"
    },
    {
      "inputs": [],
      "name": "renounceOwnership",
      "outputs": [],
      "stateMutability": "nonpayable",
      "type": "function"
    },
    {
      "inputs": [
        {
          "internalType": "address",
          "name": "from",
          "type": "address"
        },
        {
          "internalType": "address",
          "name": "to",
          "type": "address"
        },
        {
          "internalType": "uint256",
          "name": "tokenId",
          "type": "uint256"
        }
      ],
      "name": "safeTransferFrom",
      "outputs": [],
      "stateMutability": "nonpayable",
      "type": "function"
    },
    {
      "inputs": [
        {
          "internalType": "address",
          "name": "from",
          "type": "address"
        },
        {
          "internalType": "address",
          "name": "to",
          "type": "address"
        },
        {
          "internalType": "uint256",
          "name": "tokenId",
          "type": "uint256"
        },
        {
          "internalType": "bytes",
          "name": "_data",
          "type": "bytes"
        }
      ],
      "name": "safeTransferFrom",
      "outputs": [],
      "stateMutability": "nonpayable",
      "type": "function"
    },
    {
      "inputs": [
        {
          "internalType": "address",
          "name": "operator",
          "type": "address"
        },
        {
          "internalType": "bool",
          "name": "approved",
          "type": "bool"
        }
      ],
      "name": "setApprovalForAll",
      "outputs": [],
      "stateMutability": "nonpayable",
      "type": "function"
    },
    {
      "inputs": [
        {
          "internalType": "address",
          "name": "artistAddress",
          "type": "address"
        },
        {
          "internalType": "bool",
          "name": "enabled",
          "type": "bool"
        }
      ],
      "name": "setArtistAllowlist",
      "outputs": [],
      "stateMutability": "nonpayable",
      "type": "function"
    },
    {
      "inputs": [
        {
          "internalType": "bytes",
          "name": "_signature",
          "type": "bytes"
        }
      ],
      "name": "signatureHasBeenUsed",
      "outputs": [
        {
          "internalType": "bool",
          "name": "",
          "type": "bool"
        }
      ],
      "stateMutability": "view",
      "type": "function"
    },
    {
      "inputs": [
        {
          "internalType": "bytes4",
          "name": "interfaceId",
          "type": "bytes4"
        }
      ],
      "name": "supportsInterface",
      "outputs": [
        {
          "internalType": "bool",
          "name": "",
          "type": "bool"
        }
      ],
      "stateMutability": "view",
      "type": "function"
    },
    {
      "inputs": [],
      "name": "symbol",
      "outputs": [
        {
          "internalType": "string",
          "name": "",
          "type": "string"
        }
      ],
      "stateMutability": "view",
      "type": "function"
    },
    {
      "inputs": [
        {
          "internalType": "uint256",
          "name": "tokenId",
          "type": "uint256"
        }
      ],
      "name": "tokenURI",
      "outputs": [
        {
          "internalType": "string",
          "name": "",
          "type": "string"
        }
      ],
      "stateMutability": "view",
      "type": "function"
    },
    {
      "inputs": [
        {
          "internalType": "address",
          "name": "from",
          "type": "address"
        },
        {
          "internalType": "address",
          "name": "to",
          "type": "address"
        },
        {
          "internalType": "uint256",
          "name": "tokenId",
          "type": "uint256"
        }
      ],
      "name": "transferFrom",
      "outputs": [],
      "stateMutability": "nonpayable",
      "type": "function"
    },
    {
      "inputs": [
        {
          "internalType": "address",
          "name": "newOwner",
          "type": "address"
        }
      ],
      "name": "transferOwnership",
      "outputs": [],
      "stateMutability": "nonpayable",
      "type": "function"
    },
    {
      "inputs": [
        {
          "internalType": "bytes32",
          "name": "",
          "type": "bytes32"
        }
      ],
      "name": "usedSignatureHashes",
      "outputs": [
        {
          "internalType": "bool",
          "name": "",
          "type": "bool"
        }
      ],
      "stateMutability": "view",
      "type": "function"
    }
  ],
  "transactionHash": "0xa5ad70845bb95be43826dd92b5f085b550842802ee21953d0d25761a45275849",
  "args": [],
  "solcInputHash": "33f3d10845ae78ae620fa74e255c9cd8",
  "bytecode": "0x60e060405261271060805234801561001657600080fd5b503060c0818152604080518082018252600e81526d155b99195c99dc9bdd5b99105c9d60921b60208083019182528351808501855260038152620312e360ec1b908201529151902082517f8b73c3c69bb8fe3d512ecc4cf759cc79239f7b179b0ffacaa9a75d522b39400f81840152808401919091527fe6bbd6277e1bf288eed5e8d1780f9a50b239e86b153736bceebccf4ea79d90b3606082015246608082015260a080820195909552825180820390950185529092019052815191012060a05260805160a05160c05161286561011c6000396000818161029501526103ec0152600081816102d101526118d00152600081816109400152610fc701526128656000f3fe608060405234801561001057600080fd5b50600436106101f05760003560e01c80638d54a10c1161010f578063ad186a44116100a2578063e96a70da11610071578063e96a70da146104ab578063e985e9c5146104be578063f2fde38b146104fa578063f6e7516f1461050d57600080fd5b8063ad186a441461045f578063b88d4fde14610472578063c87b56dd14610485578063d46098f41461049857600080fd5b80639e2990fc116100de5780639e2990fc146103e75780639f2523a11461040e578063a22cb46514610421578063a5135a741461043457600080fd5b80638d54a10c146103985780638da5cb5b146103bb57806395d89b41146103cc5780639a1552df146103d457600080fd5b806342842e0e116101875780636e4bb1b3116101565780636e4bb1b31461036257806370a0823114610375578063715018a6146103885780638129fc1c1461039057600080fd5b806342842e0e146102f357806344616a79146103065780635d89170d146103295780636352211e1461034f57600080fd5b8063095ea7b3116101c3578063095ea7b31461027e5780630cbcae701461029357806323b872dd146102b95780633644e515146102cc57600080fd5b8063011e84ca146101f557806301ffc9a71461021b57806306fdde031461023e578063081812fc14610253575b600080fd5b61020861020336600461207c565b610530565b6040519081526020015b60405180910390f35b61022e6102293660046120c5565b610593565b6040519015158152602001610212565b6102466105e5565b6040516102129190612136565b610266610261366004612149565b610677565b6040516001600160a01b039091168152602001610212565b61029161028c366004612179565b610711565b005b7f0000000000000000000000000000000000000000000000000000000000000000610266565b6102916102c73660046121a3565b610827565b6102087f000000000000000000000000000000000000000000000000000000000000000081565b6102916103013660046121a3565b610858565b6103196103143660046121df565b610873565b60405161021294939291906121fa565b61033c610337366004612149565b610936565b60405161ffff9091168152602001610212565b61026661035d366004612149565b610966565b61029161037036600461223a565b6109dd565b610208610383366004612276565b610a66565b610291610aed565b610291610b23565b61022e6103a6366004612149565b60ca6020526000908152604090205460ff1681565b6097546001600160a01b0316610266565b610246610be2565b6102916103e2366004612334565b610bf1565b6102667f000000000000000000000000000000000000000000000000000000000000000081565b61029161041c366004612369565b610c2f565b61029161042f36600461223a565b610dc7565b61022e610442366004612334565b8051602091820120600090815260ca909152604090205460ff1690565b61029161046d3660046123c7565b610dd6565b610291610480366004612415565b610e8c565b610246610493366004612149565b610ebe565b6102916104a636600461247d565b610f98565b6102916104b93660046124db565b610fa0565b61022e6104cc366004612532565b6001600160a01b039182166000908152606a6020908152604080832093909416825291909152205460ff1690565b610291610508366004612276565b6111cc565b61022e61051b366004612276565b60cc6020526000908152604090205460ff1681565b604080517f2dd0d51444baed7a92c44a66999b64a48ae0db80accf1941d68ba05bcb3ff6eb602082015261ffff80851692820192909252908216606082015260009060800160405160208183030381529060405280519060200120905092915050565b60006001600160e01b031982166380ac58cd60e01b14806105c457506001600160e01b03198216635b5e139f60e01b145b806105df57506301ffc9a760e01b6001600160e01b03198316145b92915050565b6060606580546105f49061255c565b80601f01602080910402602001604051908101604052809291908181526020018280546106209061255c565b801561066d5780601f106106425761010080835404028352916020019161066d565b820191906000526020600020905b81548152906001019060200180831161065057829003601f168201915b5050505050905090565b6000818152606760205260408120546001600160a01b03166106f55760405162461bcd60e51b815260206004820152602c60248201527f4552433732313a20617070726f76656420717565727920666f72206e6f6e657860448201526b34b9ba32b73a103a37b5b2b760a11b60648201526084015b60405180910390fd5b506000908152606960205260409020546001600160a01b031690565b600061071c82610966565b9050806001600160a01b0316836001600160a01b0316141561078a5760405162461bcd60e51b815260206004820152602160248201527f4552433732313a20617070726f76616c20746f2063757272656e74206f776e656044820152603960f91b60648201526084016106ec565b336001600160a01b03821614806107a657506107a681336104cc565b6108185760405162461bcd60e51b815260206004820152603860248201527f4552433732313a20617070726f76652063616c6c6572206973206e6f74206f7760448201527f6e6572206e6f7220617070726f76656420666f7220616c6c000000000000000060648201526084016106ec565b6108228383611264565b505050565b61083133826112d2565b61084d5760405162461bcd60e51b81526004016106ec90612597565b6108228383836113c9565b61082283838360405180602001604052806000815250610e8c565b60c960205260009081526040902080546001820180546001600160a01b03909216929161089f9061255c565b80601f01602080910402602001604051908101604052809291908181526020018280546108cb9061255c565b80156109185780601f106108ed57610100808354040283529160200191610918565b820191906000526020600020905b8154815290600101906020018083116108fb57829003601f168201915b5050506002909301549192505061ffff808216916201000090041684565b60006105df61ffff7f000000000000000000000000000000000000000000000000000000000000000016836125fe565b6000818152606760205260408120546001600160a01b0316806105df5760405162461bcd60e51b815260206004820152602960248201527f4552433732313a206f776e657220717565727920666f72206e6f6e657869737460448201526832b73a103a37b5b2b760b91b60648201526084016106ec565b6097546001600160a01b03163314610a075760405162461bcd60e51b81526004016106ec90612620565b6001600160a01b038216600081815260cc6020908152604091829020805460ff191685151590811790915591519182527fe5b1e837b96fd584f8365844dbf00f4364cdd776530b6a93e1fa5481b485c1ed910160405180910390a25050565b60006001600160a01b038216610ad15760405162461bcd60e51b815260206004820152602a60248201527f4552433732313a2062616c616e636520717565727920666f7220746865207a65604482015269726f206164647265737360b01b60648201526084016106ec565b506001600160a01b031660009081526068602052604090205490565b6097546001600160a01b03163314610b175760405162461bcd60e51b81526004016106ec90612620565b610b216000611565565b565b6000610b2f60016115b7565b90508015610b47576000805461ff0019166101001790555b610b4f611644565b610b996040518060400160405280600e81526020016d155b99195c99dc9bdd5b99105c9d60921b81525060405180604001604052806002815260200161554160f01b815250611673565b8015610bdf576000805461ff0019169055604051600181527f7f26b83ff96e1f2b6a682f133852f6798a09c465da95921460cefb38474024989060200160405180910390a15b50565b6060606680546105f49061255c565b8051604514610bff57600080fd5b600281015160048083015190606090610c1b90859060416116a4565b9050610c2933848484610fa0565b50505050565b82610c426097546001600160a01b031690565b6001600160a01b0316336001600160a01b03161480610c83575033600090815260cc602052604090205460ff168015610c835750336001600160a01b038216145b610c9f5760405162461bcd60e51b81526004016106ec90612620565b604080516080810182526001600160a01b038681168252602080830187815261ffff8781168587015260006060860181905260cb54909116815260c9835294909420835181546001600160a01b03191693169290921782559251805192939192610d0f9260018501920190611fd1565b50604082810151600292909201805460609094015161ffff908116620100000263ffffffff19909516938116939093179390931790925560cb5482516001600160a01b038816815285831660208201529116917fe5ed1e9b90cf13e3117e90db99b9f6ab9f686f0fba6070659ae45f73a1739b37910160405180910390a260cb805460019190600090610da790849061ffff16612655565b92506101000a81548161ffff021916908361ffff16021790555050505050565b610dd23383836117b1565b5050565b61ffff8216600090815260c960205260409020546001600160a01b0316610e056097546001600160a01b031690565b6001600160a01b0316336001600160a01b03161480610e46575033600090815260cc602052604090205460ff168015610e465750336001600160a01b038216145b610e625760405162461bcd60e51b81526004016106ec90612620565b61ffff8316600090815260c9602090815260409091208351610c2992600190920191850190611fd1565b610e9633836112d2565b610eb25760405162461bcd60e51b81526004016106ec90612597565b610c2984848484611880565b6000818152606760205260409020546060906001600160a01b0316610ee257600080fd5b6000610eed83610936565b61ffff8116600090815260c960205260409020600101805491925090610f129061255c565b80601f0160208091040260200160405190810160405280929190818152602001828054610f3e9061255c565b8015610f8b5780601f10610f6057610100808354040283529160200191610f8b565b820191906000526020600020905b815481529060010190602001808311610f6e57829003601f168201915b5050505050915050919050565b610822338484845b61ffff808416600090815260c9602052604081206002015490916201000090910416610fec7f00000000000000000000000000000000000000000000000000000000000000008661267b565b610ff69190612655565b61ffff858116600090815260c960205260409020600290810180549383169450600193909261102e9185916201000090910416612655565b82546101009290920a61ffff818102199093169183160217909155858116600090815260c9602052604090206002015480821662010000909104909116111590506110d25760405162461bcd60e51b815260206004820152602e60248201527f546f74616c20737570706c7920686173206265656e206d696e74656420666f7260448201526d103a3434b990383937b532b1ba1760911b60648201526084016106ec565b6110f3828051602091820120600090815260ca909152604090205460ff1690565b156111345760405162461bcd60e51b815260206004820152601160248201527010dbd91948185b1c9958591e481d5cd959607a1b60448201526064016106ec565b8151602080840191909120600090815260ca82526040808220805460ff1916600117905561ffff8716825260c9909252205461117b906001600160a01b03168585856118b3565b6111bb5760405162461bcd60e51b815260206004820152601160248201527014da59db985d1d5c99481a5b9d985b1a59607a1b60448201526064016106ec565b6111c58582611945565b5050505050565b6097546001600160a01b031633146111f65760405162461bcd60e51b81526004016106ec90612620565b6001600160a01b03811661125b5760405162461bcd60e51b815260206004820152602660248201527f4f776e61626c653a206e6577206f776e657220697320746865207a65726f206160448201526564647265737360d01b60648201526084016106ec565b610bdf81611565565b600081815260696020526040902080546001600160a01b0319166001600160a01b038416908117909155819061129982610966565b6001600160a01b03167f8c5be1e5ebec7d5bd14f71427d1e84f3dd0314c0f7b2291e5b200ac8c7c3b92560405160405180910390a45050565b6000818152606760205260408120546001600160a01b031661134b5760405162461bcd60e51b815260206004820152602c60248201527f4552433732313a206f70657261746f7220717565727920666f72206e6f6e657860448201526b34b9ba32b73a103a37b5b2b760a11b60648201526084016106ec565b600061135683610966565b9050806001600160a01b0316846001600160a01b0316148061139d57506001600160a01b038082166000908152606a602090815260408083209388168352929052205460ff165b806113c15750836001600160a01b03166113b684610677565b6001600160a01b0316145b949350505050565b826001600160a01b03166113dc82610966565b6001600160a01b0316146114405760405162461bcd60e51b815260206004820152602560248201527f4552433732313a207472616e736665722066726f6d20696e636f72726563742060448201526437bbb732b960d91b60648201526084016106ec565b6001600160a01b0382166114a25760405162461bcd60e51b8152602060048201526024808201527f4552433732313a207472616e7366657220746f20746865207a65726f206164646044820152637265737360e01b60648201526084016106ec565b6114ad600082611264565b6001600160a01b03831660009081526068602052604081208054600192906114d69084906126a5565b90915550506001600160a01b03821660009081526068602052604081208054600192906115049084906126bc565b909155505060008181526067602052604080822080546001600160a01b0319166001600160a01b0386811691821790925591518493918716917fddf252ad1be2c89b69c2b068fc378daa952ba7f163c4a11628f55a4df523b3ef91a4505050565b609780546001600160a01b038381166001600160a01b0319831681179093556040519116919082907f8be0079c531659141344cd1fd0a4f28419497f9722a3daafe3b4186f6b6457e090600090a35050565b60008054610100900460ff16156115fe578160ff1660011480156115da5750303b155b6115f65760405162461bcd60e51b81526004016106ec906126d4565b506000919050565b60005460ff8084169116106116255760405162461bcd60e51b81526004016106ec906126d4565b506000805460ff191660ff92909216919091179055600190565b919050565b600054610100900460ff1661166b5760405162461bcd60e51b81526004016106ec90612722565b610b2161195f565b600054610100900460ff1661169a5760405162461bcd60e51b81526004016106ec90612722565b610dd2828261198f565b6060816116b281601f6126bc565b10156116f15760405162461bcd60e51b815260206004820152600e60248201526d736c6963655f6f766572666c6f7760901b60448201526064016106ec565b6116fb82846126bc565b8451101561173f5760405162461bcd60e51b8152602060048201526011602482015270736c6963655f6f75744f66426f756e647360781b60448201526064016106ec565b60608215801561175e57604051915060008252602082016040526117a8565b6040519150601f8416801560200281840101858101878315602002848b0101015b8183101561179757805183526020928301920161177f565b5050858452601f01601f1916604052505b50949350505050565b816001600160a01b0316836001600160a01b031614156118135760405162461bcd60e51b815260206004820152601960248201527f4552433732313a20617070726f766520746f2063616c6c65720000000000000060448201526064016106ec565b6001600160a01b038381166000818152606a6020908152604080832094871680845294825291829020805460ff191686151590811790915591519182527f17307eab39ab6107e8899845ad3d59bd9653f200f220920489ca2b5937696c31910160405180910390a3505050565b61188b8484846113c9565b611897848484846119dd565b610c295760405162461bcd60e51b81526004016106ec9061276d565b6000806118c08585610530565b60405161190160f01b60208201527f0000000000000000000000000000000000000000000000000000000000000000602282015260428101829052909150600090606201604051602081830303815290604052805190602001209050866001600160a01b03166119308286611ae7565b6001600160a01b031614979650505050505050565b610dd2828260405180602001604052806000815250611b0b565b600054610100900460ff166119865760405162461bcd60e51b81526004016106ec90612722565b610b2133611565565b600054610100900460ff166119b65760405162461bcd60e51b81526004016106ec90612722565b81516119c9906065906020850190611fd1565b508051610822906066906020840190611fd1565b60006001600160a01b0384163b15611adf57604051630a85bd0160e11b81526001600160a01b0385169063150b7a0290611a219033908990889088906004016127bf565b602060405180830381600087803b158015611a3b57600080fd5b505af1925050508015611a6b575060408051601f3d908101601f19168201909252611a68918101906127fc565b60015b611ac5573d808015611a99576040519150601f19603f3d011682016040523d82523d6000602084013e611a9e565b606091505b508051611abd5760405162461bcd60e51b81526004016106ec9061276d565b805181602001fd5b6001600160e01b031916630a85bd0160e11b1490506113c1565b5060016113c1565b6000806000611af68585611b3e565b91509150611b0381611bae565b509392505050565b611b158383611d69565b611b2260008484846119dd565b6108225760405162461bcd60e51b81526004016106ec9061276d565b600080825160411415611b755760208301516040840151606085015160001a611b6987828585611eab565b94509450505050611ba7565b825160401415611b9f5760208301516040840151611b94868383611f98565b935093505050611ba7565b506000905060025b9250929050565b6000816004811115611bc257611bc2612819565b1415611bcb5750565b6001816004811115611bdf57611bdf612819565b1415611c2d5760405162461bcd60e51b815260206004820152601860248201527f45434453413a20696e76616c6964207369676e6174757265000000000000000060448201526064016106ec565b6002816004811115611c4157611c41612819565b1415611c8f5760405162461bcd60e51b815260206004820152601f60248201527f45434453413a20696e76616c6964207369676e6174757265206c656e6774680060448201526064016106ec565b6003816004811115611ca357611ca3612819565b1415611cfc5760405162461bcd60e51b815260206004820152602260248201527f45434453413a20696e76616c6964207369676e6174757265202773272076616c604482015261756560f01b60648201526084016106ec565b6004816004811115611d1057611d10612819565b1415610bdf5760405162461bcd60e51b815260206004820152602260248201527f45434453413a20696e76616c6964207369676e6174757265202776272076616c604482015261756560f01b60648201526084016106ec565b6001600160a01b038216611dbf5760405162461bcd60e51b815260206004820181905260248201527f4552433732313a206d696e7420746f20746865207a65726f206164647265737360448201526064016106ec565b6000818152606760205260409020546001600160a01b031615611e245760405162461bcd60e51b815260206004820152601c60248201527f4552433732313a20746f6b656e20616c7265616479206d696e7465640000000060448201526064016106ec565b6001600160a01b0382166000908152606860205260408120805460019290611e4d9084906126bc565b909155505060008181526067602052604080822080546001600160a01b0319166001600160a01b03861690811790915590518392907fddf252ad1be2c89b69c2b068fc378daa952ba7f163c4a11628f55a4df523b3ef908290a45050565b6000807f7fffffffffffffffffffffffffffffff5d576e7357a4501ddfe92f46681b20a0831115611ee25750600090506003611f8f565b8460ff16601b14158015611efa57508460ff16601c14155b15611f0b5750600090506004611f8f565b6040805160008082526020820180845289905260ff881692820192909252606081018690526080810185905260019060a0016020604051602081039080840390855afa158015611f5f573d6000803e3d6000fd5b5050604051601f1901519150506001600160a01b038116611f8857600060019250925050611f8f565b9150600090505b94509492505050565b6000806001600160ff1b03831681611fb560ff86901c601b6126bc565b9050611fc387828885611eab565b935093505050935093915050565b828054611fdd9061255c565b90600052602060002090601f016020900481019282611fff5760008555612045565b82601f1061201857805160ff1916838001178555612045565b82800160010185558215612045579182015b8281111561204557825182559160200191906001019061202a565b50612051929150612055565b5090565b5b808211156120515760008155600101612056565b803561ffff8116811461163f57600080fd5b6000806040838503121561208f57600080fd5b6120988361206a565b91506120a66020840161206a565b90509250929050565b6001600160e01b031981168114610bdf57600080fd5b6000602082840312156120d757600080fd5b81356120e2816120af565b9392505050565b6000815180845260005b8181101561210f576020818501810151868301820152016120f3565b81811115612121576000602083870101525b50601f01601f19169290920160200192915050565b6020815260006120e260208301846120e9565b60006020828403121561215b57600080fd5b5035919050565b80356001600160a01b038116811461163f57600080fd5b6000806040838503121561218c57600080fd5b61219583612162565b946020939093013593505050565b6000806000606084860312156121b857600080fd5b6121c184612162565b92506121cf60208501612162565b9150604084013590509250925092565b6000602082840312156121f157600080fd5b6120e28261206a565b6001600160a01b038516815260806020820181905260009061221e908301866120e9565b61ffff9485166040840152929093166060909101529392505050565b6000806040838503121561224d57600080fd5b61225683612162565b91506020830135801515811461226b57600080fd5b809150509250929050565b60006020828403121561228857600080fd5b6120e282612162565b634e487b7160e01b600052604160045260246000fd5b600082601f8301126122b857600080fd5b813567ffffffffffffffff808211156122d3576122d3612291565b604051601f8301601f19908116603f011681019082821181831017156122fb576122fb612291565b8160405283815286602085880101111561231457600080fd5b836020870160208301376000602085830101528094505050505092915050565b60006020828403121561234657600080fd5b813567ffffffffffffffff81111561235d57600080fd5b6113c1848285016122a7565b60008060006060848603121561237e57600080fd5b61238784612162565b9250602084013567ffffffffffffffff8111156123a357600080fd5b6123af868287016122a7565b9250506123be6040850161206a565b90509250925092565b600080604083850312156123da57600080fd5b6123e38361206a565b9150602083013567ffffffffffffffff8111156123ff57600080fd5b61240b858286016122a7565b9150509250929050565b6000806000806080858703121561242b57600080fd5b61243485612162565b935061244260208601612162565b925060408501359150606085013567ffffffffffffffff81111561246557600080fd5b612471878288016122a7565b91505092959194509250565b60008060006060848603121561249257600080fd5b61249b8461206a565b92506124a96020850161206a565b9150604084013567ffffffffffffffff8111156124c557600080fd5b6124d1868287016122a7565b9150509250925092565b600080600080608085870312156124f157600080fd5b6124fa85612162565b93506125086020860161206a565b92506125166040860161206a565b9150606085013567ffffffffffffffff81111561246557600080fd5b6000806040838503121561254557600080fd5b61254e83612162565b91506120a660208401612162565b600181811c9082168061257057607f821691505b6020821081141561259157634e487b7160e01b600052602260045260246000fd5b50919050565b60208082526031908201527f4552433732313a207472616e736665722063616c6c6572206973206e6f74206f6040820152701ddb995c881b9bdc88185c1c1c9bdd9959607a1b606082015260800190565b634e487b7160e01b600052601160045260246000fd5b60008261261b57634e487b7160e01b600052601260045260246000fd5b500490565b6020808252818101527f4f776e61626c653a2063616c6c6572206973206e6f7420746865206f776e6572604082015260600190565b600061ffff808316818516808303821115612672576126726125e8565b01949350505050565b600061ffff8083168185168183048111821515161561269c5761269c6125e8565b02949350505050565b6000828210156126b7576126b76125e8565b500390565b600082198211156126cf576126cf6125e8565b500190565b6020808252602e908201527f496e697469616c697a61626c653a20636f6e747261637420697320616c72656160408201526d191e481a5b9a5d1a585b1a5e995960921b606082015260800190565b6020808252602b908201527f496e697469616c697a61626c653a20636f6e7472616374206973206e6f74206960408201526a6e697469616c697a696e6760a81b606082015260800190565b60208082526032908201527f4552433732313a207472616e7366657220746f206e6f6e20455243373231526560408201527131b2b4bb32b91034b6b83632b6b2b73a32b960711b606082015260800190565b6001600160a01b03858116825284166020820152604081018390526080606082018190526000906127f2908301846120e9565b9695505050505050565b60006020828403121561280e57600080fd5b81516120e2816120af565b634e487b7160e01b600052602160045260246000fdfea2646970667358221220b9c7c76d57c1a5a3dec704b5acac68424f126176768b85210a46eac863ea4f8864736f6c63430008090033",
  "devdoc": {
    "kind": "dev",
    "methods": {
      "approve(address,uint256)": {
        "details": "See {IERC721-approve}."
      },
      "balanceOf(address)": {
        "details": "See {IERC721-balanceOf}."
      },
      "getApproved(uint256)": {
        "details": "See {IERC721-getApproved}."
      },
      "isApprovedForAll(address,address)": {
        "details": "See {IERC721-isApprovedForAll}."
      },
      "name()": {
        "details": "See {IERC721Metadata-name}."
      },
      "owner()": {
        "details": "Returns the address of the current owner."
      },
      "ownerOf(uint256)": {
        "details": "See {IERC721-ownerOf}."
      },
      "renounceOwnership()": {
        "details": "Leaves the contract without owner. It will not be possible to call `onlyOwner` functions anymore. Can only be called by the current owner. NOTE: Renouncing ownership will leave the contract without an owner, thereby removing any functionality that is only available to the owner."
      },
      "safeTransferFrom(address,address,uint256)": {
        "details": "See {IERC721-safeTransferFrom}."
      },
      "safeTransferFrom(address,address,uint256,bytes)": {
        "details": "See {IERC721-safeTransferFrom}."
      },
      "setApprovalForAll(address,bool)": {
        "details": "See {IERC721-setApprovalForAll}."
      },
      "supportsInterface(bytes4)": {
        "details": "See {IERC165-supportsInterface}."
      },
      "symbol()": {
        "details": "See {IERC721Metadata-symbol}."
      },
      "tokenURI(uint256)": {
        "details": "Returns an URI for a given token ID Throws if the token ID does not exist. May return an empty string.",
        "params": {
          "tokenId": "uint256 ID of the token to query"
        }
      },
      "transferFrom(address,address,uint256)": {
        "details": "See {IERC721-transferFrom}."
      },
      "transferOwnership(address)": {
        "details": "Transfers ownership of the contract to a new account (`newOwner`). Can only be called by the current owner."
      }
    },
    "version": 1
  },
  "userdoc": {
    "kind": "user",
    "methods": {
      "mintTokenTo(address,uint16,uint16,bytes)": {
        "notice": "Custom accessor to create a unique token"
      }
    },
    "version": 1
  },
  "storageLayout": {
    "storage": [
      {
        "astId": 130,
        "contract": "contracts/UndergroundArt.sol:UndergroundArt",
        "label": "_initialized",
        "offset": 0,
        "slot": "0",
        "type": "t_uint8"
      },
      {
        "astId": 133,
        "contract": "contracts/UndergroundArt.sol:UndergroundArt",
        "label": "_initializing",
        "offset": 1,
        "slot": "0",
        "type": "t_bool"
      },
      {
        "astId": 1601,
        "contract": "contracts/UndergroundArt.sol:UndergroundArt",
        "label": "__gap",
        "offset": 0,
        "slot": "1",
        "type": "t_array(t_uint256)50_storage"
      },
      {
        "astId": 2255,
        "contract": "contracts/UndergroundArt.sol:UndergroundArt",
        "label": "__gap",
        "offset": 0,
        "slot": "51",
        "type": "t_array(t_uint256)50_storage"
      },
      {
        "astId": 294,
        "contract": "contracts/UndergroundArt.sol:UndergroundArt",
        "label": "_name",
        "offset": 0,
        "slot": "101",
        "type": "t_string_storage"
      },
      {
        "astId": 296,
        "contract": "contracts/UndergroundArt.sol:UndergroundArt",
        "label": "_symbol",
        "offset": 0,
        "slot": "102",
        "type": "t_string_storage"
      },
      {
        "astId": 300,
        "contract": "contracts/UndergroundArt.sol:UndergroundArt",
        "label": "_owners",
        "offset": 0,
        "slot": "103",
        "type": "t_mapping(t_uint256,t_address)"
      },
      {
        "astId": 304,
        "contract": "contracts/UndergroundArt.sol:UndergroundArt",
        "label": "_balances",
        "offset": 0,
        "slot": "104",
        "type": "t_mapping(t_address,t_uint256)"
      },
      {
        "astId": 308,
        "contract": "contracts/UndergroundArt.sol:UndergroundArt",
        "label": "_tokenApprovals",
        "offset": 0,
        "slot": "105",
        "type": "t_mapping(t_uint256,t_address)"
      },
      {
        "astId": 314,
        "contract": "contracts/UndergroundArt.sol:UndergroundArt",
        "label": "_operatorApprovals",
        "offset": 0,
        "slot": "106",
        "type": "t_mapping(t_address,t_mapping(t_address,t_bool))"
      },
      {
        "astId": 1155,
        "contract": "contracts/UndergroundArt.sol:UndergroundArt",
        "label": "__gap",
        "offset": 0,
        "slot": "107",
        "type": "t_array(t_uint256)44_storage"
      },
      {
        "astId": 10,
        "contract": "contracts/UndergroundArt.sol:UndergroundArt",
        "label": "_owner",
        "offset": 0,
        "slot": "151",
        "type": "t_address"
      },
      {
        "astId": 122,
        "contract": "contracts/UndergroundArt.sol:UndergroundArt",
        "label": "__gap",
        "offset": 0,
        "slot": "152",
        "type": "t_array(t_uint256)49_storage"
      },
      {
        "astId": 2646,
        "contract": "contracts/UndergroundArt.sol:UndergroundArt",
        "label": "artProjects",
        "offset": 0,
        "slot": "201",
        "type": "t_mapping(t_uint16,t_struct(ArtProject)2627_storage)"
      },
      {
        "astId": 2650,
        "contract": "contracts/UndergroundArt.sol:UndergroundArt",
        "label": "usedSignatureHashes",
        "offset": 0,
        "slot": "202",
        "type": "t_mapping(t_bytes32,t_bool)"
      },
      {
        "astId": 2652,
        "contract": "contracts/UndergroundArt.sol:UndergroundArt",
        "label": "projectCount",
        "offset": 0,
        "slot": "203",
        "type": "t_uint16"
      },
      {
        "astId": 2656,
        "contract": "contracts/UndergroundArt.sol:UndergroundArt",
        "label": "allowlistedArtists",
        "offset": 0,
        "slot": "204",
        "type": "t_mapping(t_address,t_bool)"
      }
    ],
    "types": {
      "t_address": {
        "encoding": "inplace",
        "label": "address",
        "numberOfBytes": "20"
      },
      "t_array(t_uint256)44_storage": {
        "base": "t_uint256",
        "encoding": "inplace",
        "label": "uint256[44]",
        "numberOfBytes": "1408"
      },
      "t_array(t_uint256)49_storage": {
        "base": "t_uint256",
        "encoding": "inplace",
        "label": "uint256[49]",
        "numberOfBytes": "1568"
      },
      "t_array(t_uint256)50_storage": {
        "base": "t_uint256",
        "encoding": "inplace",
        "label": "uint256[50]",
        "numberOfBytes": "1600"
      },
      "t_bool": {
        "encoding": "inplace",
        "label": "bool",
        "numberOfBytes": "1"
      },
      "t_bytes32": {
        "encoding": "inplace",
        "label": "bytes32",
        "numberOfBytes": "32"
      },
      "t_mapping(t_address,t_bool)": {
        "encoding": "mapping",
        "key": "t_address",
        "label": "mapping(address => bool)",
        "numberOfBytes": "32",
        "value": "t_bool"
      },
      "t_mapping(t_address,t_mapping(t_address,t_bool))": {
        "encoding": "mapping",
        "key": "t_address",
        "label": "mapping(address => mapping(address => bool))",
        "numberOfBytes": "32",
        "value": "t_mapping(t_address,t_bool)"
      },
      "t_mapping(t_address,t_uint256)": {
        "encoding": "mapping",
        "key": "t_address",
        "label": "mapping(address => uint256)",
        "numberOfBytes": "32",
        "value": "t_uint256"
      },
      "t_mapping(t_bytes32,t_bool)": {
        "encoding": "mapping",
        "key": "t_bytes32",
        "label": "mapping(bytes32 => bool)",
        "numberOfBytes": "32",
        "value": "t_bool"
      },
      "t_mapping(t_uint16,t_struct(ArtProject)2627_storage)": {
        "encoding": "mapping",
        "key": "t_uint16",
        "label": "mapping(uint16 => struct UndergroundArt.ArtProject)",
        "numberOfBytes": "32",
        "value": "t_struct(ArtProject)2627_storage"
      },
      "t_mapping(t_uint256,t_address)": {
        "encoding": "mapping",
        "key": "t_uint256",
        "label": "mapping(uint256 => address)",
        "numberOfBytes": "32",
        "value": "t_address"
      },
      "t_string_storage": {
        "encoding": "bytes",
        "label": "string",
        "numberOfBytes": "32"
      },
      "t_struct(ArtProject)2627_storage": {
        "encoding": "inplace",
        "label": "struct UndergroundArt.ArtProject",
        "members": [
          {
            "astId": 2620,
            "contract": "contracts/UndergroundArt.sol:UndergroundArt",
            "label": "artistAddress",
            "offset": 0,
            "slot": "0",
            "type": "t_address"
          },
          {
            "astId": 2622,
            "contract": "contracts/UndergroundArt.sol:UndergroundArt",
            "label": "metadataURI",
            "offset": 0,
            "slot": "1",
            "type": "t_string_storage"
          },
          {
            "astId": 2624,
            "contract": "contracts/UndergroundArt.sol:UndergroundArt",
            "label": "totalSupply",
            "offset": 0,
            "slot": "2",
            "type": "t_uint16"
          },
          {
            "astId": 2626,
            "contract": "contracts/UndergroundArt.sol:UndergroundArt",
            "label": "mintedCount",
            "offset": 2,
            "slot": "2",
            "type": "t_uint16"
          }
        ],
        "numberOfBytes": "96"
      },
      "t_uint16": {
        "encoding": "inplace",
        "label": "uint16",
        "numberOfBytes": "2"
      },
      "t_uint256": {
        "encoding": "inplace",
        "label": "uint256",
        "numberOfBytes": "32"
      },
      "t_uint8": {
        "encoding": "inplace",
        "label": "uint8",
        "numberOfBytes": "1"
      }
    }
  }
}