{
  "address": "0x5076c93956AB00D9a098BAFE46c5F50964720b35",
  "abi": [
    {
      "inputs": [],
      "stateMutability": "nonpayable",
      "type": "constructor"
    },
    {
      "anonymous": false,
      "inputs": [
        {
          "indexed": true,
          "internalType": "address",
          "name": "artist",
          "type": "address"
        },
        {
          "indexed": false,
          "internalType": "bool",
          "name": "enabled",
          "type": "bool"
        }
      ],
      "name": "AllowlistedArtist",
      "type": "event"
    },
    {
      "anonymous": false,
      "inputs": [
        {
          "indexed": true,
          "internalType": "address",
          "name": "owner",
          "type": "address"
        },
        {
          "indexed": true,
          "internalType": "address",
          "name": "approved",
          "type": "address"
        },
        {
          "indexed": true,
          "internalType": "uint256",
          "name": "tokenId",
          "type": "uint256"
        }
      ],
      "name": "Approval",
      "type": "event"
    },
    {
      "anonymous": false,
      "inputs": [
        {
          "indexed": true,
          "internalType": "address",
          "name": "owner",
          "type": "address"
        },
        {
          "indexed": true,
          "internalType": "address",
          "name": "operator",
          "type": "address"
        },
        {
          "indexed": false,
          "internalType": "bool",
          "name": "approved",
          "type": "bool"
        }
      ],
      "name": "ApprovalForAll",
      "type": "event"
    },
    {
      "anonymous": false,
      "inputs": [
        {
          "indexed": true,
          "internalType": "uint16",
          "name": "projectId",
          "type": "uint16"
        },
        {
          "indexed": false,
          "internalType": "address",
          "name": "signerAddress",
          "type": "address"
        },
        {
          "indexed": false,
          "internalType": "address",
          "name": "payoutAddress",
          "type": "address"
        },
        {
          "indexed": false,
          "internalType": "uint16",
          "name": "totalSupply",
          "type": "uint16"
        },
        {
          "indexed": false,
          "internalType": "uint256",
          "name": "mintPrice",
          "type": "uint256"
        },
        {
          "indexed": false,
          "internalType": "string",
          "name": "metadataURI",
          "type": "string"
        },
        {
          "indexed": false,
          "internalType": "bool",
          "name": "reuseableCodes",
          "type": "bool"
        }
      ],
      "name": "DefinedProject",
      "type": "event"
    },
    {
      "anonymous": false,
      "inputs": [
        {
          "indexed": false,
          "internalType": "uint8",
          "name": "version",
          "type": "uint8"
        }
      ],
      "name": "Initialized",
      "type": "event"
    },
    {
      "anonymous": false,
      "inputs": [
        {
          "indexed": true,
          "internalType": "uint16",
          "name": "projectId",
          "type": "uint16"
        },
        {
          "indexed": true,
          "internalType": "address",
          "name": "to",
          "type": "address"
        },
        {
          "indexed": false,
          "internalType": "uint256",
          "name": "tokenId",
          "type": "uint256"
        },
        {
          "indexed": false,
          "internalType": "uint16",
          "name": "nonceUsed",
          "type": "uint16"
        },
        {
          "indexed": false,
          "internalType": "bytes32",
          "name": "sigHash",
          "type": "bytes32"
        }
      ],
      "name": "MintedToken",
      "type": "event"
    },
    {
      "anonymous": false,
      "inputs": [
        {
          "indexed": true,
          "internalType": "address",
          "name": "previousOwner",
          "type": "address"
        },
        {
          "indexed": true,
          "internalType": "address",
          "name": "newOwner",
          "type": "address"
        }
      ],
      "name": "OwnershipTransferred",
      "type": "event"
    },
    {
      "anonymous": false,
      "inputs": [
        {
          "indexed": true,
          "internalType": "address",
          "name": "from",
          "type": "address"
        },
        {
          "indexed": true,
          "internalType": "address",
          "name": "to",
          "type": "address"
        },
        {
          "indexed": true,
          "internalType": "uint256",
          "name": "tokenId",
          "type": "uint256"
        }
      ],
      "name": "Transfer",
      "type": "event"
    },
    {
      "anonymous": false,
      "inputs": [
        {
          "indexed": true,
          "internalType": "uint16",
          "name": "projectId",
          "type": "uint16"
        },
        {
          "indexed": false,
          "internalType": "string",
          "name": "metadataURI",
          "type": "string"
        }
      ],
      "name": "UpdatedMetadataURI",
      "type": "event"
    },
    {
      "anonymous": false,
      "inputs": [
        {
          "indexed": true,
          "internalType": "uint16",
          "name": "projectId",
          "type": "uint16"
        },
        {
          "indexed": false,
          "internalType": "uint256",
          "name": "mintPrice",
          "type": "uint256"
        }
      ],
      "name": "UpdatedMintPrice",
      "type": "event"
    },
    {
      "anonymous": false,
      "inputs": [
        {
          "indexed": true,
          "internalType": "uint16",
          "name": "projectId",
          "type": "uint16"
        },
        {
          "indexed": false,
          "internalType": "address",
          "name": "payoutAddress",
          "type": "address"
        }
      ],
      "name": "UpdatedPayoutAddress",
      "type": "event"
    },
    {
      "anonymous": false,
      "inputs": [
        {
          "indexed": true,
          "internalType": "uint16",
          "name": "projectId",
          "type": "uint16"
        },
        {
          "indexed": false,
          "internalType": "bool",
          "name": "reuseableCodes",
          "type": "bool"
        }
      ],
      "name": "UpdatedReuseableCodes",
      "type": "event"
    },
    {
      "inputs": [
        {
          "internalType": "address",
          "name": "",
          "type": "address"
        }
      ],
      "name": "allowlistedArtists",
      "outputs": [
        {
          "internalType": "bool",
          "name": "",
          "type": "bool"
        }
      ],
      "stateMutability": "view",
      "type": "function"
    },
    {
      "inputs": [
        {
          "internalType": "address",
          "name": "to",
          "type": "address"
        },
        {
          "internalType": "uint256",
          "name": "tokenId",
          "type": "uint256"
        }
      ],
      "name": "approve",
      "outputs": [],
      "stateMutability": "nonpayable",
      "type": "function"
    },
    {
      "inputs": [
        {
          "internalType": "uint16",
          "name": "",
          "type": "uint16"
        }
      ],
      "name": "artProjects",
      "outputs": [
        {
          "internalType": "address",
          "name": "signerAddress",
          "type": "address"
        },
        {
          "internalType": "address",
          "name": "payoutAddress",
          "type": "address"
        },
        {
          "internalType": "string",
          "name": "metadataURI",
          "type": "string"
        },
        {
          "internalType": "uint16",
          "name": "totalSupply",
          "type": "uint16"
        },
        {
          "internalType": "uint16",
          "name": "mintedCount",
          "type": "uint16"
        },
        {
          "internalType": "uint256",
          "name": "mintPrice",
          "type": "uint256"
        },
        {
          "internalType": "bool",
          "name": "reuseableCodes",
          "type": "bool"
        }
      ],
      "stateMutability": "view",
      "type": "function"
    },
    {
      "inputs": [
        {
          "internalType": "address",
          "name": "owner",
          "type": "address"
        }
      ],
      "name": "balanceOf",
      "outputs": [
        {
          "internalType": "uint256",
          "name": "",
          "type": "uint256"
        }
      ],
      "stateMutability": "view",
      "type": "function"
    },
    {
      "inputs": [
        {
          "internalType": "address",
          "name": "_signerAddress",
          "type": "address"
        },
        {
          "internalType": "address",
          "name": "_payoutAddress",
          "type": "address"
        },
        {
          "internalType": "string",
          "name": "_metadataURI",
          "type": "string"
        },
        {
          "internalType": "uint16",
          "name": "_totalSupply",
          "type": "uint16"
        },
        {
          "internalType": "uint256",
          "name": "_mintPrice",
          "type": "uint256"
        }
      ],
      "name": "defineProject",
      "outputs": [],
      "stateMutability": "nonpayable",
      "type": "function"
    },
    {
      "inputs": [
        {
          "internalType": "uint256",
          "name": "tokenId",
          "type": "uint256"
        }
      ],
      "name": "getApproved",
      "outputs": [
        {
          "internalType": "address",
          "name": "",
          "type": "address"
        }
      ],
      "stateMutability": "view",
      "type": "function"
    },
    {
      "inputs": [
        {
          "internalType": "uint256",
          "name": "tokenId",
          "type": "uint256"
        }
      ],
      "name": "getProjectIdFromTokenId",
      "outputs": [
        {
          "internalType": "uint16",
          "name": "",
          "type": "uint16"
        }
      ],
      "stateMutability": "view",
      "type": "function"
    },
    {
      "inputs": [
        {
          "internalType": "uint16",
          "name": "projectId",
          "type": "uint16"
        },
        {
          "internalType": "uint16",
          "name": "nonce",
          "type": "uint16"
        }
      ],
      "name": "getTypeHash",
      "outputs": [
        {
          "internalType": "bytes32",
          "name": "",
          "type": "bytes32"
        }
      ],
      "stateMutability": "view",
      "type": "function"
    },
    {
      "inputs": [],
      "name": "initialize",
      "outputs": [],
      "stateMutability": "nonpayable",
      "type": "function"
    },
    {
      "inputs": [
        {
          "internalType": "address",
          "name": "owner",
          "type": "address"
        },
        {
          "internalType": "address",
          "name": "operator",
          "type": "address"
        }
      ],
      "name": "isApprovedForAll",
      "outputs": [
        {
          "internalType": "bool",
          "name": "",
          "type": "bool"
        }
      ],
      "stateMutability": "view",
      "type": "function"
    },
    {
      "inputs": [
        {
          "internalType": "uint16",
          "name": "_projectId",
          "type": "uint16"
        },
        {
          "internalType": "uint16",
          "name": "_nonce",
          "type": "uint16"
        },
        {
          "internalType": "bytes",
          "name": "_signature",
          "type": "bytes"
        }
      ],
      "name": "mintToken",
      "outputs": [],
      "stateMutability": "payable",
      "type": "function"
    },
    {
      "inputs": [
        {
          "internalType": "bytes",
          "name": "_secretMessage",
          "type": "bytes"
        }
      ],
      "name": "mintTokenFromSecretMessage",
      "outputs": [],
      "stateMutability": "payable",
      "type": "function"
    },
    {
      "inputs": [
        {
          "internalType": "uint16",
          "name": "_projectId",
          "type": "uint16"
        },
        {
          "internalType": "string",
          "name": "_metadataURI",
          "type": "string"
        }
      ],
      "name": "modifyProjectMetadata",
      "outputs": [],
      "stateMutability": "nonpayable",
      "type": "function"
    },
    {
      "inputs": [
        {
          "internalType": "uint16",
          "name": "_projectId",
          "type": "uint16"
        },
        {
          "internalType": "uint256",
          "name": "_mintPrice",
          "type": "uint256"
        }
      ],
      "name": "modifyProjectMintPrice",
      "outputs": [],
      "stateMutability": "nonpayable",
      "type": "function"
    },
    {
      "inputs": [
        {
          "internalType": "uint16",
          "name": "_projectId",
          "type": "uint16"
        },
        {
          "internalType": "address",
          "name": "_payoutAddress",
          "type": "address"
        }
      ],
      "name": "modifyProjectPayoutAddress",
      "outputs": [],
      "stateMutability": "nonpayable",
      "type": "function"
    },
    {
      "inputs": [
        {
          "internalType": "uint16",
          "name": "_projectId",
          "type": "uint16"
        },
        {
          "internalType": "bool",
          "name": "_reuseableCodes",
          "type": "bool"
        }
      ],
      "name": "modifyProjectReuseableCodes",
      "outputs": [],
      "stateMutability": "nonpayable",
      "type": "function"
    },
    {
      "inputs": [],
      "name": "name",
      "outputs": [
        {
          "internalType": "string",
          "name": "",
          "type": "string"
        }
      ],
      "stateMutability": "view",
      "type": "function"
    },
    {
      "inputs": [],
      "name": "owner",
      "outputs": [
        {
          "internalType": "address",
          "name": "",
          "type": "address"
        }
      ],
      "stateMutability": "view",
      "type": "function"
    },
    {
      "inputs": [
        {
          "internalType": "uint256",
          "name": "tokenId",
          "type": "uint256"
        }
      ],
      "name": "ownerOf",
      "outputs": [
        {
          "internalType": "address",
          "name": "",
          "type": "address"
        }
      ],
      "stateMutability": "view",
      "type": "function"
    },
    {
      "inputs": [],
      "name": "renounceOwnership",
      "outputs": [],
      "stateMutability": "nonpayable",
      "type": "function"
    },
    {
      "inputs": [
        {
          "internalType": "address",
          "name": "from",
          "type": "address"
        },
        {
          "internalType": "address",
          "name": "to",
          "type": "address"
        },
        {
          "internalType": "uint256",
          "name": "tokenId",
          "type": "uint256"
        }
      ],
      "name": "safeTransferFrom",
      "outputs": [],
      "stateMutability": "nonpayable",
      "type": "function"
    },
    {
      "inputs": [
        {
          "internalType": "address",
          "name": "from",
          "type": "address"
        },
        {
          "internalType": "address",
          "name": "to",
          "type": "address"
        },
        {
          "internalType": "uint256",
          "name": "tokenId",
          "type": "uint256"
        },
        {
          "internalType": "bytes",
          "name": "_data",
          "type": "bytes"
        }
      ],
      "name": "safeTransferFrom",
      "outputs": [],
      "stateMutability": "nonpayable",
      "type": "function"
    },
    {
      "inputs": [
        {
          "internalType": "address",
          "name": "operator",
          "type": "address"
        },
        {
          "internalType": "bool",
          "name": "approved",
          "type": "bool"
        }
      ],
      "name": "setApprovalForAll",
      "outputs": [],
      "stateMutability": "nonpayable",
      "type": "function"
    },
    {
      "inputs": [
        {
          "internalType": "address",
          "name": "artistAddress",
          "type": "address"
        },
        {
          "internalType": "bool",
          "name": "enabled",
          "type": "bool"
        }
      ],
      "name": "setArtistAllowlisted",
      "outputs": [],
      "stateMutability": "nonpayable",
      "type": "function"
    },
    {
      "inputs": [
        {
          "internalType": "bytes",
          "name": "_signature",
          "type": "bytes"
        }
      ],
      "name": "signatureHasBeenUsed",
      "outputs": [
        {
          "internalType": "bool",
          "name": "",
          "type": "bool"
        }
      ],
      "stateMutability": "view",
      "type": "function"
    },
    {
      "inputs": [
        {
          "internalType": "bytes4",
          "name": "interfaceId",
          "type": "bytes4"
        }
      ],
      "name": "supportsInterface",
      "outputs": [
        {
          "internalType": "bool",
          "name": "",
          "type": "bool"
        }
      ],
      "stateMutability": "view",
      "type": "function"
    },
    {
      "inputs": [],
      "name": "symbol",
      "outputs": [
        {
          "internalType": "string",
          "name": "",
          "type": "string"
        }
      ],
      "stateMutability": "view",
      "type": "function"
    },
    {
      "inputs": [
        {
          "internalType": "uint256",
          "name": "tokenId",
          "type": "uint256"
        }
      ],
      "name": "tokenURI",
      "outputs": [
        {
          "internalType": "string",
          "name": "",
          "type": "string"
        }
      ],
      "stateMutability": "view",
      "type": "function"
    },
    {
      "inputs": [
        {
          "internalType": "address",
          "name": "from",
          "type": "address"
        },
        {
          "internalType": "address",
          "name": "to",
          "type": "address"
        },
        {
          "internalType": "uint256",
          "name": "tokenId",
          "type": "uint256"
        }
      ],
      "name": "transferFrom",
      "outputs": [],
      "stateMutability": "nonpayable",
      "type": "function"
    },
    {
      "inputs": [
        {
          "internalType": "address",
          "name": "newOwner",
          "type": "address"
        }
      ],
      "name": "transferOwnership",
      "outputs": [],
      "stateMutability": "nonpayable",
      "type": "function"
    },
    {
      "inputs": [
        {
          "internalType": "bytes32",
          "name": "",
          "type": "bytes32"
        }
      ],
      "name": "usedSignatureHashes",
      "outputs": [
        {
          "internalType": "bool",
          "name": "",
          "type": "bool"
        }
      ],
      "stateMutability": "view",
      "type": "function"
    }
  ],
  "transactionHash": "0x2018623067443e69539b2538a20de4a5e5d7b9d628959b84b10f1804bf0317e4",
  "args": [],
  "solcInputHash": "1debb96dc83788fcf4c0fa12380ddb3a",
  "bytecode": "0x60a060405261271060805234801561001657600080fd5b50608051612f4061003960003960008181610d4d0152611a130152612f406000f3fe6080604052600436106101d85760003560e01c80638d54a10c11610102578063c87b56dd11610095578063f07c71a411610064578063f07c71a4146105b6578063f2fde38b146105d6578063f6e7516f146105f6578063fdb8f6591461062657600080fd5b8063c87b56dd1461051a578063d46098f41461053a578063e8bd1bb21461054d578063e985e9c51461056d57600080fd5b8063a22cb465116100d1578063a22cb46514610482578063a5135a74146104a2578063ad186a44146104da578063b88d4fde146104fa57600080fd5b80638d54a10c1461040c5780638da5cb5b1461043c57806395d89b411461045a5780639a1552df1461046f57600080fd5b80632a5299d01161017a5780636352211e116101495780636352211e146103a257806370a08231146103c2578063715018a6146103e25780638129fc1c146103f757600080fd5b80632a5299d0146102fc57806342842e0e1461031c57806344616a791461033c5780635d89170d1461036f57600080fd5b8063081812fc116101b6578063081812fc14610262578063095ea7b31461029a57806318d11f82146102bc57806323b872dd146102dc57600080fd5b8063011e84ca146101dd57806301ffc9a71461021057806306fdde0314610240575b600080fd5b3480156101e957600080fd5b506101fd6101f83660046126d9565b610646565b6040519081526020015b60405180910390f35b34801561021c57600080fd5b5061023061022b366004612722565b6106a9565b6040519015158152602001610207565b34801561024c57600080fd5b506102556106fb565b6040516102079190612793565b34801561026e57600080fd5b5061028261027d3660046127a6565b61078d565b6040516001600160a01b039091168152602001610207565b3480156102a657600080fd5b506102ba6102b53660046127d6565b610827565b005b3480156102c857600080fd5b506102ba6102d73660046128a3565b61093d565b3480156102e857600080fd5b506102ba6102f736600461291a565b610b23565b34801561030857600080fd5b506102ba610317366004612956565b610b54565b34801561032857600080fd5b506102ba61033736600461291a565b610c4c565b34801561034857600080fd5b5061035c610357366004612980565b610c67565b604051610207979695949392919061299b565b34801561037b57600080fd5b5061038f61038a3660046127a6565b610d43565b60405161ffff9091168152602001610207565b3480156103ae57600080fd5b506102826103bd3660046127a6565b610d73565b3480156103ce57600080fd5b506101fd6103dd3660046129f3565b610dea565b3480156103ee57600080fd5b506102ba610e71565b34801561040357600080fd5b506102ba610ea7565b34801561041857600080fd5b506102306104273660046127a6565b60ca6020526000908152604090205460ff1681565b34801561044857600080fd5b506097546001600160a01b0316610282565b34801561046657600080fd5b50610255610f66565b6102ba61047d366004612a0e565b610f75565b34801561048e57600080fd5b506102ba61049d366004612a53565b610fb3565b3480156104ae57600080fd5b506102306104bd366004612a0e565b8051602091820120600090815260ca909152604090205460ff1690565b3480156104e657600080fd5b506102ba6104f5366004612a7d565b610fc2565b34801561050657600080fd5b506102ba610515366004612acb565b6110ad565b34801561052657600080fd5b506102556105353660046127a6565b6110df565b6102ba610548366004612b33565b6111b9565b34801561055957600080fd5b506102ba610568366004612a53565b6111c5565b34801561057957600080fd5b50610230610588366004612b91565b6001600160a01b039182166000908152606a6020908152604080832093909416825291909152205460ff1690565b3480156105c257600080fd5b506102ba6105d1366004612bad565b61124e565b3480156105e257600080fd5b506102ba6105f13660046129f3565b611325565b34801561060257600080fd5b506102306106113660046129f3565b60cc6020526000908152604090205460ff1681565b34801561063257600080fd5b506102ba610641366004612bc9565b6113bd565b604080517f2dd0d51444baed7a92c44a66999b64a48ae0db80accf1941d68ba05bcb3ff6eb602082015261ffff80851692820192909252908216606082015260009060800160405160208183030381529060405280519060200120905092915050565b60006001600160e01b031982166380ac58cd60e01b14806106da57506001600160e01b03198216635b5e139f60e01b145b806106f557506301ffc9a760e01b6001600160e01b03198316145b92915050565b60606065805461070a90612be5565b80601f016020809104026020016040519081016040528092919081815260200182805461073690612be5565b80156107835780601f1061075857610100808354040283529160200191610783565b820191906000526020600020905b81548152906001019060200180831161076657829003601f168201915b5050505050905090565b6000818152606760205260408120546001600160a01b031661080b5760405162461bcd60e51b815260206004820152602c60248201527f4552433732313a20617070726f76656420717565727920666f72206e6f6e657860448201526b34b9ba32b73a103a37b5b2b760a11b60648201526084015b60405180910390fd5b506000908152606960205260409020546001600160a01b031690565b600061083282610d73565b9050806001600160a01b0316836001600160a01b031614156108a05760405162461bcd60e51b815260206004820152602160248201527f4552433732313a20617070726f76616c20746f2063757272656e74206f776e656044820152603960f91b6064820152608401610802565b336001600160a01b03821614806108bc57506108bc8133610588565b61092e5760405162461bcd60e51b815260206004820152603860248201527f4552433732313a20617070726f76652063616c6c6572206973206e6f74206f7760448201527f6e6572206e6f7220617070726f76656420666f7220616c6c00000000000000006064820152608401610802565b610938838361149f565b505050565b846109506097546001600160a01b031690565b6001600160a01b0316336001600160a01b03161480610991575033600090815260cc602052604090205460ff1680156109915750336001600160a01b038216145b6109ad5760405162461bcd60e51b815260040161080290612c20565b6040805160e0810182526001600160a01b038089168252878116602080840191825283850189815261ffff808a16606087015260006080870181905260a087018a905260c0870181905260cb54909116815260c9835295909520845181549085166001600160a01b031991821617825592516001820180549190951693169290921790925592518051929392610a49926002850192019061262e565b506060820151600382018054608085015161ffff908116620100000263ffffffff199092169381169390931717905560a0830151600483015560c0909201516005909101805491151560ff1990921691909117905560cb546040519116907fed054d2acb630c7c27a9f97429e95923e00818805efb9d49f1851cb5b37e54ec90610adf9089908990889088908b90600090612c55565b60405180910390a260cb805460019190600090610b0190849061ffff16612cbd565b92506101000a81548161ffff021916908361ffff160217905550505050505050565b610b2d338261150d565b610b495760405162461bcd60e51b815260040161080290612ce3565b610938838383611604565b61ffff8216600090815260c960205260409020546001600160a01b0316610b836097546001600160a01b031690565b6001600160a01b0316336001600160a01b03161480610bc4575033600090815260cc602052604090205460ff168015610bc45750336001600160a01b038216145b610be05760405162461bcd60e51b815260040161080290612c20565b61ffff8316600081815260c9602090815260409182902060010180546001600160a01b0319166001600160a01b03871690811790915591519182527f8584e06208271682859ee0ba55cb68bf23fdf9cbdf7c9cf5277014ba37c1e74491015b60405180910390a2505050565b610938838383604051806020016040528060008152506110ad565b60c9602052600090815260409020805460018201546002830180546001600160a01b03938416949290931692610c9c90612be5565b80601f0160208091040260200160405190810160405280929190818152602001828054610cc890612be5565b8015610d155780601f10610cea57610100808354040283529160200191610d15565b820191906000526020600020905b815481529060010190602001808311610cf857829003601f168201915b50505060038401546004850154600590950154939461ffff8083169562010000909304169350915060ff1687565b60006106f561ffff7f00000000000000000000000000000000000000000000000000000000000000001683612d34565b6000818152606760205260408120546001600160a01b0316806106f55760405162461bcd60e51b815260206004820152602960248201527f4552433732313a206f776e657220717565727920666f72206e6f6e657869737460448201526832b73a103a37b5b2b760b91b6064820152608401610802565b60006001600160a01b038216610e555760405162461bcd60e51b815260206004820152602a60248201527f4552433732313a2062616c616e636520717565727920666f7220746865207a65604482015269726f206164647265737360b01b6064820152608401610802565b506001600160a01b031660009081526068602052604090205490565b6097546001600160a01b03163314610e9b5760405162461bcd60e51b815260040161080290612c20565b610ea560006117a0565b565b6000610eb360016117f2565b90508015610ecb576000805461ff0019166101001790555b610ed361187f565b610f1d6040518060400160405280600e81526020016d155b99195c99dc9bdd5b99105c9d60921b81525060405180604001604052806002815260200161554160f01b8152506118ae565b8015610f63576000805461ff0019169055604051600181527f7f26b83ff96e1f2b6a682f133852f6798a09c465da95921460cefb38474024989060200160405180910390a15b50565b60606066805461070a90612be5565b8051604514610f8357600080fd5b600281015160048083015190606090610f9f90859060416118df565b9050610fad338484846119ec565b50505050565b610fbe338383611d54565b5050565b61ffff8216600090815260c960205260409020546001600160a01b0316610ff16097546001600160a01b031690565b6001600160a01b0316336001600160a01b03161480611032575033600090815260cc602052604090205460ff1680156110325750336001600160a01b038216145b61104e5760405162461bcd60e51b815260040161080290612c20565b61ffff8316600090815260c96020908152604090912083516110789260029092019185019061262e565b508261ffff167f2622ce771334003c618057f6bfbb88ca188cda460bbb9e557a28ade3791741fb83604051610c3f9190612793565b6110b7338361150d565b6110d35760405162461bcd60e51b815260040161080290612ce3565b610fad84848484611e23565b6000818152606760205260409020546060906001600160a01b031661110357600080fd5b600061110e83610d43565b61ffff8116600090815260c96020526040902060020180549192509061113390612be5565b80601f016020809104026020016040519081016040528092919081815260200182805461115f90612be5565b80156111ac5780601f10611181576101008083540402835291602001916111ac565b820191906000526020600020905b81548152906001019060200180831161118f57829003601f168201915b5050505050915050919050565b610938338484846119ec565b6097546001600160a01b031633146111ef5760405162461bcd60e51b815260040161080290612c20565b6001600160a01b038216600081815260cc6020908152604091829020805460ff191685151590811790915591519182527fe5b1e837b96fd584f8365844dbf00f4364cdd776530b6a93e1fa5481b485c1ed910160405180910390a25050565b61ffff8216600090815260c960205260409020546001600160a01b031661127d6097546001600160a01b031690565b6001600160a01b0316336001600160a01b031614806112be575033600090815260cc602052604090205460ff1680156112be5750336001600160a01b038216145b6112da5760405162461bcd60e51b815260040161080290612c20565b61ffff8316600081815260c9602052604090819020600401849055517f73d9f3822fee96663efbf1740611ddd0da144b7f9dc3bb9fabd11ce31a803f7390610c3f9085815260200190565b6097546001600160a01b0316331461134f5760405162461bcd60e51b815260040161080290612c20565b6001600160a01b0381166113b45760405162461bcd60e51b815260206004820152602660248201527f4f776e61626c653a206e6577206f776e657220697320746865207a65726f206160448201526564647265737360d01b6064820152608401610802565b610f63816117a0565b61ffff8216600090815260c960205260409020546001600160a01b03166113ec6097546001600160a01b031690565b6001600160a01b0316336001600160a01b0316148061142d575033600090815260cc602052604090205460ff16801561142d5750336001600160a01b038216145b6114495760405162461bcd60e51b815260040161080290612c20565b61ffff8316600081815260c96020908152604091829020600501805460ff191686151590811790915591519182527fcf03e30ecd8892319771370c18278fa1ece30c8b03ec141aec21a44b6fa96d6b9101610c3f565b600081815260696020526040902080546001600160a01b0319166001600160a01b03841690811790915581906114d482610d73565b6001600160a01b03167f8c5be1e5ebec7d5bd14f71427d1e84f3dd0314c0f7b2291e5b200ac8c7c3b92560405160405180910390a45050565b6000818152606760205260408120546001600160a01b03166115865760405162461bcd60e51b815260206004820152602c60248201527f4552433732313a206f70657261746f7220717565727920666f72206e6f6e657860448201526b34b9ba32b73a103a37b5b2b760a11b6064820152608401610802565b600061159183610d73565b9050806001600160a01b0316846001600160a01b031614806115d857506001600160a01b038082166000908152606a602090815260408083209388168352929052205460ff165b806115fc5750836001600160a01b03166115f18461078d565b6001600160a01b0316145b949350505050565b826001600160a01b031661161782610d73565b6001600160a01b03161461167b5760405162461bcd60e51b815260206004820152602560248201527f4552433732313a207472616e736665722066726f6d20696e636f72726563742060448201526437bbb732b960d91b6064820152608401610802565b6001600160a01b0382166116dd5760405162461bcd60e51b8152602060048201526024808201527f4552433732313a207472616e7366657220746f20746865207a65726f206164646044820152637265737360e01b6064820152608401610802565b6116e860008261149f565b6001600160a01b0383166000908152606860205260408120805460019290611711908490612d56565b90915550506001600160a01b038216600090815260686020526040812080546001929061173f908490612d6d565b909155505060008181526067602052604080822080546001600160a01b0319166001600160a01b0386811691821790925591518493918716917fddf252ad1be2c89b69c2b068fc378daa952ba7f163c4a11628f55a4df523b3ef91a4505050565b609780546001600160a01b038381166001600160a01b0319831681179093556040519116919082907f8be0079c531659141344cd1fd0a4f28419497f9722a3daafe3b4186f6b6457e090600090a35050565b60008054610100900460ff1615611839578160ff1660011480156118155750303b155b6118315760405162461bcd60e51b815260040161080290612d85565b506000919050565b60005460ff8084169116106118605760405162461bcd60e51b815260040161080290612d85565b506000805460ff191660ff92909216919091179055600190565b919050565b600054610100900460ff166118a65760405162461bcd60e51b815260040161080290612dd3565b610ea5611e56565b600054610100900460ff166118d55760405162461bcd60e51b815260040161080290612dd3565b610fbe8282611e86565b6060816118ed81601f612d6d565b101561192c5760405162461bcd60e51b815260206004820152600e60248201526d736c6963655f6f766572666c6f7760901b6044820152606401610802565b6119368284612d6d565b8451101561197a5760405162461bcd60e51b8152602060048201526011602482015270736c6963655f6f75744f66426f756e647360781b6044820152606401610802565b60608215801561199957604051915060008252602082016040526119e3565b6040519150601f8416801560200281840101858101878315602002848b0101015b818310156119d25780518352602092830192016119ba565b5050858452601f01601f1916604052505b50949350505050565b61ffff808416600090815260c9602052604081206003015490916201000090910416611a387f000000000000000000000000000000000000000000000000000000000000000086612e1e565b611a429190612cbd565b61ffff858116600090815260c960205260409020600301805492821693506001929091600291611a7a91859162010000900416612cbd565b82546101009290920a61ffff818102199093169183160217909155858116600090815260c960205260409020600301548082166201000090910490911611159050611b1e5760405162461bcd60e51b815260206004820152602e60248201527f546f74616c20737570706c7920686173206265656e206d696e74656420666f7260448201526d103a3434b990383937b532b1ba1760911b6064820152608401610802565b611b3f828051602091820120600090815260ca909152604090205460ff1690565b158015611b63575061ffff8416600090815260c9602052604090206005015460ff16155b611ba35760405162461bcd60e51b815260206004820152601160248201527010dbd91948185b1c9958591e481d5cd959607a1b6044820152606401610802565b8151602080840191909120600090815260ca82526040808220805460ff1916600117905561ffff8716825260c99092522054611bea906001600160a01b0316858585611ed4565b611c2a5760405162461bcd60e51b815260206004820152601160248201527014da59db985d1d5c99481a5b9d985b1a59607a1b6044820152606401610802565b611c348582612020565b61ffff8416600090815260c960205260409020600401543414611c995760405162461bcd60e51b815260206004820152601860248201527f496e76616c6964207061796d656e7420666f72206d696e7400000000000000006044820152606401610802565b61ffff8416600090815260c960205260408082206001015490516001600160a01b03909116913480156108fc02929091818181858888f19350505050158015611ce6573d6000803e3d6000fd5b50846001600160a01b03168461ffff167fb60f2d614ad742272f07e2650ac7e26397bb1057b5e7c6dbd96d0a7176e54d0383868680519060200120604051611d459392919092835261ffff919091166020830152604082015260600190565b60405180910390a35050505050565b816001600160a01b0316836001600160a01b03161415611db65760405162461bcd60e51b815260206004820152601960248201527f4552433732313a20617070726f766520746f2063616c6c6572000000000000006044820152606401610802565b6001600160a01b038381166000818152606a6020908152604080832094871680845294825291829020805460ff191686151590811790915591519182527f17307eab39ab6107e8899845ad3d59bd9653f200f220920489ca2b5937696c31910160405180910390a3505050565b611e2e848484611604565b611e3a8484848461203a565b610fad5760405162461bcd60e51b815260040161080290612e48565b600054610100900460ff16611e7d5760405162461bcd60e51b815260040161080290612dd3565b610ea5336117a0565b600054610100900460ff16611ead5760405162461bcd60e51b815260040161080290612dd3565b8151611ec090606590602085019061262e565b50805161093890606690602084019061262e565b600080611ee18585610646565b90506000611fbf604080518082018252600e81526d155b99195c99dc9bdd5b99105c9d60921b6020918201528151808301835260038152620312e360ec1b9082015281517f8b73c3c69bb8fe3d512ecc4cf759cc79239f7b179b0ffacaa9a75d522b39400f818301527f89c61ec07304ec3de6b5995fa016c5cb21aaf852a7c84c6dd1c8b4cbfbf52b75818401527fe6bbd6277e1bf288eed5e8d1780f9a50b239e86b153736bceebccf4ea79d90b360608201524660808201523060a0808301919091528351808303909101815260c0909101909252815191012090565b60405161190160f01b6020820152602281019190915260428101839052606201604051602081830303815290604052805190602001209050866001600160a01b031661200b8286612144565b6001600160a01b031614979650505050505050565b610fbe828260405180602001604052806000815250612168565b60006001600160a01b0384163b1561213c57604051630a85bd0160e11b81526001600160a01b0385169063150b7a029061207e903390899088908890600401612e9a565b602060405180830381600087803b15801561209857600080fd5b505af19250505080156120c8575060408051601f3d908101601f191682019092526120c591810190612ed7565b60015b612122573d8080156120f6576040519150601f19603f3d011682016040523d82523d6000602084013e6120fb565b606091505b50805161211a5760405162461bcd60e51b815260040161080290612e48565b805181602001fd5b6001600160e01b031916630a85bd0160e11b1490506115fc565b5060016115fc565b6000806000612153858561219b565b915091506121608161220b565b509392505050565b61217283836123c6565b61217f600084848461203a565b6109385760405162461bcd60e51b815260040161080290612e48565b6000808251604114156121d25760208301516040840151606085015160001a6121c687828585612508565b94509450505050612204565b8251604014156121fc57602083015160408401516121f18683836125f5565b935093505050612204565b506000905060025b9250929050565b600081600481111561221f5761221f612ef4565b14156122285750565b600181600481111561223c5761223c612ef4565b141561228a5760405162461bcd60e51b815260206004820152601860248201527f45434453413a20696e76616c6964207369676e617475726500000000000000006044820152606401610802565b600281600481111561229e5761229e612ef4565b14156122ec5760405162461bcd60e51b815260206004820152601f60248201527f45434453413a20696e76616c6964207369676e6174757265206c656e677468006044820152606401610802565b600381600481111561230057612300612ef4565b14156123595760405162461bcd60e51b815260206004820152602260248201527f45434453413a20696e76616c6964207369676e6174757265202773272076616c604482015261756560f01b6064820152608401610802565b600481600481111561236d5761236d612ef4565b1415610f635760405162461bcd60e51b815260206004820152602260248201527f45434453413a20696e76616c6964207369676e6174757265202776272076616c604482015261756560f01b6064820152608401610802565b6001600160a01b03821661241c5760405162461bcd60e51b815260206004820181905260248201527f4552433732313a206d696e7420746f20746865207a65726f20616464726573736044820152606401610802565b6000818152606760205260409020546001600160a01b0316156124815760405162461bcd60e51b815260206004820152601c60248201527f4552433732313a20746f6b656e20616c7265616479206d696e746564000000006044820152606401610802565b6001600160a01b03821660009081526068602052604081208054600192906124aa908490612d6d565b909155505060008181526067602052604080822080546001600160a01b0319166001600160a01b03861690811790915590518392907fddf252ad1be2c89b69c2b068fc378daa952ba7f163c4a11628f55a4df523b3ef908290a45050565b6000807f7fffffffffffffffffffffffffffffff5d576e7357a4501ddfe92f46681b20a083111561253f57506000905060036125ec565b8460ff16601b1415801561255757508460ff16601c14155b1561256857506000905060046125ec565b6040805160008082526020820180845289905260ff881692820192909252606081018690526080810185905260019060a0016020604051602081039080840390855afa1580156125bc573d6000803e3d6000fd5b5050604051601f1901519150506001600160a01b0381166125e5576000600192509250506125ec565b9150600090505b94509492505050565b6000806001600160ff1b0383168161261260ff86901c601b612d6d565b905061262087828885612508565b935093505050935093915050565b82805461263a90612be5565b90600052602060002090601f01602090048101928261265c57600085556126a2565b82601f1061267557805160ff19168380011785556126a2565b828001600101855582156126a2579182015b828111156126a2578251825591602001919060010190612687565b506126ae9291506126b2565b5090565b5b808211156126ae57600081556001016126b3565b803561ffff8116811461187a57600080fd5b600080604083850312156126ec57600080fd5b6126f5836126c7565b9150612703602084016126c7565b90509250929050565b6001600160e01b031981168114610f6357600080fd5b60006020828403121561273457600080fd5b813561273f8161270c565b9392505050565b6000815180845260005b8181101561276c57602081850181015186830182015201612750565b8181111561277e576000602083870101525b50601f01601f19169290920160200192915050565b60208152600061273f6020830184612746565b6000602082840312156127b857600080fd5b5035919050565b80356001600160a01b038116811461187a57600080fd5b600080604083850312156127e957600080fd5b6127f2836127bf565b946020939093013593505050565b634e487b7160e01b600052604160045260246000fd5b600082601f83011261282757600080fd5b813567ffffffffffffffff8082111561284257612842612800565b604051601f8301601f19908116603f0116810190828211818310171561286a5761286a612800565b8160405283815286602085880101111561288357600080fd5b836020870160208301376000602085830101528094505050505092915050565b600080600080600060a086880312156128bb57600080fd5b6128c4866127bf565b94506128d2602087016127bf565b9350604086013567ffffffffffffffff8111156128ee57600080fd5b6128fa88828901612816565b935050612909606087016126c7565b949793965091946080013592915050565b60008060006060848603121561292f57600080fd5b612938846127bf565b9250612946602085016127bf565b9150604084013590509250925092565b6000806040838503121561296957600080fd5b612972836126c7565b9150612703602084016127bf565b60006020828403121561299257600080fd5b61273f826126c7565b6001600160a01b0388811682528716602082015260e0604082018190526000906129c790830188612746565b61ffff968716606084015294909516608082015260a0810192909252151560c090910152949350505050565b600060208284031215612a0557600080fd5b61273f826127bf565b600060208284031215612a2057600080fd5b813567ffffffffffffffff811115612a3757600080fd5b6115fc84828501612816565b8035801515811461187a57600080fd5b60008060408385031215612a6657600080fd5b612a6f836127bf565b915061270360208401612a43565b60008060408385031215612a9057600080fd5b612a99836126c7565b9150602083013567ffffffffffffffff811115612ab557600080fd5b612ac185828601612816565b9150509250929050565b60008060008060808587031215612ae157600080fd5b612aea856127bf565b9350612af8602086016127bf565b925060408501359150606085013567ffffffffffffffff811115612b1b57600080fd5b612b2787828801612816565b91505092959194509250565b600080600060608486031215612b4857600080fd5b612b51846126c7565b9250612b5f602085016126c7565b9150604084013567ffffffffffffffff811115612b7b57600080fd5b612b8786828701612816565b9150509250925092565b60008060408385031215612ba457600080fd5b612972836127bf565b60008060408385031215612bc057600080fd5b6127f2836126c7565b60008060408385031215612bdc57600080fd5b612a6f836126c7565b600181811c90821680612bf957607f821691505b60208210811415612c1a57634e487b7160e01b600052602260045260246000fd5b50919050565b6020808252818101527f4f776e61626c653a2063616c6c6572206973206e6f7420746865206f776e6572604082015260600190565b6001600160a01b0387811682528616602082015261ffff851660408201526060810184905260c060808201819052600090612c9290830185612746565b905082151560a0830152979650505050505050565b634e487b7160e01b600052601160045260246000fd5b600061ffff808316818516808303821115612cda57612cda612ca7565b01949350505050565b60208082526031908201527f4552433732313a207472616e736665722063616c6c6572206973206e6f74206f6040820152701ddb995c881b9bdc88185c1c1c9bdd9959607a1b606082015260800190565b600082612d5157634e487b7160e01b600052601260045260246000fd5b500490565b600082821015612d6857612d68612ca7565b500390565b60008219821115612d8057612d80612ca7565b500190565b6020808252602e908201527f496e697469616c697a61626c653a20636f6e747261637420697320616c72656160408201526d191e481a5b9a5d1a585b1a5e995960921b606082015260800190565b6020808252602b908201527f496e697469616c697a61626c653a20636f6e7472616374206973206e6f74206960408201526a6e697469616c697a696e6760a81b606082015260800190565b600061ffff80831681851681830481118215151615612e3f57612e3f612ca7565b02949350505050565b60208082526032908201527f4552433732313a207472616e7366657220746f206e6f6e20455243373231526560408201527131b2b4bb32b91034b6b83632b6b2b73a32b960711b606082015260800190565b6001600160a01b0385811682528416602082015260408101839052608060608201819052600090612ecd90830184612746565b9695505050505050565b600060208284031215612ee957600080fd5b815161273f8161270c565b634e487b7160e01b600052602160045260246000fdfea2646970667358221220ad3ccfe838f5ee1e67cc2d8a009738e064eb64b90878a191cdd66443ea98444d64736f6c63430008090033",
  "devdoc": {
    "kind": "dev",
    "methods": {
      "approve(address,uint256)": {
        "details": "See {IERC721-approve}."
      },
      "balanceOf(address)": {
        "details": "See {IERC721-balanceOf}."
      },
      "getApproved(uint256)": {
        "details": "See {IERC721-getApproved}."
      },
      "isApprovedForAll(address,address)": {
        "details": "See {IERC721-isApprovedForAll}."
      },
      "name()": {
        "details": "See {IERC721Metadata-name}."
      },
      "owner()": {
        "details": "Returns the address of the current owner."
      },
      "ownerOf(uint256)": {
        "details": "See {IERC721-ownerOf}."
      },
      "renounceOwnership()": {
        "details": "Leaves the contract without owner. It will not be possible to call `onlyOwner` functions anymore. Can only be called by the current owner. NOTE: Renouncing ownership will leave the contract without an owner, thereby removing any functionality that is only available to the owner."
      },
      "safeTransferFrom(address,address,uint256)": {
        "details": "See {IERC721-safeTransferFrom}."
      },
      "safeTransferFrom(address,address,uint256,bytes)": {
        "details": "See {IERC721-safeTransferFrom}."
      },
      "setApprovalForAll(address,bool)": {
        "details": "See {IERC721-setApprovalForAll}."
      },
      "supportsInterface(bytes4)": {
        "details": "See {IERC165-supportsInterface}."
      },
      "symbol()": {
        "details": "See {IERC721Metadata-symbol}."
      },
      "tokenURI(uint256)": {
        "details": "Returns an URI for a given token ID Throws if the token ID does not exist. May return an empty string.",
        "params": {
          "tokenId": "uint256 ID of the token to query"
        }
      },
      "transferFrom(address,address,uint256)": {
        "details": "See {IERC721-transferFrom}."
      },
      "transferOwnership(address)": {
        "details": "Transfers ownership of the contract to a new account (`newOwner`). Can only be called by the current owner."
      }
    },
    "version": 1
  },
  "userdoc": {
    "kind": "user",
    "methods": {},
    "version": 1
  },
  "storageLayout": {
    "storage": [
      {
        "astId": 130,
        "contract": "contracts/UndergroundArt.sol:UndergroundArt",
        "label": "_initialized",
        "offset": 0,
        "slot": "0",
        "type": "t_uint8"
      },
      {
        "astId": 133,
        "contract": "contracts/UndergroundArt.sol:UndergroundArt",
        "label": "_initializing",
        "offset": 1,
        "slot": "0",
        "type": "t_bool"
      },
      {
        "astId": 1601,
        "contract": "contracts/UndergroundArt.sol:UndergroundArt",
        "label": "__gap",
        "offset": 0,
        "slot": "1",
        "type": "t_array(t_uint256)50_storage"
      },
      {
        "astId": 2255,
        "contract": "contracts/UndergroundArt.sol:UndergroundArt",
        "label": "__gap",
        "offset": 0,
        "slot": "51",
        "type": "t_array(t_uint256)50_storage"
      },
      {
        "astId": 294,
        "contract": "contracts/UndergroundArt.sol:UndergroundArt",
        "label": "_name",
        "offset": 0,
        "slot": "101",
        "type": "t_string_storage"
      },
      {
        "astId": 296,
        "contract": "contracts/UndergroundArt.sol:UndergroundArt",
        "label": "_symbol",
        "offset": 0,
        "slot": "102",
        "type": "t_string_storage"
      },
      {
        "astId": 300,
        "contract": "contracts/UndergroundArt.sol:UndergroundArt",
        "label": "_owners",
        "offset": 0,
        "slot": "103",
        "type": "t_mapping(t_uint256,t_address)"
      },
      {
        "astId": 304,
        "contract": "contracts/UndergroundArt.sol:UndergroundArt",
        "label": "_balances",
        "offset": 0,
        "slot": "104",
        "type": "t_mapping(t_address,t_uint256)"
      },
      {
        "astId": 308,
        "contract": "contracts/UndergroundArt.sol:UndergroundArt",
        "label": "_tokenApprovals",
        "offset": 0,
        "slot": "105",
        "type": "t_mapping(t_uint256,t_address)"
      },
      {
        "astId": 314,
        "contract": "contracts/UndergroundArt.sol:UndergroundArt",
        "label": "_operatorApprovals",
        "offset": 0,
        "slot": "106",
        "type": "t_mapping(t_address,t_mapping(t_address,t_bool))"
      },
      {
        "astId": 1155,
        "contract": "contracts/UndergroundArt.sol:UndergroundArt",
        "label": "__gap",
        "offset": 0,
        "slot": "107",
        "type": "t_array(t_uint256)44_storage"
      },
      {
        "astId": 10,
        "contract": "contracts/UndergroundArt.sol:UndergroundArt",
        "label": "_owner",
        "offset": 0,
        "slot": "151",
        "type": "t_address"
      },
      {
        "astId": 122,
        "contract": "contracts/UndergroundArt.sol:UndergroundArt",
        "label": "__gap",
        "offset": 0,
        "slot": "152",
        "type": "t_array(t_uint256)49_storage"
      },
      {
        "astId": 2692,
        "contract": "contracts/UndergroundArt.sol:UndergroundArt",
        "label": "artProjects",
        "offset": 0,
        "slot": "201",
        "type": "t_mapping(t_uint16,t_struct(ArtProject)2629_storage)"
      },
      {
        "astId": 2696,
        "contract": "contracts/UndergroundArt.sol:UndergroundArt",
        "label": "usedSignatureHashes",
        "offset": 0,
        "slot": "202",
        "type": "t_mapping(t_bytes32,t_bool)"
      },
      {
        "astId": 2698,
        "contract": "contracts/UndergroundArt.sol:UndergroundArt",
        "label": "projectCount",
        "offset": 0,
        "slot": "203",
        "type": "t_uint16"
      },
      {
        "astId": 2702,
        "contract": "contracts/UndergroundArt.sol:UndergroundArt",
        "label": "allowlistedArtists",
        "offset": 0,
        "slot": "204",
        "type": "t_mapping(t_address,t_bool)"
      }
    ],
    "types": {
      "t_address": {
        "encoding": "inplace",
        "label": "address",
        "numberOfBytes": "20"
      },
      "t_array(t_uint256)44_storage": {
        "base": "t_uint256",
        "encoding": "inplace",
        "label": "uint256[44]",
        "numberOfBytes": "1408"
      },
      "t_array(t_uint256)49_storage": {
        "base": "t_uint256",
        "encoding": "inplace",
        "label": "uint256[49]",
        "numberOfBytes": "1568"
      },
      "t_array(t_uint256)50_storage": {
        "base": "t_uint256",
        "encoding": "inplace",
        "label": "uint256[50]",
        "numberOfBytes": "1600"
      },
      "t_bool": {
        "encoding": "inplace",
        "label": "bool",
        "numberOfBytes": "1"
      },
      "t_bytes32": {
        "encoding": "inplace",
        "label": "bytes32",
        "numberOfBytes": "32"
      },
      "t_mapping(t_address,t_bool)": {
        "encoding": "mapping",
        "key": "t_address",
        "label": "mapping(address => bool)",
        "numberOfBytes": "32",
        "value": "t_bool"
      },
      "t_mapping(t_address,t_mapping(t_address,t_bool))": {
        "encoding": "mapping",
        "key": "t_address",
        "label": "mapping(address => mapping(address => bool))",
        "numberOfBytes": "32",
        "value": "t_mapping(t_address,t_bool)"
      },
      "t_mapping(t_address,t_uint256)": {
        "encoding": "mapping",
        "key": "t_address",
        "label": "mapping(address => uint256)",
        "numberOfBytes": "32",
        "value": "t_uint256"
      },
      "t_mapping(t_bytes32,t_bool)": {
        "encoding": "mapping",
        "key": "t_bytes32",
        "label": "mapping(bytes32 => bool)",
        "numberOfBytes": "32",
        "value": "t_bool"
      },
      "t_mapping(t_uint16,t_struct(ArtProject)2629_storage)": {
        "encoding": "mapping",
        "key": "t_uint16",
        "label": "mapping(uint16 => struct UndergroundArt.ArtProject)",
        "numberOfBytes": "32",
        "value": "t_struct(ArtProject)2629_storage"
      },
      "t_mapping(t_uint256,t_address)": {
        "encoding": "mapping",
        "key": "t_uint256",
        "label": "mapping(uint256 => address)",
        "numberOfBytes": "32",
        "value": "t_address"
      },
      "t_string_storage": {
        "encoding": "bytes",
        "label": "string",
        "numberOfBytes": "32"
      },
      "t_struct(ArtProject)2629_storage": {
        "encoding": "inplace",
        "label": "struct UndergroundArt.ArtProject",
        "members": [
          {
            "astId": 2616,
            "contract": "contracts/UndergroundArt.sol:UndergroundArt",
            "label": "signerAddress",
            "offset": 0,
            "slot": "0",
            "type": "t_address"
          },
          {
            "astId": 2618,
            "contract": "contracts/UndergroundArt.sol:UndergroundArt",
            "label": "payoutAddress",
            "offset": 0,
            "slot": "1",
            "type": "t_address"
          },
          {
            "astId": 2620,
            "contract": "contracts/UndergroundArt.sol:UndergroundArt",
            "label": "metadataURI",
            "offset": 0,
            "slot": "2",
            "type": "t_string_storage"
          },
          {
            "astId": 2622,
            "contract": "contracts/UndergroundArt.sol:UndergroundArt",
            "label": "totalSupply",
            "offset": 0,
            "slot": "3",
            "type": "t_uint16"
          },
          {
            "astId": 2624,
            "contract": "contracts/UndergroundArt.sol:UndergroundArt",
            "label": "mintedCount",
            "offset": 2,
            "slot": "3",
            "type": "t_uint16"
          },
          {
            "astId": 2626,
            "contract": "contracts/UndergroundArt.sol:UndergroundArt",
            "label": "mintPrice",
            "offset": 0,
            "slot": "4",
            "type": "t_uint256"
          },
          {
            "astId": 2628,
            "contract": "contracts/UndergroundArt.sol:UndergroundArt",
            "label": "reuseableCodes",
            "offset": 0,
            "slot": "5",
            "type": "t_bool"
          }
        ],
        "numberOfBytes": "192"
      },
      "t_uint16": {
        "encoding": "inplace",
        "label": "uint16",
        "numberOfBytes": "2"
      },
      "t_uint256": {
        "encoding": "inplace",
        "label": "uint256",
        "numberOfBytes": "32"
      },
      "t_uint8": {
        "encoding": "inplace",
        "label": "uint8",
        "numberOfBytes": "1"
      }
    }
  }
}