{
  "address": "0x3fb95b90B564524d731De174C72B168f5AD7d130",
  "abi": [
    {
      "inputs": [],
      "stateMutability": "nonpayable",
      "type": "constructor"
    },
    {
      "anonymous": false,
      "inputs": [
        {
          "indexed": true,
          "internalType": "address",
          "name": "artist",
          "type": "address"
        },
        {
          "indexed": false,
          "internalType": "bool",
          "name": "enabled",
          "type": "bool"
        }
      ],
      "name": "AllowlistedArtist",
      "type": "event"
    },
    {
      "anonymous": false,
      "inputs": [
        {
          "indexed": true,
          "internalType": "address",
          "name": "owner",
          "type": "address"
        },
        {
          "indexed": true,
          "internalType": "address",
          "name": "approved",
          "type": "address"
        },
        {
          "indexed": true,
          "internalType": "uint256",
          "name": "tokenId",
          "type": "uint256"
        }
      ],
      "name": "Approval",
      "type": "event"
    },
    {
      "anonymous": false,
      "inputs": [
        {
          "indexed": true,
          "internalType": "address",
          "name": "owner",
          "type": "address"
        },
        {
          "indexed": true,
          "internalType": "address",
          "name": "operator",
          "type": "address"
        },
        {
          "indexed": false,
          "internalType": "bool",
          "name": "approved",
          "type": "bool"
        }
      ],
      "name": "ApprovalForAll",
      "type": "event"
    },
    {
      "anonymous": false,
      "inputs": [
        {
          "indexed": true,
          "internalType": "uint16",
          "name": "projectId",
          "type": "uint16"
        },
        {
          "indexed": false,
          "internalType": "address",
          "name": "artistAddress",
          "type": "address"
        },
        {
          "indexed": false,
          "internalType": "uint16",
          "name": "totalSupply",
          "type": "uint16"
        }
      ],
      "name": "DefinedProject",
      "type": "event"
    },
    {
      "anonymous": false,
      "inputs": [
        {
          "indexed": false,
          "internalType": "uint8",
          "name": "version",
          "type": "uint8"
        }
      ],
      "name": "Initialized",
      "type": "event"
    },
    {
      "anonymous": false,
      "inputs": [
        {
          "indexed": true,
          "internalType": "address",
          "name": "previousOwner",
          "type": "address"
        },
        {
          "indexed": true,
          "internalType": "address",
          "name": "newOwner",
          "type": "address"
        }
      ],
      "name": "OwnershipTransferred",
      "type": "event"
    },
    {
      "anonymous": false,
      "inputs": [
        {
          "indexed": true,
          "internalType": "address",
          "name": "from",
          "type": "address"
        },
        {
          "indexed": true,
          "internalType": "address",
          "name": "to",
          "type": "address"
        },
        {
          "indexed": true,
          "internalType": "uint256",
          "name": "tokenId",
          "type": "uint256"
        }
      ],
      "name": "Transfer",
      "type": "event"
    },
    {
      "inputs": [
        {
          "internalType": "address",
          "name": "",
          "type": "address"
        }
      ],
      "name": "allowlistedArtists",
      "outputs": [
        {
          "internalType": "bool",
          "name": "",
          "type": "bool"
        }
      ],
      "stateMutability": "view",
      "type": "function"
    },
    {
      "inputs": [
        {
          "internalType": "address",
          "name": "to",
          "type": "address"
        },
        {
          "internalType": "uint256",
          "name": "tokenId",
          "type": "uint256"
        }
      ],
      "name": "approve",
      "outputs": [],
      "stateMutability": "nonpayable",
      "type": "function"
    },
    {
      "inputs": [
        {
          "internalType": "uint16",
          "name": "",
          "type": "uint16"
        }
      ],
      "name": "artProjects",
      "outputs": [
        {
          "internalType": "address",
          "name": "artistAddress",
          "type": "address"
        },
        {
          "internalType": "string",
          "name": "metadataURI",
          "type": "string"
        },
        {
          "internalType": "uint16",
          "name": "totalSupply",
          "type": "uint16"
        },
        {
          "internalType": "uint16",
          "name": "mintedCount",
          "type": "uint16"
        },
        {
          "internalType": "uint256",
          "name": "mintPrice",
          "type": "uint256"
        }
      ],
      "stateMutability": "view",
      "type": "function"
    },
    {
      "inputs": [
        {
          "internalType": "address",
          "name": "owner",
          "type": "address"
        }
      ],
      "name": "balanceOf",
      "outputs": [
        {
          "internalType": "uint256",
          "name": "",
          "type": "uint256"
        }
      ],
      "stateMutability": "view",
      "type": "function"
    },
    {
      "inputs": [
        {
          "internalType": "address",
          "name": "_artistAddress",
          "type": "address"
        },
        {
          "internalType": "string",
          "name": "_metadataURI",
          "type": "string"
        },
        {
          "internalType": "uint16",
          "name": "_totalSupply",
          "type": "uint16"
        },
        {
          "internalType": "uint256",
          "name": "_mintPrice",
          "type": "uint256"
        }
      ],
      "name": "defineProject",
      "outputs": [],
      "stateMutability": "nonpayable",
      "type": "function"
    },
    {
      "inputs": [
        {
          "internalType": "uint256",
          "name": "tokenId",
          "type": "uint256"
        }
      ],
      "name": "getApproved",
      "outputs": [
        {
          "internalType": "address",
          "name": "",
          "type": "address"
        }
      ],
      "stateMutability": "view",
      "type": "function"
    },
    {
      "inputs": [
        {
          "internalType": "uint256",
          "name": "tokenId",
          "type": "uint256"
        }
      ],
      "name": "getProjectIdFromTokenId",
      "outputs": [
        {
          "internalType": "uint16",
          "name": "",
          "type": "uint16"
        }
      ],
      "stateMutability": "view",
      "type": "function"
    },
    {
      "inputs": [
        {
          "internalType": "uint16",
          "name": "projectId",
          "type": "uint16"
        },
        {
          "internalType": "uint16",
          "name": "nonce",
          "type": "uint16"
        }
      ],
      "name": "getTypeHash",
      "outputs": [
        {
          "internalType": "bytes32",
          "name": "",
          "type": "bytes32"
        }
      ],
      "stateMutability": "view",
      "type": "function"
    },
    {
      "inputs": [],
      "name": "initialize",
      "outputs": [],
      "stateMutability": "nonpayable",
      "type": "function"
    },
    {
      "inputs": [
        {
          "internalType": "address",
          "name": "owner",
          "type": "address"
        },
        {
          "internalType": "address",
          "name": "operator",
          "type": "address"
        }
      ],
      "name": "isApprovedForAll",
      "outputs": [
        {
          "internalType": "bool",
          "name": "",
          "type": "bool"
        }
      ],
      "stateMutability": "view",
      "type": "function"
    },
    {
      "inputs": [
        {
          "internalType": "uint16",
          "name": "_projectId",
          "type": "uint16"
        },
        {
          "internalType": "uint16",
          "name": "_nonce",
          "type": "uint16"
        },
        {
          "internalType": "bytes",
          "name": "_signature",
          "type": "bytes"
        }
      ],
      "name": "mintToken",
      "outputs": [],
      "stateMutability": "payable",
      "type": "function"
    },
    {
      "inputs": [
        {
          "internalType": "bytes",
          "name": "_secretMessage",
          "type": "bytes"
        }
      ],
      "name": "mintTokenFromSecretMessage",
      "outputs": [],
      "stateMutability": "payable",
      "type": "function"
    },
    {
      "inputs": [
        {
          "internalType": "uint16",
          "name": "projectId",
          "type": "uint16"
        },
        {
          "internalType": "string",
          "name": "_metadataURI",
          "type": "string"
        }
      ],
      "name": "modifyProjectMetadata",
      "outputs": [],
      "stateMutability": "nonpayable",
      "type": "function"
    },
    {
      "inputs": [
        {
          "internalType": "uint16",
          "name": "projectId",
          "type": "uint16"
        },
        {
          "internalType": "uint256",
          "name": "_mintPrice",
          "type": "uint256"
        }
      ],
      "name": "modifyProjectMintPrice",
      "outputs": [],
      "stateMutability": "nonpayable",
      "type": "function"
    },
    {
      "inputs": [],
      "name": "name",
      "outputs": [
        {
          "internalType": "string",
          "name": "",
          "type": "string"
        }
      ],
      "stateMutability": "view",
      "type": "function"
    },
    {
      "inputs": [],
      "name": "owner",
      "outputs": [
        {
          "internalType": "address",
          "name": "",
          "type": "address"
        }
      ],
      "stateMutability": "view",
      "type": "function"
    },
    {
      "inputs": [
        {
          "internalType": "uint256",
          "name": "tokenId",
          "type": "uint256"
        }
      ],
      "name": "ownerOf",
      "outputs": [
        {
          "internalType": "address",
          "name": "",
          "type": "address"
        }
      ],
      "stateMutability": "view",
      "type": "function"
    },
    {
      "inputs": [],
      "name": "renounceOwnership",
      "outputs": [],
      "stateMutability": "nonpayable",
      "type": "function"
    },
    {
      "inputs": [
        {
          "internalType": "address",
          "name": "from",
          "type": "address"
        },
        {
          "internalType": "address",
          "name": "to",
          "type": "address"
        },
        {
          "internalType": "uint256",
          "name": "tokenId",
          "type": "uint256"
        }
      ],
      "name": "safeTransferFrom",
      "outputs": [],
      "stateMutability": "nonpayable",
      "type": "function"
    },
    {
      "inputs": [
        {
          "internalType": "address",
          "name": "from",
          "type": "address"
        },
        {
          "internalType": "address",
          "name": "to",
          "type": "address"
        },
        {
          "internalType": "uint256",
          "name": "tokenId",
          "type": "uint256"
        },
        {
          "internalType": "bytes",
          "name": "_data",
          "type": "bytes"
        }
      ],
      "name": "safeTransferFrom",
      "outputs": [],
      "stateMutability": "nonpayable",
      "type": "function"
    },
    {
      "inputs": [
        {
          "internalType": "address",
          "name": "operator",
          "type": "address"
        },
        {
          "internalType": "bool",
          "name": "approved",
          "type": "bool"
        }
      ],
      "name": "setApprovalForAll",
      "outputs": [],
      "stateMutability": "nonpayable",
      "type": "function"
    },
    {
      "inputs": [
        {
          "internalType": "address",
          "name": "artistAddress",
          "type": "address"
        },
        {
          "internalType": "bool",
          "name": "enabled",
          "type": "bool"
        }
      ],
      "name": "setArtistAllowlisted",
      "outputs": [],
      "stateMutability": "nonpayable",
      "type": "function"
    },
    {
      "inputs": [
        {
          "internalType": "bytes",
          "name": "_signature",
          "type": "bytes"
        }
      ],
      "name": "signatureHasBeenUsed",
      "outputs": [
        {
          "internalType": "bool",
          "name": "",
          "type": "bool"
        }
      ],
      "stateMutability": "view",
      "type": "function"
    },
    {
      "inputs": [
        {
          "internalType": "bytes4",
          "name": "interfaceId",
          "type": "bytes4"
        }
      ],
      "name": "supportsInterface",
      "outputs": [
        {
          "internalType": "bool",
          "name": "",
          "type": "bool"
        }
      ],
      "stateMutability": "view",
      "type": "function"
    },
    {
      "inputs": [],
      "name": "symbol",
      "outputs": [
        {
          "internalType": "string",
          "name": "",
          "type": "string"
        }
      ],
      "stateMutability": "view",
      "type": "function"
    },
    {
      "inputs": [
        {
          "internalType": "uint256",
          "name": "tokenId",
          "type": "uint256"
        }
      ],
      "name": "tokenURI",
      "outputs": [
        {
          "internalType": "string",
          "name": "",
          "type": "string"
        }
      ],
      "stateMutability": "view",
      "type": "function"
    },
    {
      "inputs": [
        {
          "internalType": "address",
          "name": "from",
          "type": "address"
        },
        {
          "internalType": "address",
          "name": "to",
          "type": "address"
        },
        {
          "internalType": "uint256",
          "name": "tokenId",
          "type": "uint256"
        }
      ],
      "name": "transferFrom",
      "outputs": [],
      "stateMutability": "nonpayable",
      "type": "function"
    },
    {
      "inputs": [
        {
          "internalType": "address",
          "name": "newOwner",
          "type": "address"
        }
      ],
      "name": "transferOwnership",
      "outputs": [],
      "stateMutability": "nonpayable",
      "type": "function"
    },
    {
      "inputs": [
        {
          "internalType": "bytes32",
          "name": "",
          "type": "bytes32"
        }
      ],
      "name": "usedSignatureHashes",
      "outputs": [
        {
          "internalType": "bool",
          "name": "",
          "type": "bool"
        }
      ],
      "stateMutability": "view",
      "type": "function"
    }
  ],
  "transactionHash": "0x88db457eb1c2b1e633d1d48efc6e0238cfe6ddd8d7c47c86896292feddf632f7",
  "args": [],
  "solcInputHash": "6afb07d5ec2ece3ac5629afa8f812fe7",
  "bytecode": "0x60a060405261271060805234801561001657600080fd5b50608051612b1f61003960003960008181610a05015261172c0152612b1f6000f3fe6080604052600436106101c25760003560e01c80638da5cb5b116100f7578063c87b56dd11610095578063e985e9c511610064578063e985e9c514610535578063f07c71a41461057e578063f2fde38b1461059e578063f6e7516f146105be57600080fd5b8063c87b56dd146104c2578063d46098f4146104e2578063e81290da146104f5578063e8bd1bb21461051557600080fd5b8063a22cb465116100d1578063a22cb4651461042a578063a5135a741461044a578063ad186a4414610482578063b88d4fde146104a257600080fd5b80638da5cb5b146103e457806395d89b41146104025780639a1552df1461041757600080fd5b806344616a791161016457806370a082311161013e57806370a082311461036a578063715018a61461038a5780638129fc1c1461039f5780638d54a10c146103b457600080fd5b806344616a79146102e65780635d89170d146103175780636352211e1461034a57600080fd5b8063081812fc116101a0578063081812fc1461024c578063095ea7b31461028457806323b872dd146102a657806342842e0e146102c657600080fd5b8063011e84ca146101c757806301ffc9a7146101fa57806306fdde031461022a575b600080fd5b3480156101d357600080fd5b506101e76101e2366004612366565b6105ee565b6040519081526020015b60405180910390f35b34801561020657600080fd5b5061021a6102153660046123af565b610651565b60405190151581526020016101f1565b34801561023657600080fd5b5061023f6106a3565b6040516101f19190612420565b34801561025857600080fd5b5061026c610267366004612433565b610735565b6040516001600160a01b0390911681526020016101f1565b34801561029057600080fd5b506102a461029f366004612463565b6107cf565b005b3480156102b257600080fd5b506102a46102c136600461248d565b6108e5565b3480156102d257600080fd5b506102a46102e136600461248d565b610916565b3480156102f257600080fd5b506103066103013660046124c9565b610931565b6040516101f19594939291906124e4565b34801561032357600080fd5b50610337610332366004612433565b6109fb565b60405161ffff90911681526020016101f1565b34801561035657600080fd5b5061026c610365366004612433565b610a2b565b34801561037657600080fd5b506101e7610385366004612527565b610aa2565b34801561039657600080fd5b506102a4610b29565b3480156103ab57600080fd5b506102a4610b5f565b3480156103c057600080fd5b5061021a6103cf366004612433565b60ca6020526000908152604090205460ff1681565b3480156103f057600080fd5b506097546001600160a01b031661026c565b34801561040e57600080fd5b5061023f610c1e565b6102a46104253660046125e5565b610c2d565b34801561043657600080fd5b506102a461044536600461261a565b610c6b565b34801561045657600080fd5b5061021a6104653660046125e5565b8051602091820120600090815260ca909152604090205460ff1690565b34801561048e57600080fd5b506102a461049d366004612656565b610c7a565b3480156104ae57600080fd5b506102a46104bd3660046126a4565b610d30565b3480156104ce57600080fd5b5061023f6104dd366004612433565b610d62565b6102a46104f036600461270c565b610e3c565b34801561050157600080fd5b506102a461051036600461276a565b610e48565b34801561052157600080fd5b506102a461053036600461261a565b610ff0565b34801561054157600080fd5b5061021a6105503660046127d0565b6001600160a01b039182166000908152606a6020908152604080832093909416825291909152205460ff1690565b34801561058a57600080fd5b506102a46105993660046127fa565b611079565b3480156105aa57600080fd5b506102a46105b9366004612527565b611120565b3480156105ca57600080fd5b5061021a6105d9366004612527565b60cc6020526000908152604090205460ff1681565b604080517f2dd0d51444baed7a92c44a66999b64a48ae0db80accf1941d68ba05bcb3ff6eb602082015261ffff80851692820192909252908216606082015260009060800160405160208183030381529060405280519060200120905092915050565b60006001600160e01b031982166380ac58cd60e01b148061068257506001600160e01b03198216635b5e139f60e01b145b8061069d57506301ffc9a760e01b6001600160e01b03198316145b92915050565b6060606580546106b290612816565b80601f01602080910402602001604051908101604052809291908181526020018280546106de90612816565b801561072b5780601f106107005761010080835404028352916020019161072b565b820191906000526020600020905b81548152906001019060200180831161070e57829003601f168201915b5050505050905090565b6000818152606760205260408120546001600160a01b03166107b35760405162461bcd60e51b815260206004820152602c60248201527f4552433732313a20617070726f76656420717565727920666f72206e6f6e657860448201526b34b9ba32b73a103a37b5b2b760a11b60648201526084015b60405180910390fd5b506000908152606960205260409020546001600160a01b031690565b60006107da82610a2b565b9050806001600160a01b0316836001600160a01b031614156108485760405162461bcd60e51b815260206004820152602160248201527f4552433732313a20617070726f76616c20746f2063757272656e74206f776e656044820152603960f91b60648201526084016107aa565b336001600160a01b038216148061086457506108648133610550565b6108d65760405162461bcd60e51b815260206004820152603860248201527f4552433732313a20617070726f76652063616c6c6572206973206e6f74206f7760448201527f6e6572206e6f7220617070726f76656420666f7220616c6c000000000000000060648201526084016107aa565b6108e083836111b8565b505050565b6108ef3382611226565b61090b5760405162461bcd60e51b81526004016107aa90612851565b6108e083838361131d565b6108e083838360405180602001604052806000815250610d30565b60c960205260009081526040902080546001820180546001600160a01b03909216929161095d90612816565b80601f016020809104026020016040519081016040528092919081815260200182805461098990612816565b80156109d65780601f106109ab576101008083540402835291602001916109d6565b820191906000526020600020905b8154815290600101906020018083116109b957829003601f168201915b505050506002830154600390930154919261ffff808216936201000090920416915085565b600061069d61ffff7f000000000000000000000000000000000000000000000000000000000000000016836128b8565b6000818152606760205260408120546001600160a01b03168061069d5760405162461bcd60e51b815260206004820152602960248201527f4552433732313a206f776e657220717565727920666f72206e6f6e657869737460448201526832b73a103a37b5b2b760b91b60648201526084016107aa565b60006001600160a01b038216610b0d5760405162461bcd60e51b815260206004820152602a60248201527f4552433732313a2062616c616e636520717565727920666f7220746865207a65604482015269726f206164647265737360b01b60648201526084016107aa565b506001600160a01b031660009081526068602052604090205490565b6097546001600160a01b03163314610b535760405162461bcd60e51b81526004016107aa906128da565b610b5d60006114b9565b565b6000610b6b600161150b565b90508015610b83576000805461ff0019166101001790555b610b8b611598565b610bd56040518060400160405280600e81526020016d155b99195c99dc9bdd5b99105c9d60921b81525060405180604001604052806002815260200161554160f01b8152506115c7565b8015610c1b576000805461ff0019169055604051600181527f7f26b83ff96e1f2b6a682f133852f6798a09c465da95921460cefb38474024989060200160405180910390a15b50565b6060606680546106b290612816565b8051604514610c3b57600080fd5b600281015160048083015190606090610c5790859060416115f8565b9050610c6533848484611705565b50505050565b610c763383836119e1565b5050565b61ffff8216600090815260c960205260409020546001600160a01b0316610ca96097546001600160a01b031690565b6001600160a01b0316336001600160a01b03161480610cea575033600090815260cc602052604090205460ff168015610cea5750336001600160a01b038216145b610d065760405162461bcd60e51b81526004016107aa906128da565b61ffff8316600090815260c9602090815260409091208351610c65926001909201918501906122bb565b610d3a3383611226565b610d565760405162461bcd60e51b81526004016107aa90612851565b610c6584848484611ab0565b6000818152606760205260409020546060906001600160a01b0316610d8657600080fd5b6000610d91836109fb565b61ffff8116600090815260c960205260409020600101805491925090610db690612816565b80601f0160208091040260200160405190810160405280929190818152602001828054610de290612816565b8015610e2f5780601f10610e0457610100808354040283529160200191610e2f565b820191906000526020600020905b815481529060010190602001808311610e1257829003601f168201915b5050505050915050919050565b6108e033848484611705565b83610e5b6097546001600160a01b031690565b6001600160a01b0316336001600160a01b03161480610e9c575033600090815260cc602052604090205460ff168015610e9c5750336001600160a01b038216145b610eb85760405162461bcd60e51b81526004016107aa906128da565b6040805160a0810182526001600160a01b038781168252602080830188815261ffff888116858701526000606086018190526080860189905260cb54909116815260c9835294909420835181546001600160a01b03191693169290921782559251805192939192610f2f92600185019201906122bb565b50604082810151600283018054606086015161ffff908116620100000263ffffffff199092169381169390931717905560809093015160039092019190915560cb5481516001600160a01b038916815286841660208201529216917fe5ed1e9b90cf13e3117e90db99b9f6ab9f686f0fba6070659ae45f73a1739b37910160405180910390a260cb805460019190600090610fcf90849061ffff1661290f565b92506101000a81548161ffff021916908361ffff1602179055505050505050565b6097546001600160a01b0316331461101a5760405162461bcd60e51b81526004016107aa906128da565b6001600160a01b038216600081815260cc6020908152604091829020805460ff191685151590811790915591519182527fe5b1e837b96fd584f8365844dbf00f4364cdd776530b6a93e1fa5481b485c1ed910160405180910390a25050565b61ffff8216600090815260c960205260409020546001600160a01b03166110a86097546001600160a01b031690565b6001600160a01b0316336001600160a01b031614806110e9575033600090815260cc602052604090205460ff1680156110e95750336001600160a01b038216145b6111055760405162461bcd60e51b81526004016107aa906128da565b5061ffff909116600090815260c96020526040902060030155565b6097546001600160a01b0316331461114a5760405162461bcd60e51b81526004016107aa906128da565b6001600160a01b0381166111af5760405162461bcd60e51b815260206004820152602660248201527f4f776e61626c653a206e6577206f776e657220697320746865207a65726f206160448201526564647265737360d01b60648201526084016107aa565b610c1b816114b9565b600081815260696020526040902080546001600160a01b0319166001600160a01b03841690811790915581906111ed82610a2b565b6001600160a01b03167f8c5be1e5ebec7d5bd14f71427d1e84f3dd0314c0f7b2291e5b200ac8c7c3b92560405160405180910390a45050565b6000818152606760205260408120546001600160a01b031661129f5760405162461bcd60e51b815260206004820152602c60248201527f4552433732313a206f70657261746f7220717565727920666f72206e6f6e657860448201526b34b9ba32b73a103a37b5b2b760a11b60648201526084016107aa565b60006112aa83610a2b565b9050806001600160a01b0316846001600160a01b031614806112f157506001600160a01b038082166000908152606a602090815260408083209388168352929052205460ff165b806113155750836001600160a01b031661130a84610735565b6001600160a01b0316145b949350505050565b826001600160a01b031661133082610a2b565b6001600160a01b0316146113945760405162461bcd60e51b815260206004820152602560248201527f4552433732313a207472616e736665722066726f6d20696e636f72726563742060448201526437bbb732b960d91b60648201526084016107aa565b6001600160a01b0382166113f65760405162461bcd60e51b8152602060048201526024808201527f4552433732313a207472616e7366657220746f20746865207a65726f206164646044820152637265737360e01b60648201526084016107aa565b6114016000826111b8565b6001600160a01b038316600090815260686020526040812080546001929061142a908490612935565b90915550506001600160a01b038216600090815260686020526040812080546001929061145890849061294c565b909155505060008181526067602052604080822080546001600160a01b0319166001600160a01b0386811691821790925591518493918716917fddf252ad1be2c89b69c2b068fc378daa952ba7f163c4a11628f55a4df523b3ef91a4505050565b609780546001600160a01b038381166001600160a01b0319831681179093556040519116919082907f8be0079c531659141344cd1fd0a4f28419497f9722a3daafe3b4186f6b6457e090600090a35050565b60008054610100900460ff1615611552578160ff16600114801561152e5750303b155b61154a5760405162461bcd60e51b81526004016107aa90612964565b506000919050565b60005460ff8084169116106115795760405162461bcd60e51b81526004016107aa90612964565b506000805460ff191660ff92909216919091179055600190565b919050565b600054610100900460ff166115bf5760405162461bcd60e51b81526004016107aa906129b2565b610b5d611ae3565b600054610100900460ff166115ee5760405162461bcd60e51b81526004016107aa906129b2565b610c768282611b13565b60608161160681601f61294c565b10156116455760405162461bcd60e51b815260206004820152600e60248201526d736c6963655f6f766572666c6f7760901b60448201526064016107aa565b61164f828461294c565b845110156116935760405162461bcd60e51b8152602060048201526011602482015270736c6963655f6f75744f66426f756e647360781b60448201526064016107aa565b6060821580156116b257604051915060008252602082016040526116fc565b6040519150601f8416801560200281840101858101878315602002848b0101015b818310156116eb5780518352602092830192016116d3565b5050858452601f01601f1916604052505b50949350505050565b61ffff808416600090815260c96020526040812060020154909162010000909104166117517f0000000000000000000000000000000000000000000000000000000000000000866129fd565b61175b919061290f565b61ffff858116600090815260c9602052604090206002908101805493831694506001939092611793918591620100009091041661290f565b82546101009290920a61ffff818102199093169183160217909155858116600090815260c9602052604090206002015480821662010000909104909116111590506118375760405162461bcd60e51b815260206004820152602e60248201527f546f74616c20737570706c7920686173206265656e206d696e74656420666f7260448201526d103a3434b990383937b532b1ba1760911b60648201526084016107aa565b611858828051602091820120600090815260ca909152604090205460ff1690565b156118995760405162461bcd60e51b815260206004820152601160248201527010dbd91948185b1c9958591e481d5cd959607a1b60448201526064016107aa565b8151602080840191909120600090815260ca82526040808220805460ff1916600117905561ffff8716825260c990925220546118e0906001600160a01b0316858585611b61565b6119205760405162461bcd60e51b815260206004820152601160248201527014da59db985d1d5c99481a5b9d985b1a59607a1b60448201526064016107aa565b61192a8582611cad565b61ffff8416600090815260c96020526040902060030154341461198f5760405162461bcd60e51b815260206004820152601860248201527f496e76616c6964207061796d656e7420666f72206d696e74000000000000000060448201526064016107aa565b61ffff8416600090815260c960205260408082205490516001600160a01b03909116913480156108fc02929091818181858888f193505050501580156119d9573d6000803e3d6000fd5b505050505050565b816001600160a01b0316836001600160a01b03161415611a435760405162461bcd60e51b815260206004820152601960248201527f4552433732313a20617070726f766520746f2063616c6c65720000000000000060448201526064016107aa565b6001600160a01b038381166000818152606a6020908152604080832094871680845294825291829020805460ff191686151590811790915591519182527f17307eab39ab6107e8899845ad3d59bd9653f200f220920489ca2b5937696c31910160405180910390a3505050565b611abb84848461131d565b611ac784848484611cc7565b610c655760405162461bcd60e51b81526004016107aa90612a27565b600054610100900460ff16611b0a5760405162461bcd60e51b81526004016107aa906129b2565b610b5d336114b9565b600054610100900460ff16611b3a5760405162461bcd60e51b81526004016107aa906129b2565b8151611b4d9060659060208501906122bb565b5080516108e09060669060208401906122bb565b600080611b6e85856105ee565b90506000611c4c604080518082018252600e81526d155b99195c99dc9bdd5b99105c9d60921b6020918201528151808301835260038152620312e360ec1b9082015281517f8b73c3c69bb8fe3d512ecc4cf759cc79239f7b179b0ffacaa9a75d522b39400f818301527f89c61ec07304ec3de6b5995fa016c5cb21aaf852a7c84c6dd1c8b4cbfbf52b75818401527fe6bbd6277e1bf288eed5e8d1780f9a50b239e86b153736bceebccf4ea79d90b360608201524660808201523060a0808301919091528351808303909101815260c0909101909252815191012090565b60405161190160f01b6020820152602281019190915260428101839052606201604051602081830303815290604052805190602001209050866001600160a01b0316611c988286611dd1565b6001600160a01b031614979650505050505050565b610c76828260405180602001604052806000815250611df5565b60006001600160a01b0384163b15611dc957604051630a85bd0160e11b81526001600160a01b0385169063150b7a0290611d0b903390899088908890600401612a79565b602060405180830381600087803b158015611d2557600080fd5b505af1925050508015611d55575060408051601f3d908101601f19168201909252611d5291810190612ab6565b60015b611daf573d808015611d83576040519150601f19603f3d011682016040523d82523d6000602084013e611d88565b606091505b508051611da75760405162461bcd60e51b81526004016107aa90612a27565b805181602001fd5b6001600160e01b031916630a85bd0160e11b149050611315565b506001611315565b6000806000611de08585611e28565b91509150611ded81611e98565b509392505050565b611dff8383612053565b611e0c6000848484611cc7565b6108e05760405162461bcd60e51b81526004016107aa90612a27565b600080825160411415611e5f5760208301516040840151606085015160001a611e5387828585612195565b94509450505050611e91565b825160401415611e895760208301516040840151611e7e868383612282565b935093505050611e91565b506000905060025b9250929050565b6000816004811115611eac57611eac612ad3565b1415611eb55750565b6001816004811115611ec957611ec9612ad3565b1415611f175760405162461bcd60e51b815260206004820152601860248201527f45434453413a20696e76616c6964207369676e6174757265000000000000000060448201526064016107aa565b6002816004811115611f2b57611f2b612ad3565b1415611f795760405162461bcd60e51b815260206004820152601f60248201527f45434453413a20696e76616c6964207369676e6174757265206c656e6774680060448201526064016107aa565b6003816004811115611f8d57611f8d612ad3565b1415611fe65760405162461bcd60e51b815260206004820152602260248201527f45434453413a20696e76616c6964207369676e6174757265202773272076616c604482015261756560f01b60648201526084016107aa565b6004816004811115611ffa57611ffa612ad3565b1415610c1b5760405162461bcd60e51b815260206004820152602260248201527f45434453413a20696e76616c6964207369676e6174757265202776272076616c604482015261756560f01b60648201526084016107aa565b6001600160a01b0382166120a95760405162461bcd60e51b815260206004820181905260248201527f4552433732313a206d696e7420746f20746865207a65726f206164647265737360448201526064016107aa565b6000818152606760205260409020546001600160a01b03161561210e5760405162461bcd60e51b815260206004820152601c60248201527f4552433732313a20746f6b656e20616c7265616479206d696e7465640000000060448201526064016107aa565b6001600160a01b038216600090815260686020526040812080546001929061213790849061294c565b909155505060008181526067602052604080822080546001600160a01b0319166001600160a01b03861690811790915590518392907fddf252ad1be2c89b69c2b068fc378daa952ba7f163c4a11628f55a4df523b3ef908290a45050565b6000807f7fffffffffffffffffffffffffffffff5d576e7357a4501ddfe92f46681b20a08311156121cc5750600090506003612279565b8460ff16601b141580156121e457508460ff16601c14155b156121f55750600090506004612279565b6040805160008082526020820180845289905260ff881692820192909252606081018690526080810185905260019060a0016020604051602081039080840390855afa158015612249573d6000803e3d6000fd5b5050604051601f1901519150506001600160a01b03811661227257600060019250925050612279565b9150600090505b94509492505050565b6000806001600160ff1b0383168161229f60ff86901c601b61294c565b90506122ad87828885612195565b935093505050935093915050565b8280546122c790612816565b90600052602060002090601f0160209004810192826122e9576000855561232f565b82601f1061230257805160ff191683800117855561232f565b8280016001018555821561232f579182015b8281111561232f578251825591602001919060010190612314565b5061233b92915061233f565b5090565b5b8082111561233b5760008155600101612340565b803561ffff8116811461159357600080fd5b6000806040838503121561237957600080fd5b61238283612354565b915061239060208401612354565b90509250929050565b6001600160e01b031981168114610c1b57600080fd5b6000602082840312156123c157600080fd5b81356123cc81612399565b9392505050565b6000815180845260005b818110156123f9576020818501810151868301820152016123dd565b8181111561240b576000602083870101525b50601f01601f19169290920160200192915050565b6020815260006123cc60208301846123d3565b60006020828403121561244557600080fd5b5035919050565b80356001600160a01b038116811461159357600080fd5b6000806040838503121561247657600080fd5b61247f8361244c565b946020939093013593505050565b6000806000606084860312156124a257600080fd5b6124ab8461244c565b92506124b96020850161244c565b9150604084013590509250925092565b6000602082840312156124db57600080fd5b6123cc82612354565b6001600160a01b038616815260a060208201819052600090612508908301876123d3565b61ffff9586166040840152939094166060820152608001529392505050565b60006020828403121561253957600080fd5b6123cc8261244c565b634e487b7160e01b600052604160045260246000fd5b600082601f83011261256957600080fd5b813567ffffffffffffffff8082111561258457612584612542565b604051601f8301601f19908116603f011681019082821181831017156125ac576125ac612542565b816040528381528660208588010111156125c557600080fd5b836020870160208301376000602085830101528094505050505092915050565b6000602082840312156125f757600080fd5b813567ffffffffffffffff81111561260e57600080fd5b61131584828501612558565b6000806040838503121561262d57600080fd5b6126368361244c565b91506020830135801515811461264b57600080fd5b809150509250929050565b6000806040838503121561266957600080fd5b61267283612354565b9150602083013567ffffffffffffffff81111561268e57600080fd5b61269a85828601612558565b9150509250929050565b600080600080608085870312156126ba57600080fd5b6126c38561244c565b93506126d16020860161244c565b925060408501359150606085013567ffffffffffffffff8111156126f457600080fd5b61270087828801612558565b91505092959194509250565b60008060006060848603121561272157600080fd5b61272a84612354565b925061273860208501612354565b9150604084013567ffffffffffffffff81111561275457600080fd5b61276086828701612558565b9150509250925092565b6000806000806080858703121561278057600080fd5b6127898561244c565b9350602085013567ffffffffffffffff8111156127a557600080fd5b6127b187828801612558565b9350506127c060408601612354565b9396929550929360600135925050565b600080604083850312156127e357600080fd5b6127ec8361244c565b91506123906020840161244c565b6000806040838503121561280d57600080fd5b61247f83612354565b600181811c9082168061282a57607f821691505b6020821081141561284b57634e487b7160e01b600052602260045260246000fd5b50919050565b60208082526031908201527f4552433732313a207472616e736665722063616c6c6572206973206e6f74206f6040820152701ddb995c881b9bdc88185c1c1c9bdd9959607a1b606082015260800190565b634e487b7160e01b600052601160045260246000fd5b6000826128d557634e487b7160e01b600052601260045260246000fd5b500490565b6020808252818101527f4f776e61626c653a2063616c6c6572206973206e6f7420746865206f776e6572604082015260600190565b600061ffff80831681851680830382111561292c5761292c6128a2565b01949350505050565b600082821015612947576129476128a2565b500390565b6000821982111561295f5761295f6128a2565b500190565b6020808252602e908201527f496e697469616c697a61626c653a20636f6e747261637420697320616c72656160408201526d191e481a5b9a5d1a585b1a5e995960921b606082015260800190565b6020808252602b908201527f496e697469616c697a61626c653a20636f6e7472616374206973206e6f74206960408201526a6e697469616c697a696e6760a81b606082015260800190565b600061ffff80831681851681830481118215151615612a1e57612a1e6128a2565b02949350505050565b60208082526032908201527f4552433732313a207472616e7366657220746f206e6f6e20455243373231526560408201527131b2b4bb32b91034b6b83632b6b2b73a32b960711b606082015260800190565b6001600160a01b0385811682528416602082015260408101839052608060608201819052600090612aac908301846123d3565b9695505050505050565b600060208284031215612ac857600080fd5b81516123cc81612399565b634e487b7160e01b600052602160045260246000fdfea26469706673582212206304a8a2c3530d7a677c00372dbcb4b4b4702a66d5008c7e739655b08a9b78db64736f6c63430008090033",
  "devdoc": {
    "kind": "dev",
    "methods": {
      "approve(address,uint256)": {
        "details": "See {IERC721-approve}."
      },
      "balanceOf(address)": {
        "details": "See {IERC721-balanceOf}."
      },
      "getApproved(uint256)": {
        "details": "See {IERC721-getApproved}."
      },
      "isApprovedForAll(address,address)": {
        "details": "See {IERC721-isApprovedForAll}."
      },
      "name()": {
        "details": "See {IERC721Metadata-name}."
      },
      "owner()": {
        "details": "Returns the address of the current owner."
      },
      "ownerOf(uint256)": {
        "details": "See {IERC721-ownerOf}."
      },
      "renounceOwnership()": {
        "details": "Leaves the contract without owner. It will not be possible to call `onlyOwner` functions anymore. Can only be called by the current owner. NOTE: Renouncing ownership will leave the contract without an owner, thereby removing any functionality that is only available to the owner."
      },
      "safeTransferFrom(address,address,uint256)": {
        "details": "See {IERC721-safeTransferFrom}."
      },
      "safeTransferFrom(address,address,uint256,bytes)": {
        "details": "See {IERC721-safeTransferFrom}."
      },
      "setApprovalForAll(address,bool)": {
        "details": "See {IERC721-setApprovalForAll}."
      },
      "supportsInterface(bytes4)": {
        "details": "See {IERC165-supportsInterface}."
      },
      "symbol()": {
        "details": "See {IERC721Metadata-symbol}."
      },
      "tokenURI(uint256)": {
        "details": "Returns an URI for a given token ID Throws if the token ID does not exist. May return an empty string.",
        "params": {
          "tokenId": "uint256 ID of the token to query"
        }
      },
      "transferFrom(address,address,uint256)": {
        "details": "See {IERC721-transferFrom}."
      },
      "transferOwnership(address)": {
        "details": "Transfers ownership of the contract to a new account (`newOwner`). Can only be called by the current owner."
      }
    },
    "version": 1
  },
  "userdoc": {
    "kind": "user",
    "methods": {},
    "version": 1
  },
  "storageLayout": {
    "storage": [
      {
        "astId": 130,
        "contract": "contracts/UndergroundArt.sol:UndergroundArt",
        "label": "_initialized",
        "offset": 0,
        "slot": "0",
        "type": "t_uint8"
      },
      {
        "astId": 133,
        "contract": "contracts/UndergroundArt.sol:UndergroundArt",
        "label": "_initializing",
        "offset": 1,
        "slot": "0",
        "type": "t_bool"
      },
      {
        "astId": 1601,
        "contract": "contracts/UndergroundArt.sol:UndergroundArt",
        "label": "__gap",
        "offset": 0,
        "slot": "1",
        "type": "t_array(t_uint256)50_storage"
      },
      {
        "astId": 2255,
        "contract": "contracts/UndergroundArt.sol:UndergroundArt",
        "label": "__gap",
        "offset": 0,
        "slot": "51",
        "type": "t_array(t_uint256)50_storage"
      },
      {
        "astId": 294,
        "contract": "contracts/UndergroundArt.sol:UndergroundArt",
        "label": "_name",
        "offset": 0,
        "slot": "101",
        "type": "t_string_storage"
      },
      {
        "astId": 296,
        "contract": "contracts/UndergroundArt.sol:UndergroundArt",
        "label": "_symbol",
        "offset": 0,
        "slot": "102",
        "type": "t_string_storage"
      },
      {
        "astId": 300,
        "contract": "contracts/UndergroundArt.sol:UndergroundArt",
        "label": "_owners",
        "offset": 0,
        "slot": "103",
        "type": "t_mapping(t_uint256,t_address)"
      },
      {
        "astId": 304,
        "contract": "contracts/UndergroundArt.sol:UndergroundArt",
        "label": "_balances",
        "offset": 0,
        "slot": "104",
        "type": "t_mapping(t_address,t_uint256)"
      },
      {
        "astId": 308,
        "contract": "contracts/UndergroundArt.sol:UndergroundArt",
        "label": "_tokenApprovals",
        "offset": 0,
        "slot": "105",
        "type": "t_mapping(t_uint256,t_address)"
      },
      {
        "astId": 314,
        "contract": "contracts/UndergroundArt.sol:UndergroundArt",
        "label": "_operatorApprovals",
        "offset": 0,
        "slot": "106",
        "type": "t_mapping(t_address,t_mapping(t_address,t_bool))"
      },
      {
        "astId": 1155,
        "contract": "contracts/UndergroundArt.sol:UndergroundArt",
        "label": "__gap",
        "offset": 0,
        "slot": "107",
        "type": "t_array(t_uint256)44_storage"
      },
      {
        "astId": 10,
        "contract": "contracts/UndergroundArt.sol:UndergroundArt",
        "label": "_owner",
        "offset": 0,
        "slot": "151",
        "type": "t_address"
      },
      {
        "astId": 122,
        "contract": "contracts/UndergroundArt.sol:UndergroundArt",
        "label": "__gap",
        "offset": 0,
        "slot": "152",
        "type": "t_array(t_uint256)49_storage"
      },
      {
        "astId": 2644,
        "contract": "contracts/UndergroundArt.sol:UndergroundArt",
        "label": "artProjects",
        "offset": 0,
        "slot": "201",
        "type": "t_mapping(t_uint16,t_struct(ArtProject)2625_storage)"
      },
      {
        "astId": 2648,
        "contract": "contracts/UndergroundArt.sol:UndergroundArt",
        "label": "usedSignatureHashes",
        "offset": 0,
        "slot": "202",
        "type": "t_mapping(t_bytes32,t_bool)"
      },
      {
        "astId": 2650,
        "contract": "contracts/UndergroundArt.sol:UndergroundArt",
        "label": "projectCount",
        "offset": 0,
        "slot": "203",
        "type": "t_uint16"
      },
      {
        "astId": 2654,
        "contract": "contracts/UndergroundArt.sol:UndergroundArt",
        "label": "allowlistedArtists",
        "offset": 0,
        "slot": "204",
        "type": "t_mapping(t_address,t_bool)"
      }
    ],
    "types": {
      "t_address": {
        "encoding": "inplace",
        "label": "address",
        "numberOfBytes": "20"
      },
      "t_array(t_uint256)44_storage": {
        "base": "t_uint256",
        "encoding": "inplace",
        "label": "uint256[44]",
        "numberOfBytes": "1408"
      },
      "t_array(t_uint256)49_storage": {
        "base": "t_uint256",
        "encoding": "inplace",
        "label": "uint256[49]",
        "numberOfBytes": "1568"
      },
      "t_array(t_uint256)50_storage": {
        "base": "t_uint256",
        "encoding": "inplace",
        "label": "uint256[50]",
        "numberOfBytes": "1600"
      },
      "t_bool": {
        "encoding": "inplace",
        "label": "bool",
        "numberOfBytes": "1"
      },
      "t_bytes32": {
        "encoding": "inplace",
        "label": "bytes32",
        "numberOfBytes": "32"
      },
      "t_mapping(t_address,t_bool)": {
        "encoding": "mapping",
        "key": "t_address",
        "label": "mapping(address => bool)",
        "numberOfBytes": "32",
        "value": "t_bool"
      },
      "t_mapping(t_address,t_mapping(t_address,t_bool))": {
        "encoding": "mapping",
        "key": "t_address",
        "label": "mapping(address => mapping(address => bool))",
        "numberOfBytes": "32",
        "value": "t_mapping(t_address,t_bool)"
      },
      "t_mapping(t_address,t_uint256)": {
        "encoding": "mapping",
        "key": "t_address",
        "label": "mapping(address => uint256)",
        "numberOfBytes": "32",
        "value": "t_uint256"
      },
      "t_mapping(t_bytes32,t_bool)": {
        "encoding": "mapping",
        "key": "t_bytes32",
        "label": "mapping(bytes32 => bool)",
        "numberOfBytes": "32",
        "value": "t_bool"
      },
      "t_mapping(t_uint16,t_struct(ArtProject)2625_storage)": {
        "encoding": "mapping",
        "key": "t_uint16",
        "label": "mapping(uint16 => struct UndergroundArt.ArtProject)",
        "numberOfBytes": "32",
        "value": "t_struct(ArtProject)2625_storage"
      },
      "t_mapping(t_uint256,t_address)": {
        "encoding": "mapping",
        "key": "t_uint256",
        "label": "mapping(uint256 => address)",
        "numberOfBytes": "32",
        "value": "t_address"
      },
      "t_string_storage": {
        "encoding": "bytes",
        "label": "string",
        "numberOfBytes": "32"
      },
      "t_struct(ArtProject)2625_storage": {
        "encoding": "inplace",
        "label": "struct UndergroundArt.ArtProject",
        "members": [
          {
            "astId": 2616,
            "contract": "contracts/UndergroundArt.sol:UndergroundArt",
            "label": "artistAddress",
            "offset": 0,
            "slot": "0",
            "type": "t_address"
          },
          {
            "astId": 2618,
            "contract": "contracts/UndergroundArt.sol:UndergroundArt",
            "label": "metadataURI",
            "offset": 0,
            "slot": "1",
            "type": "t_string_storage"
          },
          {
            "astId": 2620,
            "contract": "contracts/UndergroundArt.sol:UndergroundArt",
            "label": "totalSupply",
            "offset": 0,
            "slot": "2",
            "type": "t_uint16"
          },
          {
            "astId": 2622,
            "contract": "contracts/UndergroundArt.sol:UndergroundArt",
            "label": "mintedCount",
            "offset": 2,
            "slot": "2",
            "type": "t_uint16"
          },
          {
            "astId": 2624,
            "contract": "contracts/UndergroundArt.sol:UndergroundArt",
            "label": "mintPrice",
            "offset": 0,
            "slot": "3",
            "type": "t_uint256"
          }
        ],
        "numberOfBytes": "128"
      },
      "t_uint16": {
        "encoding": "inplace",
        "label": "uint16",
        "numberOfBytes": "2"
      },
      "t_uint256": {
        "encoding": "inplace",
        "label": "uint256",
        "numberOfBytes": "32"
      },
      "t_uint8": {
        "encoding": "inplace",
        "label": "uint8",
        "numberOfBytes": "1"
      }
    }
  }
}