{
  "address": "0x117260bf642306C6f43Ad6c7eeAF394943bAdbbC",
  "abi": [
    {
      "inputs": [],
      "stateMutability": "nonpayable",
      "type": "constructor"
    },
    {
      "anonymous": false,
      "inputs": [
        {
          "indexed": true,
          "internalType": "address",
          "name": "artist",
          "type": "address"
        },
        {
          "indexed": false,
          "internalType": "bool",
          "name": "enabled",
          "type": "bool"
        }
      ],
      "name": "AllowlistedArtist",
      "type": "event"
    },
    {
      "anonymous": false,
      "inputs": [
        {
          "indexed": true,
          "internalType": "address",
          "name": "owner",
          "type": "address"
        },
        {
          "indexed": true,
          "internalType": "address",
          "name": "approved",
          "type": "address"
        },
        {
          "indexed": true,
          "internalType": "uint256",
          "name": "tokenId",
          "type": "uint256"
        }
      ],
      "name": "Approval",
      "type": "event"
    },
    {
      "anonymous": false,
      "inputs": [
        {
          "indexed": true,
          "internalType": "address",
          "name": "owner",
          "type": "address"
        },
        {
          "indexed": true,
          "internalType": "address",
          "name": "operator",
          "type": "address"
        },
        {
          "indexed": false,
          "internalType": "bool",
          "name": "approved",
          "type": "bool"
        }
      ],
      "name": "ApprovalForAll",
      "type": "event"
    },
    {
      "anonymous": false,
      "inputs": [
        {
          "indexed": true,
          "internalType": "uint16",
          "name": "projectId",
          "type": "uint16"
        },
        {
          "indexed": false,
          "internalType": "address",
          "name": "signerAddress",
          "type": "address"
        },
        {
          "indexed": false,
          "internalType": "address",
          "name": "payoutAddress",
          "type": "address"
        },
        {
          "indexed": false,
          "internalType": "uint16",
          "name": "totalSupply",
          "type": "uint16"
        },
        {
          "indexed": false,
          "internalType": "uint256",
          "name": "mintPrice",
          "type": "uint256"
        },
        {
          "indexed": false,
          "internalType": "string",
          "name": "metadataURI",
          "type": "string"
        }
      ],
      "name": "DefinedProject",
      "type": "event"
    },
    {
      "anonymous": false,
      "inputs": [
        {
          "indexed": false,
          "internalType": "uint8",
          "name": "version",
          "type": "uint8"
        }
      ],
      "name": "Initialized",
      "type": "event"
    },
    {
      "anonymous": false,
      "inputs": [
        {
          "indexed": true,
          "internalType": "uint16",
          "name": "projectId",
          "type": "uint16"
        },
        {
          "indexed": true,
          "internalType": "address",
          "name": "to",
          "type": "address"
        },
        {
          "indexed": false,
          "internalType": "uint256",
          "name": "tokenId",
          "type": "uint256"
        },
        {
          "indexed": false,
          "internalType": "uint16",
          "name": "nonceUsed",
          "type": "uint16"
        },
        {
          "indexed": false,
          "internalType": "bytes32",
          "name": "sigHash",
          "type": "bytes32"
        }
      ],
      "name": "MintedToken",
      "type": "event"
    },
    {
      "anonymous": false,
      "inputs": [
        {
          "indexed": true,
          "internalType": "address",
          "name": "previousOwner",
          "type": "address"
        },
        {
          "indexed": true,
          "internalType": "address",
          "name": "newOwner",
          "type": "address"
        }
      ],
      "name": "OwnershipTransferred",
      "type": "event"
    },
    {
      "anonymous": false,
      "inputs": [
        {
          "indexed": true,
          "internalType": "address",
          "name": "from",
          "type": "address"
        },
        {
          "indexed": true,
          "internalType": "address",
          "name": "to",
          "type": "address"
        },
        {
          "indexed": true,
          "internalType": "uint256",
          "name": "tokenId",
          "type": "uint256"
        }
      ],
      "name": "Transfer",
      "type": "event"
    },
    {
      "anonymous": false,
      "inputs": [
        {
          "indexed": true,
          "internalType": "uint16",
          "name": "projectId",
          "type": "uint16"
        },
        {
          "indexed": false,
          "internalType": "string",
          "name": "metadataURI",
          "type": "string"
        }
      ],
      "name": "UpdatedMetadataURI",
      "type": "event"
    },
    {
      "anonymous": false,
      "inputs": [
        {
          "indexed": true,
          "internalType": "uint16",
          "name": "projectId",
          "type": "uint16"
        },
        {
          "indexed": false,
          "internalType": "uint256",
          "name": "mintPrice",
          "type": "uint256"
        }
      ],
      "name": "UpdatedMintPrice",
      "type": "event"
    },
    {
      "anonymous": false,
      "inputs": [
        {
          "indexed": true,
          "internalType": "uint16",
          "name": "projectId",
          "type": "uint16"
        },
        {
          "indexed": false,
          "internalType": "address",
          "name": "payoutAddress",
          "type": "address"
        }
      ],
      "name": "UpdatedPayoutAddress",
      "type": "event"
    },
    {
      "inputs": [
        {
          "internalType": "address",
          "name": "",
          "type": "address"
        }
      ],
      "name": "allowlistedArtists",
      "outputs": [
        {
          "internalType": "bool",
          "name": "",
          "type": "bool"
        }
      ],
      "stateMutability": "view",
      "type": "function"
    },
    {
      "inputs": [
        {
          "internalType": "address",
          "name": "to",
          "type": "address"
        },
        {
          "internalType": "uint256",
          "name": "tokenId",
          "type": "uint256"
        }
      ],
      "name": "approve",
      "outputs": [],
      "stateMutability": "nonpayable",
      "type": "function"
    },
    {
      "inputs": [
        {
          "internalType": "uint16",
          "name": "",
          "type": "uint16"
        }
      ],
      "name": "artProjects",
      "outputs": [
        {
          "internalType": "address",
          "name": "signerAddress",
          "type": "address"
        },
        {
          "internalType": "address",
          "name": "payoutAddress",
          "type": "address"
        },
        {
          "internalType": "string",
          "name": "metadataURI",
          "type": "string"
        },
        {
          "internalType": "uint16",
          "name": "totalSupply",
          "type": "uint16"
        },
        {
          "internalType": "uint16",
          "name": "mintedCount",
          "type": "uint16"
        },
        {
          "internalType": "uint256",
          "name": "mintPrice",
          "type": "uint256"
        }
      ],
      "stateMutability": "view",
      "type": "function"
    },
    {
      "inputs": [
        {
          "internalType": "address",
          "name": "owner",
          "type": "address"
        }
      ],
      "name": "balanceOf",
      "outputs": [
        {
          "internalType": "uint256",
          "name": "",
          "type": "uint256"
        }
      ],
      "stateMutability": "view",
      "type": "function"
    },
    {
      "inputs": [
        {
          "internalType": "address",
          "name": "_signerAddress",
          "type": "address"
        },
        {
          "internalType": "address",
          "name": "_payoutAddress",
          "type": "address"
        },
        {
          "internalType": "string",
          "name": "_metadataURI",
          "type": "string"
        },
        {
          "internalType": "uint16",
          "name": "_totalSupply",
          "type": "uint16"
        },
        {
          "internalType": "uint256",
          "name": "_mintPrice",
          "type": "uint256"
        }
      ],
      "name": "defineProject",
      "outputs": [],
      "stateMutability": "nonpayable",
      "type": "function"
    },
    {
      "inputs": [
        {
          "internalType": "uint256",
          "name": "tokenId",
          "type": "uint256"
        }
      ],
      "name": "getApproved",
      "outputs": [
        {
          "internalType": "address",
          "name": "",
          "type": "address"
        }
      ],
      "stateMutability": "view",
      "type": "function"
    },
    {
      "inputs": [
        {
          "internalType": "uint256",
          "name": "tokenId",
          "type": "uint256"
        }
      ],
      "name": "getProjectIdFromTokenId",
      "outputs": [
        {
          "internalType": "uint16",
          "name": "",
          "type": "uint16"
        }
      ],
      "stateMutability": "view",
      "type": "function"
    },
    {
      "inputs": [
        {
          "internalType": "uint16",
          "name": "projectId",
          "type": "uint16"
        },
        {
          "internalType": "uint16",
          "name": "nonce",
          "type": "uint16"
        }
      ],
      "name": "getTypeHash",
      "outputs": [
        {
          "internalType": "bytes32",
          "name": "",
          "type": "bytes32"
        }
      ],
      "stateMutability": "view",
      "type": "function"
    },
    {
      "inputs": [],
      "name": "initialize",
      "outputs": [],
      "stateMutability": "nonpayable",
      "type": "function"
    },
    {
      "inputs": [
        {
          "internalType": "address",
          "name": "owner",
          "type": "address"
        },
        {
          "internalType": "address",
          "name": "operator",
          "type": "address"
        }
      ],
      "name": "isApprovedForAll",
      "outputs": [
        {
          "internalType": "bool",
          "name": "",
          "type": "bool"
        }
      ],
      "stateMutability": "view",
      "type": "function"
    },
    {
      "inputs": [
        {
          "internalType": "uint16",
          "name": "_projectId",
          "type": "uint16"
        },
        {
          "internalType": "uint16",
          "name": "_nonce",
          "type": "uint16"
        },
        {
          "internalType": "bytes",
          "name": "_signature",
          "type": "bytes"
        }
      ],
      "name": "mintToken",
      "outputs": [],
      "stateMutability": "payable",
      "type": "function"
    },
    {
      "inputs": [
        {
          "internalType": "bytes",
          "name": "_secretMessage",
          "type": "bytes"
        }
      ],
      "name": "mintTokenFromSecretMessage",
      "outputs": [],
      "stateMutability": "payable",
      "type": "function"
    },
    {
      "inputs": [
        {
          "internalType": "uint16",
          "name": "_projectId",
          "type": "uint16"
        },
        {
          "internalType": "string",
          "name": "_metadataURI",
          "type": "string"
        }
      ],
      "name": "modifyProjectMetadata",
      "outputs": [],
      "stateMutability": "nonpayable",
      "type": "function"
    },
    {
      "inputs": [
        {
          "internalType": "uint16",
          "name": "_projectId",
          "type": "uint16"
        },
        {
          "internalType": "uint256",
          "name": "_mintPrice",
          "type": "uint256"
        }
      ],
      "name": "modifyProjectMintPrice",
      "outputs": [],
      "stateMutability": "nonpayable",
      "type": "function"
    },
    {
      "inputs": [
        {
          "internalType": "uint16",
          "name": "_projectId",
          "type": "uint16"
        },
        {
          "internalType": "address",
          "name": "_payoutAddress",
          "type": "address"
        }
      ],
      "name": "modifyProjectPayoutAddress",
      "outputs": [],
      "stateMutability": "nonpayable",
      "type": "function"
    },
    {
      "inputs": [],
      "name": "name",
      "outputs": [
        {
          "internalType": "string",
          "name": "",
          "type": "string"
        }
      ],
      "stateMutability": "view",
      "type": "function"
    },
    {
      "inputs": [],
      "name": "owner",
      "outputs": [
        {
          "internalType": "address",
          "name": "",
          "type": "address"
        }
      ],
      "stateMutability": "view",
      "type": "function"
    },
    {
      "inputs": [
        {
          "internalType": "uint256",
          "name": "tokenId",
          "type": "uint256"
        }
      ],
      "name": "ownerOf",
      "outputs": [
        {
          "internalType": "address",
          "name": "",
          "type": "address"
        }
      ],
      "stateMutability": "view",
      "type": "function"
    },
    {
      "inputs": [],
      "name": "renounceOwnership",
      "outputs": [],
      "stateMutability": "nonpayable",
      "type": "function"
    },
    {
      "inputs": [
        {
          "internalType": "address",
          "name": "from",
          "type": "address"
        },
        {
          "internalType": "address",
          "name": "to",
          "type": "address"
        },
        {
          "internalType": "uint256",
          "name": "tokenId",
          "type": "uint256"
        }
      ],
      "name": "safeTransferFrom",
      "outputs": [],
      "stateMutability": "nonpayable",
      "type": "function"
    },
    {
      "inputs": [
        {
          "internalType": "address",
          "name": "from",
          "type": "address"
        },
        {
          "internalType": "address",
          "name": "to",
          "type": "address"
        },
        {
          "internalType": "uint256",
          "name": "tokenId",
          "type": "uint256"
        },
        {
          "internalType": "bytes",
          "name": "_data",
          "type": "bytes"
        }
      ],
      "name": "safeTransferFrom",
      "outputs": [],
      "stateMutability": "nonpayable",
      "type": "function"
    },
    {
      "inputs": [
        {
          "internalType": "address",
          "name": "operator",
          "type": "address"
        },
        {
          "internalType": "bool",
          "name": "approved",
          "type": "bool"
        }
      ],
      "name": "setApprovalForAll",
      "outputs": [],
      "stateMutability": "nonpayable",
      "type": "function"
    },
    {
      "inputs": [
        {
          "internalType": "address",
          "name": "artistAddress",
          "type": "address"
        },
        {
          "internalType": "bool",
          "name": "enabled",
          "type": "bool"
        }
      ],
      "name": "setArtistAllowlisted",
      "outputs": [],
      "stateMutability": "nonpayable",
      "type": "function"
    },
    {
      "inputs": [
        {
          "internalType": "bytes",
          "name": "_signature",
          "type": "bytes"
        }
      ],
      "name": "signatureHasBeenUsed",
      "outputs": [
        {
          "internalType": "bool",
          "name": "",
          "type": "bool"
        }
      ],
      "stateMutability": "view",
      "type": "function"
    },
    {
      "inputs": [
        {
          "internalType": "bytes4",
          "name": "interfaceId",
          "type": "bytes4"
        }
      ],
      "name": "supportsInterface",
      "outputs": [
        {
          "internalType": "bool",
          "name": "",
          "type": "bool"
        }
      ],
      "stateMutability": "view",
      "type": "function"
    },
    {
      "inputs": [],
      "name": "symbol",
      "outputs": [
        {
          "internalType": "string",
          "name": "",
          "type": "string"
        }
      ],
      "stateMutability": "view",
      "type": "function"
    },
    {
      "inputs": [
        {
          "internalType": "uint256",
          "name": "tokenId",
          "type": "uint256"
        }
      ],
      "name": "tokenURI",
      "outputs": [
        {
          "internalType": "string",
          "name": "",
          "type": "string"
        }
      ],
      "stateMutability": "view",
      "type": "function"
    },
    {
      "inputs": [
        {
          "internalType": "address",
          "name": "from",
          "type": "address"
        },
        {
          "internalType": "address",
          "name": "to",
          "type": "address"
        },
        {
          "internalType": "uint256",
          "name": "tokenId",
          "type": "uint256"
        }
      ],
      "name": "transferFrom",
      "outputs": [],
      "stateMutability": "nonpayable",
      "type": "function"
    },
    {
      "inputs": [
        {
          "internalType": "address",
          "name": "newOwner",
          "type": "address"
        }
      ],
      "name": "transferOwnership",
      "outputs": [],
      "stateMutability": "nonpayable",
      "type": "function"
    },
    {
      "inputs": [
        {
          "internalType": "bytes32",
          "name": "",
          "type": "bytes32"
        }
      ],
      "name": "usedSignatureHashes",
      "outputs": [
        {
          "internalType": "bool",
          "name": "",
          "type": "bool"
        }
      ],
      "stateMutability": "view",
      "type": "function"
    }
  ],
  "transactionHash": "0x906b03f600652a46b13bc449d3491d40900c30b22d3779841182b98160efaee2",
  "args": [],
  "solcInputHash": "696a701477227389c1905f50a435461d",
  "bytecode": "0x60a060405261271060805234801561001657600080fd5b50608051612db261003960003960008181610cf401526118d80152612db26000f3fe6080604052600436106101cd5760003560e01c80638d54a10c116100f7578063b88d4fde11610095578063e985e9c511610064578063e985e9c514610561578063f07c71a4146105aa578063f2fde38b146105ca578063f6e7516f146105ea57600080fd5b8063b88d4fde146104ee578063c87b56dd1461050e578063d46098f41461052e578063e8bd1bb21461054157600080fd5b80639a1552df116100d15780639a1552df14610463578063a22cb46514610476578063a5135a7414610496578063ad186a44146104ce57600080fd5b80638d54a10c146104005780638da5cb5b1461043057806395d89b411461044e57600080fd5b80632a5299d01161016f5780636352211e1161013e5780636352211e1461039657806370a08231146103b6578063715018a6146103d65780638129fc1c146103eb57600080fd5b80632a5299d0146102f157806342842e0e1461031157806344616a79146103315780635d89170d1461036357600080fd5b8063081812fc116101ab578063081812fc14610257578063095ea7b31461028f57806318d11f82146102b157806323b872dd146102d157600080fd5b8063011e84ca146101d257806301ffc9a71461020557806306fdde0314610235575b600080fd5b3480156101de57600080fd5b506101f26101ed36600461257b565b61061a565b6040519081526020015b60405180910390f35b34801561021157600080fd5b506102256102203660046125c4565b61067d565b60405190151581526020016101fc565b34801561024157600080fd5b5061024a6106cf565b6040516101fc9190612635565b34801561026357600080fd5b50610277610272366004612648565b610761565b6040516001600160a01b0390911681526020016101fc565b34801561029b57600080fd5b506102af6102aa366004612678565b6107fb565b005b3480156102bd57600080fd5b506102af6102cc366004612745565b610911565b3480156102dd57600080fd5b506102af6102ec3660046127bc565b610ad3565b3480156102fd57600080fd5b506102af61030c3660046127f8565b610b04565b34801561031d57600080fd5b506102af61032c3660046127bc565b610bfc565b34801561033d57600080fd5b5061035161034c366004612822565b610c17565b6040516101fc9695949392919061283d565b34801561036f57600080fd5b5061038361037e366004612648565b610cea565b60405161ffff90911681526020016101fc565b3480156103a257600080fd5b506102776103b1366004612648565b610d1a565b3480156103c257600080fd5b506101f26103d1366004612889565b610d91565b3480156103e257600080fd5b506102af610e18565b3480156103f757600080fd5b506102af610e4e565b34801561040c57600080fd5b5061022561041b366004612648565b60ca6020526000908152604090205460ff1681565b34801561043c57600080fd5b506097546001600160a01b0316610277565b34801561045a57600080fd5b5061024a610f0d565b6102af6104713660046128a4565b610f1c565b34801561048257600080fd5b506102af6104913660046128d9565b610f5a565b3480156104a257600080fd5b506102256104b13660046128a4565b8051602091820120600090815260ca909152604090205460ff1690565b3480156104da57600080fd5b506102af6104e9366004612915565b610f69565b3480156104fa57600080fd5b506102af610509366004612963565b611054565b34801561051a57600080fd5b5061024a610529366004612648565b611086565b6102af61053c3660046129cb565b611160565b34801561054d57600080fd5b506102af61055c3660046128d9565b61116c565b34801561056d57600080fd5b5061022561057c366004612a29565b6001600160a01b039182166000908152606a6020908152604080832093909416825291909152205460ff1690565b3480156105b657600080fd5b506102af6105c5366004612a45565b6111f5565b3480156105d657600080fd5b506102af6105e5366004612889565b6112cc565b3480156105f657600080fd5b50610225610605366004612889565b60cc6020526000908152604090205460ff1681565b604080517f2dd0d51444baed7a92c44a66999b64a48ae0db80accf1941d68ba05bcb3ff6eb602082015261ffff80851692820192909252908216606082015260009060800160405160208183030381529060405280519060200120905092915050565b60006001600160e01b031982166380ac58cd60e01b14806106ae57506001600160e01b03198216635b5e139f60e01b145b806106c957506301ffc9a760e01b6001600160e01b03198316145b92915050565b6060606580546106de90612a61565b80601f016020809104026020016040519081016040528092919081815260200182805461070a90612a61565b80156107575780601f1061072c57610100808354040283529160200191610757565b820191906000526020600020905b81548152906001019060200180831161073a57829003601f168201915b5050505050905090565b6000818152606760205260408120546001600160a01b03166107df5760405162461bcd60e51b815260206004820152602c60248201527f4552433732313a20617070726f76656420717565727920666f72206e6f6e657860448201526b34b9ba32b73a103a37b5b2b760a11b60648201526084015b60405180910390fd5b506000908152606960205260409020546001600160a01b031690565b600061080682610d1a565b9050806001600160a01b0316836001600160a01b031614156108745760405162461bcd60e51b815260206004820152602160248201527f4552433732313a20617070726f76616c20746f2063757272656e74206f776e656044820152603960f91b60648201526084016107d6565b336001600160a01b03821614806108905750610890813361057c565b6109025760405162461bcd60e51b815260206004820152603860248201527f4552433732313a20617070726f76652063616c6c6572206973206e6f74206f7760448201527f6e6572206e6f7220617070726f76656420666f7220616c6c000000000000000060648201526084016107d6565b61090c8383611364565b505050565b846109246097546001600160a01b031690565b6001600160a01b0316336001600160a01b03161480610965575033600090815260cc602052604090205460ff1680156109655750336001600160a01b038216145b6109815760405162461bcd60e51b81526004016107d690612a9c565b6040805160c0810182526001600160a01b038089168252878116602080840191825283850189815261ffff808a16606087015260006080870181905260a087018a905260cb54909116815260c9835295909520845181549085166001600160a01b031991821617825592516001820180549190951693169290921790925592518051929392610a1692600285019201906124d0565b506060820151600382018054608085015161ffff908116620100000263ffffffff199092169381169390931717905560a09092015160049091015560cb546040519116907f498fce6b4284f027cc75e4d9df4f9d56d6b13a903a0f04c33b3fdb17ed38819d90610a8f9089908990889088908b90612ad1565b60405180910390a260cb805460019190600090610ab190849061ffff16612b2f565b92506101000a81548161ffff021916908361ffff160217905550505050505050565b610add33826113d2565b610af95760405162461bcd60e51b81526004016107d690612b55565b61090c8383836114c9565b61ffff8216600090815260c960205260409020546001600160a01b0316610b336097546001600160a01b031690565b6001600160a01b0316336001600160a01b03161480610b74575033600090815260cc602052604090205460ff168015610b745750336001600160a01b038216145b610b905760405162461bcd60e51b81526004016107d690612a9c565b61ffff8316600081815260c9602090815260409182902060010180546001600160a01b0319166001600160a01b03871690811790915591519182527f8584e06208271682859ee0ba55cb68bf23fdf9cbdf7c9cf5277014ba37c1e74491015b60405180910390a2505050565b61090c83838360405180602001604052806000815250611054565b60c9602052600090815260409020805460018201546002830180546001600160a01b03938416949290931692610c4c90612a61565b80601f0160208091040260200160405190810160405280929190818152602001828054610c7890612a61565b8015610cc55780601f10610c9a57610100808354040283529160200191610cc5565b820191906000526020600020905b815481529060010190602001808311610ca857829003601f168201915b505050506003830154600490930154919261ffff808216936201000090920416915086565b60006106c961ffff7f00000000000000000000000000000000000000000000000000000000000000001683612ba6565b6000818152606760205260408120546001600160a01b0316806106c95760405162461bcd60e51b815260206004820152602960248201527f4552433732313a206f776e657220717565727920666f72206e6f6e657869737460448201526832b73a103a37b5b2b760b91b60648201526084016107d6565b60006001600160a01b038216610dfc5760405162461bcd60e51b815260206004820152602a60248201527f4552433732313a2062616c616e636520717565727920666f7220746865207a65604482015269726f206164647265737360b01b60648201526084016107d6565b506001600160a01b031660009081526068602052604090205490565b6097546001600160a01b03163314610e425760405162461bcd60e51b81526004016107d690612a9c565b610e4c6000611665565b565b6000610e5a60016116b7565b90508015610e72576000805461ff0019166101001790555b610e7a611744565b610ec46040518060400160405280600e81526020016d155b99195c99dc9bdd5b99105c9d60921b81525060405180604001604052806002815260200161554160f01b815250611773565b8015610f0a576000805461ff0019169055604051600181527f7f26b83ff96e1f2b6a682f133852f6798a09c465da95921460cefb38474024989060200160405180910390a15b50565b6060606680546106de90612a61565b8051604514610f2a57600080fd5b600281015160048083015190606090610f4690859060416117a4565b9050610f54338484846118b1565b50505050565b610f65338383611bf6565b5050565b61ffff8216600090815260c960205260409020546001600160a01b0316610f986097546001600160a01b031690565b6001600160a01b0316336001600160a01b03161480610fd9575033600090815260cc602052604090205460ff168015610fd95750336001600160a01b038216145b610ff55760405162461bcd60e51b81526004016107d690612a9c565b61ffff8316600090815260c960209081526040909120835161101f926002909201918501906124d0565b508261ffff167f2622ce771334003c618057f6bfbb88ca188cda460bbb9e557a28ade3791741fb83604051610bef9190612635565b61105e33836113d2565b61107a5760405162461bcd60e51b81526004016107d690612b55565b610f5484848484611cc5565b6000818152606760205260409020546060906001600160a01b03166110aa57600080fd5b60006110b583610cea565b61ffff8116600090815260c9602052604090206002018054919250906110da90612a61565b80601f016020809104026020016040519081016040528092919081815260200182805461110690612a61565b80156111535780601f1061112857610100808354040283529160200191611153565b820191906000526020600020905b81548152906001019060200180831161113657829003601f168201915b5050505050915050919050565b61090c338484846118b1565b6097546001600160a01b031633146111965760405162461bcd60e51b81526004016107d690612a9c565b6001600160a01b038216600081815260cc6020908152604091829020805460ff191685151590811790915591519182527fe5b1e837b96fd584f8365844dbf00f4364cdd776530b6a93e1fa5481b485c1ed910160405180910390a25050565b61ffff8216600090815260c960205260409020546001600160a01b03166112246097546001600160a01b031690565b6001600160a01b0316336001600160a01b03161480611265575033600090815260cc602052604090205460ff1680156112655750336001600160a01b038216145b6112815760405162461bcd60e51b81526004016107d690612a9c565b61ffff8316600081815260c9602052604090819020600401849055517f73d9f3822fee96663efbf1740611ddd0da144b7f9dc3bb9fabd11ce31a803f7390610bef9085815260200190565b6097546001600160a01b031633146112f65760405162461bcd60e51b81526004016107d690612a9c565b6001600160a01b03811661135b5760405162461bcd60e51b815260206004820152602660248201527f4f776e61626c653a206e6577206f776e657220697320746865207a65726f206160448201526564647265737360d01b60648201526084016107d6565b610f0a81611665565b600081815260696020526040902080546001600160a01b0319166001600160a01b038416908117909155819061139982610d1a565b6001600160a01b03167f8c5be1e5ebec7d5bd14f71427d1e84f3dd0314c0f7b2291e5b200ac8c7c3b92560405160405180910390a45050565b6000818152606760205260408120546001600160a01b031661144b5760405162461bcd60e51b815260206004820152602c60248201527f4552433732313a206f70657261746f7220717565727920666f72206e6f6e657860448201526b34b9ba32b73a103a37b5b2b760a11b60648201526084016107d6565b600061145683610d1a565b9050806001600160a01b0316846001600160a01b0316148061149d57506001600160a01b038082166000908152606a602090815260408083209388168352929052205460ff165b806114c15750836001600160a01b03166114b684610761565b6001600160a01b0316145b949350505050565b826001600160a01b03166114dc82610d1a565b6001600160a01b0316146115405760405162461bcd60e51b815260206004820152602560248201527f4552433732313a207472616e736665722066726f6d20696e636f72726563742060448201526437bbb732b960d91b60648201526084016107d6565b6001600160a01b0382166115a25760405162461bcd60e51b8152602060048201526024808201527f4552433732313a207472616e7366657220746f20746865207a65726f206164646044820152637265737360e01b60648201526084016107d6565b6115ad600082611364565b6001600160a01b03831660009081526068602052604081208054600192906115d6908490612bc8565b90915550506001600160a01b0382166000908152606860205260408120805460019290611604908490612bdf565b909155505060008181526067602052604080822080546001600160a01b0319166001600160a01b0386811691821790925591518493918716917fddf252ad1be2c89b69c2b068fc378daa952ba7f163c4a11628f55a4df523b3ef91a4505050565b609780546001600160a01b038381166001600160a01b0319831681179093556040519116919082907f8be0079c531659141344cd1fd0a4f28419497f9722a3daafe3b4186f6b6457e090600090a35050565b60008054610100900460ff16156116fe578160ff1660011480156116da5750303b155b6116f65760405162461bcd60e51b81526004016107d690612bf7565b506000919050565b60005460ff8084169116106117255760405162461bcd60e51b81526004016107d690612bf7565b506000805460ff191660ff92909216919091179055600190565b919050565b600054610100900460ff1661176b5760405162461bcd60e51b81526004016107d690612c45565b610e4c611cf8565b600054610100900460ff1661179a5760405162461bcd60e51b81526004016107d690612c45565b610f658282611d28565b6060816117b281601f612bdf565b10156117f15760405162461bcd60e51b815260206004820152600e60248201526d736c6963655f6f766572666c6f7760901b60448201526064016107d6565b6117fb8284612bdf565b8451101561183f5760405162461bcd60e51b8152602060048201526011602482015270736c6963655f6f75744f66426f756e647360781b60448201526064016107d6565b60608215801561185e57604051915060008252602082016040526118a8565b6040519150601f8416801560200281840101858101878315602002848b0101015b8183101561189757805183526020928301920161187f565b5050858452601f01601f1916604052505b50949350505050565b61ffff808416600090815260c96020526040812060030154909162010000909104166118fd7f000000000000000000000000000000000000000000000000000000000000000086612c90565b6119079190612b2f565b61ffff858116600090815260c96020526040902060030180549282169350600192909160029161193f91859162010000900416612b2f565b82546101009290920a61ffff818102199093169183160217909155858116600090815260c9602052604090206003015480821662010000909104909116111590506119e35760405162461bcd60e51b815260206004820152602e60248201527f546f74616c20737570706c7920686173206265656e206d696e74656420666f7260448201526d103a3434b990383937b532b1ba1760911b60648201526084016107d6565b611a04828051602091820120600090815260ca909152604090205460ff1690565b15611a455760405162461bcd60e51b815260206004820152601160248201527010dbd91948185b1c9958591e481d5cd959607a1b60448201526064016107d6565b8151602080840191909120600090815260ca82526040808220805460ff1916600117905561ffff8716825260c99092522054611a8c906001600160a01b0316858585611d76565b611acc5760405162461bcd60e51b815260206004820152601160248201527014da59db985d1d5c99481a5b9d985b1a59607a1b60448201526064016107d6565b611ad68582611ec2565b61ffff8416600090815260c960205260409020600401543414611b3b5760405162461bcd60e51b815260206004820152601860248201527f496e76616c6964207061796d656e7420666f72206d696e74000000000000000060448201526064016107d6565b61ffff8416600090815260c960205260408082206001015490516001600160a01b03909116913480156108fc02929091818181858888f19350505050158015611b88573d6000803e3d6000fd5b50846001600160a01b03168461ffff167fb60f2d614ad742272f07e2650ac7e26397bb1057b5e7c6dbd96d0a7176e54d0383868680519060200120604051611be79392919092835261ffff919091166020830152604082015260600190565b60405180910390a35050505050565b816001600160a01b0316836001600160a01b03161415611c585760405162461bcd60e51b815260206004820152601960248201527f4552433732313a20617070726f766520746f2063616c6c65720000000000000060448201526064016107d6565b6001600160a01b038381166000818152606a6020908152604080832094871680845294825291829020805460ff191686151590811790915591519182527f17307eab39ab6107e8899845ad3d59bd9653f200f220920489ca2b5937696c31910160405180910390a3505050565b611cd08484846114c9565b611cdc84848484611edc565b610f545760405162461bcd60e51b81526004016107d690612cba565b600054610100900460ff16611d1f5760405162461bcd60e51b81526004016107d690612c45565b610e4c33611665565b600054610100900460ff16611d4f5760405162461bcd60e51b81526004016107d690612c45565b8151611d629060659060208501906124d0565b50805161090c9060669060208401906124d0565b600080611d83858561061a565b90506000611e61604080518082018252600e81526d155b99195c99dc9bdd5b99105c9d60921b6020918201528151808301835260038152620312e360ec1b9082015281517f8b73c3c69bb8fe3d512ecc4cf759cc79239f7b179b0ffacaa9a75d522b39400f818301527f89c61ec07304ec3de6b5995fa016c5cb21aaf852a7c84c6dd1c8b4cbfbf52b75818401527fe6bbd6277e1bf288eed5e8d1780f9a50b239e86b153736bceebccf4ea79d90b360608201524660808201523060a0808301919091528351808303909101815260c0909101909252815191012090565b60405161190160f01b6020820152602281019190915260428101839052606201604051602081830303815290604052805190602001209050866001600160a01b0316611ead8286611fe6565b6001600160a01b031614979650505050505050565b610f6582826040518060200160405280600081525061200a565b60006001600160a01b0384163b15611fde57604051630a85bd0160e11b81526001600160a01b0385169063150b7a0290611f20903390899088908890600401612d0c565b602060405180830381600087803b158015611f3a57600080fd5b505af1925050508015611f6a575060408051601f3d908101601f19168201909252611f6791810190612d49565b60015b611fc4573d808015611f98576040519150601f19603f3d011682016040523d82523d6000602084013e611f9d565b606091505b508051611fbc5760405162461bcd60e51b81526004016107d690612cba565b805181602001fd5b6001600160e01b031916630a85bd0160e11b1490506114c1565b5060016114c1565b6000806000611ff5858561203d565b91509150612002816120ad565b509392505050565b6120148383612268565b6120216000848484611edc565b61090c5760405162461bcd60e51b81526004016107d690612cba565b6000808251604114156120745760208301516040840151606085015160001a612068878285856123aa565b945094505050506120a6565b82516040141561209e5760208301516040840151612093868383612497565b9350935050506120a6565b506000905060025b9250929050565b60008160048111156120c1576120c1612d66565b14156120ca5750565b60018160048111156120de576120de612d66565b141561212c5760405162461bcd60e51b815260206004820152601860248201527f45434453413a20696e76616c6964207369676e6174757265000000000000000060448201526064016107d6565b600281600481111561214057612140612d66565b141561218e5760405162461bcd60e51b815260206004820152601f60248201527f45434453413a20696e76616c6964207369676e6174757265206c656e6774680060448201526064016107d6565b60038160048111156121a2576121a2612d66565b14156121fb5760405162461bcd60e51b815260206004820152602260248201527f45434453413a20696e76616c6964207369676e6174757265202773272076616c604482015261756560f01b60648201526084016107d6565b600481600481111561220f5761220f612d66565b1415610f0a5760405162461bcd60e51b815260206004820152602260248201527f45434453413a20696e76616c6964207369676e6174757265202776272076616c604482015261756560f01b60648201526084016107d6565b6001600160a01b0382166122be5760405162461bcd60e51b815260206004820181905260248201527f4552433732313a206d696e7420746f20746865207a65726f206164647265737360448201526064016107d6565b6000818152606760205260409020546001600160a01b0316156123235760405162461bcd60e51b815260206004820152601c60248201527f4552433732313a20746f6b656e20616c7265616479206d696e7465640000000060448201526064016107d6565b6001600160a01b038216600090815260686020526040812080546001929061234c908490612bdf565b909155505060008181526067602052604080822080546001600160a01b0319166001600160a01b03861690811790915590518392907fddf252ad1be2c89b69c2b068fc378daa952ba7f163c4a11628f55a4df523b3ef908290a45050565b6000807f7fffffffffffffffffffffffffffffff5d576e7357a4501ddfe92f46681b20a08311156123e1575060009050600361248e565b8460ff16601b141580156123f957508460ff16601c14155b1561240a575060009050600461248e565b6040805160008082526020820180845289905260ff881692820192909252606081018690526080810185905260019060a0016020604051602081039080840390855afa15801561245e573d6000803e3d6000fd5b5050604051601f1901519150506001600160a01b0381166124875760006001925092505061248e565b9150600090505b94509492505050565b6000806001600160ff1b038316816124b460ff86901c601b612bdf565b90506124c2878288856123aa565b935093505050935093915050565b8280546124dc90612a61565b90600052602060002090601f0160209004810192826124fe5760008555612544565b82601f1061251757805160ff1916838001178555612544565b82800160010185558215612544579182015b82811115612544578251825591602001919060010190612529565b50612550929150612554565b5090565b5b808211156125505760008155600101612555565b803561ffff8116811461173f57600080fd5b6000806040838503121561258e57600080fd5b61259783612569565b91506125a560208401612569565b90509250929050565b6001600160e01b031981168114610f0a57600080fd5b6000602082840312156125d657600080fd5b81356125e1816125ae565b9392505050565b6000815180845260005b8181101561260e576020818501810151868301820152016125f2565b81811115612620576000602083870101525b50601f01601f19169290920160200192915050565b6020815260006125e160208301846125e8565b60006020828403121561265a57600080fd5b5035919050565b80356001600160a01b038116811461173f57600080fd5b6000806040838503121561268b57600080fd5b61269483612661565b946020939093013593505050565b634e487b7160e01b600052604160045260246000fd5b600082601f8301126126c957600080fd5b813567ffffffffffffffff808211156126e4576126e46126a2565b604051601f8301601f19908116603f0116810190828211818310171561270c5761270c6126a2565b8160405283815286602085880101111561272557600080fd5b836020870160208301376000602085830101528094505050505092915050565b600080600080600060a0868803121561275d57600080fd5b61276686612661565b945061277460208701612661565b9350604086013567ffffffffffffffff81111561279057600080fd5b61279c888289016126b8565b9350506127ab60608701612569565b949793965091946080013592915050565b6000806000606084860312156127d157600080fd5b6127da84612661565b92506127e860208501612661565b9150604084013590509250925092565b6000806040838503121561280b57600080fd5b61281483612569565b91506125a560208401612661565b60006020828403121561283457600080fd5b6125e182612569565b6001600160a01b0387811682528616602082015260c060408201819052600090612869908301876125e8565b61ffff958616606084015293909416608082015260a00152949350505050565b60006020828403121561289b57600080fd5b6125e182612661565b6000602082840312156128b657600080fd5b813567ffffffffffffffff8111156128cd57600080fd5b6114c1848285016126b8565b600080604083850312156128ec57600080fd5b6128f583612661565b91506020830135801515811461290a57600080fd5b809150509250929050565b6000806040838503121561292857600080fd5b61293183612569565b9150602083013567ffffffffffffffff81111561294d57600080fd5b612959858286016126b8565b9150509250929050565b6000806000806080858703121561297957600080fd5b61298285612661565b935061299060208601612661565b925060408501359150606085013567ffffffffffffffff8111156129b357600080fd5b6129bf878288016126b8565b91505092959194509250565b6000806000606084860312156129e057600080fd5b6129e984612569565b92506129f760208501612569565b9150604084013567ffffffffffffffff811115612a1357600080fd5b612a1f868287016126b8565b9150509250925092565b60008060408385031215612a3c57600080fd5b61281483612661565b60008060408385031215612a5857600080fd5b61269483612569565b600181811c90821680612a7557607f821691505b60208210811415612a9657634e487b7160e01b600052602260045260246000fd5b50919050565b6020808252818101527f4f776e61626c653a2063616c6c6572206973206e6f7420746865206f776e6572604082015260600190565b6001600160a01b0386811682528516602082015261ffff841660408201526060810183905260a060808201819052600090612b0e908301846125e8565b979650505050505050565b634e487b7160e01b600052601160045260246000fd5b600061ffff808316818516808303821115612b4c57612b4c612b19565b01949350505050565b60208082526031908201527f4552433732313a207472616e736665722063616c6c6572206973206e6f74206f6040820152701ddb995c881b9bdc88185c1c1c9bdd9959607a1b606082015260800190565b600082612bc357634e487b7160e01b600052601260045260246000fd5b500490565b600082821015612bda57612bda612b19565b500390565b60008219821115612bf257612bf2612b19565b500190565b6020808252602e908201527f496e697469616c697a61626c653a20636f6e747261637420697320616c72656160408201526d191e481a5b9a5d1a585b1a5e995960921b606082015260800190565b6020808252602b908201527f496e697469616c697a61626c653a20636f6e7472616374206973206e6f74206960408201526a6e697469616c697a696e6760a81b606082015260800190565b600061ffff80831681851681830481118215151615612cb157612cb1612b19565b02949350505050565b60208082526032908201527f4552433732313a207472616e7366657220746f206e6f6e20455243373231526560408201527131b2b4bb32b91034b6b83632b6b2b73a32b960711b606082015260800190565b6001600160a01b0385811682528416602082015260408101839052608060608201819052600090612d3f908301846125e8565b9695505050505050565b600060208284031215612d5b57600080fd5b81516125e1816125ae565b634e487b7160e01b600052602160045260246000fdfea264697066735822122040ce088c0a87fd3325ded6e727a2395dbfc363b54cce22ce2086a20b677f51f064736f6c63430008090033",
  "devdoc": {
    "kind": "dev",
    "methods": {
      "approve(address,uint256)": {
        "details": "See {IERC721-approve}."
      },
      "balanceOf(address)": {
        "details": "See {IERC721-balanceOf}."
      },
      "getApproved(uint256)": {
        "details": "See {IERC721-getApproved}."
      },
      "isApprovedForAll(address,address)": {
        "details": "See {IERC721-isApprovedForAll}."
      },
      "name()": {
        "details": "See {IERC721Metadata-name}."
      },
      "owner()": {
        "details": "Returns the address of the current owner."
      },
      "ownerOf(uint256)": {
        "details": "See {IERC721-ownerOf}."
      },
      "renounceOwnership()": {
        "details": "Leaves the contract without owner. It will not be possible to call `onlyOwner` functions anymore. Can only be called by the current owner. NOTE: Renouncing ownership will leave the contract without an owner, thereby removing any functionality that is only available to the owner."
      },
      "safeTransferFrom(address,address,uint256)": {
        "details": "See {IERC721-safeTransferFrom}."
      },
      "safeTransferFrom(address,address,uint256,bytes)": {
        "details": "See {IERC721-safeTransferFrom}."
      },
      "setApprovalForAll(address,bool)": {
        "details": "See {IERC721-setApprovalForAll}."
      },
      "supportsInterface(bytes4)": {
        "details": "See {IERC165-supportsInterface}."
      },
      "symbol()": {
        "details": "See {IERC721Metadata-symbol}."
      },
      "tokenURI(uint256)": {
        "details": "Returns an URI for a given token ID Throws if the token ID does not exist. May return an empty string.",
        "params": {
          "tokenId": "uint256 ID of the token to query"
        }
      },
      "transferFrom(address,address,uint256)": {
        "details": "See {IERC721-transferFrom}."
      },
      "transferOwnership(address)": {
        "details": "Transfers ownership of the contract to a new account (`newOwner`). Can only be called by the current owner."
      }
    },
    "version": 1
  },
  "userdoc": {
    "kind": "user",
    "methods": {},
    "version": 1
  },
  "storageLayout": {
    "storage": [
      {
        "astId": 130,
        "contract": "contracts/UndergroundArt.sol:UndergroundArt",
        "label": "_initialized",
        "offset": 0,
        "slot": "0",
        "type": "t_uint8"
      },
      {
        "astId": 133,
        "contract": "contracts/UndergroundArt.sol:UndergroundArt",
        "label": "_initializing",
        "offset": 1,
        "slot": "0",
        "type": "t_bool"
      },
      {
        "astId": 1601,
        "contract": "contracts/UndergroundArt.sol:UndergroundArt",
        "label": "__gap",
        "offset": 0,
        "slot": "1",
        "type": "t_array(t_uint256)50_storage"
      },
      {
        "astId": 2255,
        "contract": "contracts/UndergroundArt.sol:UndergroundArt",
        "label": "__gap",
        "offset": 0,
        "slot": "51",
        "type": "t_array(t_uint256)50_storage"
      },
      {
        "astId": 294,
        "contract": "contracts/UndergroundArt.sol:UndergroundArt",
        "label": "_name",
        "offset": 0,
        "slot": "101",
        "type": "t_string_storage"
      },
      {
        "astId": 296,
        "contract": "contracts/UndergroundArt.sol:UndergroundArt",
        "label": "_symbol",
        "offset": 0,
        "slot": "102",
        "type": "t_string_storage"
      },
      {
        "astId": 300,
        "contract": "contracts/UndergroundArt.sol:UndergroundArt",
        "label": "_owners",
        "offset": 0,
        "slot": "103",
        "type": "t_mapping(t_uint256,t_address)"
      },
      {
        "astId": 304,
        "contract": "contracts/UndergroundArt.sol:UndergroundArt",
        "label": "_balances",
        "offset": 0,
        "slot": "104",
        "type": "t_mapping(t_address,t_uint256)"
      },
      {
        "astId": 308,
        "contract": "contracts/UndergroundArt.sol:UndergroundArt",
        "label": "_tokenApprovals",
        "offset": 0,
        "slot": "105",
        "type": "t_mapping(t_uint256,t_address)"
      },
      {
        "astId": 314,
        "contract": "contracts/UndergroundArt.sol:UndergroundArt",
        "label": "_operatorApprovals",
        "offset": 0,
        "slot": "106",
        "type": "t_mapping(t_address,t_mapping(t_address,t_bool))"
      },
      {
        "astId": 1155,
        "contract": "contracts/UndergroundArt.sol:UndergroundArt",
        "label": "__gap",
        "offset": 0,
        "slot": "107",
        "type": "t_array(t_uint256)44_storage"
      },
      {
        "astId": 10,
        "contract": "contracts/UndergroundArt.sol:UndergroundArt",
        "label": "_owner",
        "offset": 0,
        "slot": "151",
        "type": "t_address"
      },
      {
        "astId": 122,
        "contract": "contracts/UndergroundArt.sol:UndergroundArt",
        "label": "__gap",
        "offset": 0,
        "slot": "152",
        "type": "t_array(t_uint256)49_storage"
      },
      {
        "astId": 2682,
        "contract": "contracts/UndergroundArt.sol:UndergroundArt",
        "label": "artProjects",
        "offset": 0,
        "slot": "201",
        "type": "t_mapping(t_uint16,t_struct(ArtProject)2627_storage)"
      },
      {
        "astId": 2686,
        "contract": "contracts/UndergroundArt.sol:UndergroundArt",
        "label": "usedSignatureHashes",
        "offset": 0,
        "slot": "202",
        "type": "t_mapping(t_bytes32,t_bool)"
      },
      {
        "astId": 2688,
        "contract": "contracts/UndergroundArt.sol:UndergroundArt",
        "label": "projectCount",
        "offset": 0,
        "slot": "203",
        "type": "t_uint16"
      },
      {
        "astId": 2692,
        "contract": "contracts/UndergroundArt.sol:UndergroundArt",
        "label": "allowlistedArtists",
        "offset": 0,
        "slot": "204",
        "type": "t_mapping(t_address,t_bool)"
      }
    ],
    "types": {
      "t_address": {
        "encoding": "inplace",
        "label": "address",
        "numberOfBytes": "20"
      },
      "t_array(t_uint256)44_storage": {
        "base": "t_uint256",
        "encoding": "inplace",
        "label": "uint256[44]",
        "numberOfBytes": "1408"
      },
      "t_array(t_uint256)49_storage": {
        "base": "t_uint256",
        "encoding": "inplace",
        "label": "uint256[49]",
        "numberOfBytes": "1568"
      },
      "t_array(t_uint256)50_storage": {
        "base": "t_uint256",
        "encoding": "inplace",
        "label": "uint256[50]",
        "numberOfBytes": "1600"
      },
      "t_bool": {
        "encoding": "inplace",
        "label": "bool",
        "numberOfBytes": "1"
      },
      "t_bytes32": {
        "encoding": "inplace",
        "label": "bytes32",
        "numberOfBytes": "32"
      },
      "t_mapping(t_address,t_bool)": {
        "encoding": "mapping",
        "key": "t_address",
        "label": "mapping(address => bool)",
        "numberOfBytes": "32",
        "value": "t_bool"
      },
      "t_mapping(t_address,t_mapping(t_address,t_bool))": {
        "encoding": "mapping",
        "key": "t_address",
        "label": "mapping(address => mapping(address => bool))",
        "numberOfBytes": "32",
        "value": "t_mapping(t_address,t_bool)"
      },
      "t_mapping(t_address,t_uint256)": {
        "encoding": "mapping",
        "key": "t_address",
        "label": "mapping(address => uint256)",
        "numberOfBytes": "32",
        "value": "t_uint256"
      },
      "t_mapping(t_bytes32,t_bool)": {
        "encoding": "mapping",
        "key": "t_bytes32",
        "label": "mapping(bytes32 => bool)",
        "numberOfBytes": "32",
        "value": "t_bool"
      },
      "t_mapping(t_uint16,t_struct(ArtProject)2627_storage)": {
        "encoding": "mapping",
        "key": "t_uint16",
        "label": "mapping(uint16 => struct UndergroundArt.ArtProject)",
        "numberOfBytes": "32",
        "value": "t_struct(ArtProject)2627_storage"
      },
      "t_mapping(t_uint256,t_address)": {
        "encoding": "mapping",
        "key": "t_uint256",
        "label": "mapping(uint256 => address)",
        "numberOfBytes": "32",
        "value": "t_address"
      },
      "t_string_storage": {
        "encoding": "bytes",
        "label": "string",
        "numberOfBytes": "32"
      },
      "t_struct(ArtProject)2627_storage": {
        "encoding": "inplace",
        "label": "struct UndergroundArt.ArtProject",
        "members": [
          {
            "astId": 2616,
            "contract": "contracts/UndergroundArt.sol:UndergroundArt",
            "label": "signerAddress",
            "offset": 0,
            "slot": "0",
            "type": "t_address"
          },
          {
            "astId": 2618,
            "contract": "contracts/UndergroundArt.sol:UndergroundArt",
            "label": "payoutAddress",
            "offset": 0,
            "slot": "1",
            "type": "t_address"
          },
          {
            "astId": 2620,
            "contract": "contracts/UndergroundArt.sol:UndergroundArt",
            "label": "metadataURI",
            "offset": 0,
            "slot": "2",
            "type": "t_string_storage"
          },
          {
            "astId": 2622,
            "contract": "contracts/UndergroundArt.sol:UndergroundArt",
            "label": "totalSupply",
            "offset": 0,
            "slot": "3",
            "type": "t_uint16"
          },
          {
            "astId": 2624,
            "contract": "contracts/UndergroundArt.sol:UndergroundArt",
            "label": "mintedCount",
            "offset": 2,
            "slot": "3",
            "type": "t_uint16"
          },
          {
            "astId": 2626,
            "contract": "contracts/UndergroundArt.sol:UndergroundArt",
            "label": "mintPrice",
            "offset": 0,
            "slot": "4",
            "type": "t_uint256"
          }
        ],
        "numberOfBytes": "160"
      },
      "t_uint16": {
        "encoding": "inplace",
        "label": "uint16",
        "numberOfBytes": "2"
      },
      "t_uint256": {
        "encoding": "inplace",
        "label": "uint256",
        "numberOfBytes": "32"
      },
      "t_uint8": {
        "encoding": "inplace",
        "label": "uint8",
        "numberOfBytes": "1"
      }
    }
  }
}