{
  "address": "0x1B14aD65aB27703f40291274c5fba7a1F443840d",
  "abi": [
    {
      "inputs": [],
      "stateMutability": "nonpayable",
      "type": "constructor"
    },
    {
      "anonymous": false,
      "inputs": [
        {
          "indexed": true,
          "internalType": "address",
          "name": "owner",
          "type": "address"
        },
        {
          "indexed": true,
          "internalType": "address",
          "name": "approved",
          "type": "address"
        },
        {
          "indexed": true,
          "internalType": "uint256",
          "name": "tokenId",
          "type": "uint256"
        }
      ],
      "name": "Approval",
      "type": "event"
    },
    {
      "anonymous": false,
      "inputs": [
        {
          "indexed": true,
          "internalType": "address",
          "name": "owner",
          "type": "address"
        },
        {
          "indexed": true,
          "internalType": "address",
          "name": "operator",
          "type": "address"
        },
        {
          "indexed": false,
          "internalType": "bool",
          "name": "approved",
          "type": "bool"
        }
      ],
      "name": "ApprovalForAll",
      "type": "event"
    },
    {
      "anonymous": false,
      "inputs": [
        {
          "indexed": true,
          "internalType": "uint16",
          "name": "projectId",
          "type": "uint16"
        },
        {
          "indexed": false,
          "internalType": "address",
          "name": "artistAddress",
          "type": "address"
        },
        {
          "indexed": false,
          "internalType": "uint16",
          "name": "totalSupply",
          "type": "uint16"
        }
      ],
      "name": "DefinedProject",
      "type": "event"
    },
    {
      "anonymous": false,
      "inputs": [
        {
          "indexed": false,
          "internalType": "uint8",
          "name": "version",
          "type": "uint8"
        }
      ],
      "name": "Initialized",
      "type": "event"
    },
    {
      "anonymous": false,
      "inputs": [
        {
          "indexed": true,
          "internalType": "address",
          "name": "previousOwner",
          "type": "address"
        },
        {
          "indexed": true,
          "internalType": "address",
          "name": "newOwner",
          "type": "address"
        }
      ],
      "name": "OwnershipTransferred",
      "type": "event"
    },
    {
      "anonymous": false,
      "inputs": [
        {
          "indexed": true,
          "internalType": "address",
          "name": "from",
          "type": "address"
        },
        {
          "indexed": true,
          "internalType": "address",
          "name": "to",
          "type": "address"
        },
        {
          "indexed": true,
          "internalType": "uint256",
          "name": "tokenId",
          "type": "uint256"
        }
      ],
      "name": "Transfer",
      "type": "event"
    },
    {
      "inputs": [],
      "name": "DOMAIN_SEPARATOR",
      "outputs": [
        {
          "internalType": "bytes32",
          "name": "",
          "type": "bytes32"
        }
      ],
      "stateMutability": "view",
      "type": "function"
    },
    {
      "inputs": [],
      "name": "IMPLEMENTATION_ADDRESS",
      "outputs": [
        {
          "internalType": "address",
          "name": "",
          "type": "address"
        }
      ],
      "stateMutability": "view",
      "type": "function"
    },
    {
      "inputs": [
        {
          "internalType": "address",
          "name": "to",
          "type": "address"
        },
        {
          "internalType": "uint256",
          "name": "tokenId",
          "type": "uint256"
        }
      ],
      "name": "approve",
      "outputs": [],
      "stateMutability": "nonpayable",
      "type": "function"
    },
    {
      "inputs": [
        {
          "internalType": "uint16",
          "name": "",
          "type": "uint16"
        }
      ],
      "name": "artProjects",
      "outputs": [
        {
          "internalType": "address",
          "name": "artistAddress",
          "type": "address"
        },
        {
          "internalType": "string",
          "name": "metadataURI",
          "type": "string"
        },
        {
          "internalType": "uint16",
          "name": "totalSupply",
          "type": "uint16"
        },
        {
          "internalType": "uint16",
          "name": "mintedCount",
          "type": "uint16"
        }
      ],
      "stateMutability": "view",
      "type": "function"
    },
    {
      "inputs": [
        {
          "internalType": "address",
          "name": "owner",
          "type": "address"
        }
      ],
      "name": "balanceOf",
      "outputs": [
        {
          "internalType": "uint256",
          "name": "",
          "type": "uint256"
        }
      ],
      "stateMutability": "view",
      "type": "function"
    },
    {
      "inputs": [
        {
          "internalType": "address",
          "name": "_artistAddress",
          "type": "address"
        },
        {
          "internalType": "string",
          "name": "_metadataURI",
          "type": "string"
        },
        {
          "internalType": "uint16",
          "name": "_totalSupply",
          "type": "uint16"
        }
      ],
      "name": "defineProject",
      "outputs": [],
      "stateMutability": "nonpayable",
      "type": "function"
    },
    {
      "inputs": [
        {
          "internalType": "uint256",
          "name": "tokenId",
          "type": "uint256"
        }
      ],
      "name": "getApproved",
      "outputs": [
        {
          "internalType": "address",
          "name": "",
          "type": "address"
        }
      ],
      "stateMutability": "view",
      "type": "function"
    },
    {
      "inputs": [],
      "name": "getImplementationAddress",
      "outputs": [
        {
          "internalType": "address",
          "name": "",
          "type": "address"
        }
      ],
      "stateMutability": "view",
      "type": "function"
    },
    {
      "inputs": [
        {
          "internalType": "uint256",
          "name": "tokenId",
          "type": "uint256"
        }
      ],
      "name": "getProjectIdFromTokenId",
      "outputs": [
        {
          "internalType": "uint16",
          "name": "",
          "type": "uint16"
        }
      ],
      "stateMutability": "view",
      "type": "function"
    },
    {
      "inputs": [
        {
          "internalType": "uint16",
          "name": "projectId",
          "type": "uint16"
        },
        {
          "internalType": "uint16",
          "name": "nonce",
          "type": "uint16"
        }
      ],
      "name": "getTypeHash",
      "outputs": [
        {
          "internalType": "bytes32",
          "name": "",
          "type": "bytes32"
        }
      ],
      "stateMutability": "view",
      "type": "function"
    },
    {
      "inputs": [],
      "name": "initialize",
      "outputs": [],
      "stateMutability": "nonpayable",
      "type": "function"
    },
    {
      "inputs": [
        {
          "internalType": "address",
          "name": "owner",
          "type": "address"
        },
        {
          "internalType": "address",
          "name": "operator",
          "type": "address"
        }
      ],
      "name": "isApprovedForAll",
      "outputs": [
        {
          "internalType": "bool",
          "name": "",
          "type": "bool"
        }
      ],
      "stateMutability": "view",
      "type": "function"
    },
    {
      "inputs": [
        {
          "internalType": "uint16",
          "name": "_projectId",
          "type": "uint16"
        },
        {
          "internalType": "uint16",
          "name": "_nonce",
          "type": "uint16"
        },
        {
          "internalType": "bytes",
          "name": "_signature",
          "type": "bytes"
        }
      ],
      "name": "mintToken",
      "outputs": [],
      "stateMutability": "nonpayable",
      "type": "function"
    },
    {
      "inputs": [
        {
          "internalType": "bytes",
          "name": "_secretMessage",
          "type": "bytes"
        }
      ],
      "name": "mintTokenFromSecretMessage",
      "outputs": [],
      "stateMutability": "nonpayable",
      "type": "function"
    },
    {
      "inputs": [
        {
          "internalType": "address",
          "name": "_to",
          "type": "address"
        },
        {
          "internalType": "uint16",
          "name": "_projectId",
          "type": "uint16"
        },
        {
          "internalType": "uint16",
          "name": "_nonce",
          "type": "uint16"
        },
        {
          "internalType": "bytes",
          "name": "_signature",
          "type": "bytes"
        }
      ],
      "name": "mintTokenTo",
      "outputs": [],
      "stateMutability": "nonpayable",
      "type": "function"
    },
    {
      "inputs": [
        {
          "internalType": "uint16",
          "name": "projectId",
          "type": "uint16"
        },
        {
          "internalType": "string",
          "name": "_metadataURI",
          "type": "string"
        }
      ],
      "name": "modifyProjectMetadata",
      "outputs": [],
      "stateMutability": "nonpayable",
      "type": "function"
    },
    {
      "inputs": [],
      "name": "name",
      "outputs": [
        {
          "internalType": "string",
          "name": "",
          "type": "string"
        }
      ],
      "stateMutability": "view",
      "type": "function"
    },
    {
      "inputs": [],
      "name": "owner",
      "outputs": [
        {
          "internalType": "address",
          "name": "",
          "type": "address"
        }
      ],
      "stateMutability": "view",
      "type": "function"
    },
    {
      "inputs": [
        {
          "internalType": "uint256",
          "name": "tokenId",
          "type": "uint256"
        }
      ],
      "name": "ownerOf",
      "outputs": [
        {
          "internalType": "address",
          "name": "",
          "type": "address"
        }
      ],
      "stateMutability": "view",
      "type": "function"
    },
    {
      "inputs": [],
      "name": "renounceOwnership",
      "outputs": [],
      "stateMutability": "nonpayable",
      "type": "function"
    },
    {
      "inputs": [
        {
          "internalType": "address",
          "name": "from",
          "type": "address"
        },
        {
          "internalType": "address",
          "name": "to",
          "type": "address"
        },
        {
          "internalType": "uint256",
          "name": "tokenId",
          "type": "uint256"
        }
      ],
      "name": "safeTransferFrom",
      "outputs": [],
      "stateMutability": "nonpayable",
      "type": "function"
    },
    {
      "inputs": [
        {
          "internalType": "address",
          "name": "from",
          "type": "address"
        },
        {
          "internalType": "address",
          "name": "to",
          "type": "address"
        },
        {
          "internalType": "uint256",
          "name": "tokenId",
          "type": "uint256"
        },
        {
          "internalType": "bytes",
          "name": "_data",
          "type": "bytes"
        }
      ],
      "name": "safeTransferFrom",
      "outputs": [],
      "stateMutability": "nonpayable",
      "type": "function"
    },
    {
      "inputs": [
        {
          "internalType": "address",
          "name": "operator",
          "type": "address"
        },
        {
          "internalType": "bool",
          "name": "approved",
          "type": "bool"
        }
      ],
      "name": "setApprovalForAll",
      "outputs": [],
      "stateMutability": "nonpayable",
      "type": "function"
    },
    {
      "inputs": [
        {
          "internalType": "bytes",
          "name": "_signature",
          "type": "bytes"
        }
      ],
      "name": "signatureHasBeenUsed",
      "outputs": [
        {
          "internalType": "bool",
          "name": "",
          "type": "bool"
        }
      ],
      "stateMutability": "view",
      "type": "function"
    },
    {
      "inputs": [
        {
          "internalType": "bytes4",
          "name": "interfaceId",
          "type": "bytes4"
        }
      ],
      "name": "supportsInterface",
      "outputs": [
        {
          "internalType": "bool",
          "name": "",
          "type": "bool"
        }
      ],
      "stateMutability": "view",
      "type": "function"
    },
    {
      "inputs": [],
      "name": "symbol",
      "outputs": [
        {
          "internalType": "string",
          "name": "",
          "type": "string"
        }
      ],
      "stateMutability": "view",
      "type": "function"
    },
    {
      "inputs": [
        {
          "internalType": "uint256",
          "name": "tokenId",
          "type": "uint256"
        }
      ],
      "name": "tokenURI",
      "outputs": [
        {
          "internalType": "string",
          "name": "",
          "type": "string"
        }
      ],
      "stateMutability": "view",
      "type": "function"
    },
    {
      "inputs": [
        {
          "internalType": "address",
          "name": "from",
          "type": "address"
        },
        {
          "internalType": "address",
          "name": "to",
          "type": "address"
        },
        {
          "internalType": "uint256",
          "name": "tokenId",
          "type": "uint256"
        }
      ],
      "name": "transferFrom",
      "outputs": [],
      "stateMutability": "nonpayable",
      "type": "function"
    },
    {
      "inputs": [
        {
          "internalType": "address",
          "name": "newOwner",
          "type": "address"
        }
      ],
      "name": "transferOwnership",
      "outputs": [],
      "stateMutability": "nonpayable",
      "type": "function"
    },
    {
      "inputs": [
        {
          "internalType": "bytes32",
          "name": "",
          "type": "bytes32"
        }
      ],
      "name": "usedSignatureHashes",
      "outputs": [
        {
          "internalType": "bool",
          "name": "",
          "type": "bool"
        }
      ],
      "stateMutability": "view",
      "type": "function"
    }
  ],
  "transactionHash": "0x49c08d43bce6fdafa4d587ab2e0e7a6bc9086f366179b1b8c108165d44d0db18",
  "args": [],
  "solcInputHash": "149f5be8a18627dd35f5ed589b849134",
  "bytecode": "0x60e060405261271060805234801561001657600080fd5b503060c0818152604080518082018252600e81526d155b99195c99dc9bdd5b99105c9d60921b60208083019182528351808501855260038152620312e360ec1b908201529151902082517f8b73c3c69bb8fe3d512ecc4cf759cc79239f7b179b0ffacaa9a75d522b39400f81840152808401919091527fe6bbd6277e1bf288eed5e8d1780f9a50b239e86b153736bceebccf4ea79d90b3606082015246608082015260a080820195909552825180820390950185529092019052815191012060a05260805160a05160c0516127b561011c6000396000818161027f01526103c30152600081816102bb01526117ff0152600081816108f40152610e6e01526127b56000f3fe608060405234801561001057600080fd5b50600436106101da5760003560e01c80638d54a10c11610104578063a5135a74116100a2578063d46098f411610071578063d46098f41461046f578063e96a70da14610482578063e985e9c514610495578063f2fde38b146104d157600080fd5b8063a5135a741461040b578063ad186a4414610436578063b88d4fde14610449578063c87b56dd1461045c57600080fd5b80639a1552df116100de5780639a1552df146103ab5780639e2990fc146103be5780639f2523a1146103e5578063a22cb465146103f857600080fd5b80638d54a10c1461036f5780638da5cb5b1461039257806395d89b41146103a357600080fd5b80633644e5151161017c5780636352211e1161014b5780636352211e1461033957806370a082311461034c578063715018a61461035f5780638129fc1c1461036757600080fd5b80633644e515146102b657806342842e0e146102dd57806344616a79146102f05780635d89170d1461031357600080fd5b8063081812fc116101b8578063081812fc1461023d578063095ea7b3146102685780630cbcae701461027d57806323b872dd146102a357600080fd5b8063011e84ca146101df57806301ffc9a71461020557806306fdde0314610228575b600080fd5b6101f26101ed366004611fcc565b6104e4565b6040519081526020015b60405180910390f35b610218610213366004612015565b610547565b60405190151581526020016101fc565b610230610599565b6040516101fc9190612086565b61025061024b366004612099565b61062b565b6040516001600160a01b0390911681526020016101fc565b61027b6102763660046120c9565b6106c5565b005b7f0000000000000000000000000000000000000000000000000000000000000000610250565b61027b6102b13660046120f3565b6107db565b6101f27f000000000000000000000000000000000000000000000000000000000000000081565b61027b6102eb3660046120f3565b61080c565b6103036102fe36600461212f565b610827565b6040516101fc949392919061214a565b610326610321366004612099565b6108ea565b60405161ffff90911681526020016101fc565b610250610347366004612099565b61091a565b6101f261035a36600461218a565b610991565b61027b610a18565b61027b610a4e565b61021861037d366004612099565b60ca6020526000908152604090205460ff1681565b6097546001600160a01b0316610250565b610230610b0d565b61027b6103b9366004612248565b610b1c565b6102507f000000000000000000000000000000000000000000000000000000000000000081565b61027b6103f336600461227d565b610b7d565b61027b6104063660046122db565b610cce565b610218610419366004612248565b8051602091820120600090815260ca909152604090205460ff1690565b61027b610444366004612317565b610cdd565b61027b610457366004612365565b610d33565b61023061046a366004612099565b610d65565b61027b61047d3660046123cd565b610e3f565b61027b61049036600461242b565b610e47565b6102186104a3366004612482565b6001600160a01b039182166000908152606a6020908152604080832093909416825291909152205460ff1690565b61027b6104df36600461218a565b611073565b604080517f2dd0d51444baed7a92c44a66999b64a48ae0db80accf1941d68ba05bcb3ff6eb602082015261ffff80851692820192909252908216606082015260009060800160405160208183030381529060405280519060200120905092915050565b60006001600160e01b031982166380ac58cd60e01b148061057857506001600160e01b03198216635b5e139f60e01b145b8061059357506301ffc9a760e01b6001600160e01b03198316145b92915050565b6060606580546105a8906124ac565b80601f01602080910402602001604051908101604052809291908181526020018280546105d4906124ac565b80156106215780601f106105f657610100808354040283529160200191610621565b820191906000526020600020905b81548152906001019060200180831161060457829003601f168201915b5050505050905090565b6000818152606760205260408120546001600160a01b03166106a95760405162461bcd60e51b815260206004820152602c60248201527f4552433732313a20617070726f76656420717565727920666f72206e6f6e657860448201526b34b9ba32b73a103a37b5b2b760a11b60648201526084015b60405180910390fd5b506000908152606960205260409020546001600160a01b031690565b60006106d08261091a565b9050806001600160a01b0316836001600160a01b0316141561073e5760405162461bcd60e51b815260206004820152602160248201527f4552433732313a20617070726f76616c20746f2063757272656e74206f776e656044820152603960f91b60648201526084016106a0565b336001600160a01b038216148061075a575061075a81336104a3565b6107cc5760405162461bcd60e51b815260206004820152603860248201527f4552433732313a20617070726f76652063616c6c6572206973206e6f74206f7760448201527f6e6572206e6f7220617070726f76656420666f7220616c6c000000000000000060648201526084016106a0565b6107d6838361110b565b505050565b6107e53382611179565b6108015760405162461bcd60e51b81526004016106a0906124e7565b6107d6838383611270565b6107d683838360405180602001604052806000815250610d33565b60c960205260009081526040902080546001820180546001600160a01b039092169291610853906124ac565b80601f016020809104026020016040519081016040528092919081815260200182805461087f906124ac565b80156108cc5780601f106108a1576101008083540402835291602001916108cc565b820191906000526020600020905b8154815290600101906020018083116108af57829003601f168201915b5050506002909301549192505061ffff808216916201000090041684565b600061059361ffff7f0000000000000000000000000000000000000000000000000000000000000000168361254e565b6000818152606760205260408120546001600160a01b0316806105935760405162461bcd60e51b815260206004820152602960248201527f4552433732313a206f776e657220717565727920666f72206e6f6e657869737460448201526832b73a103a37b5b2b760b91b60648201526084016106a0565b60006001600160a01b0382166109fc5760405162461bcd60e51b815260206004820152602a60248201527f4552433732313a2062616c616e636520717565727920666f7220746865207a65604482015269726f206164647265737360b01b60648201526084016106a0565b506001600160a01b031660009081526068602052604090205490565b6097546001600160a01b03163314610a425760405162461bcd60e51b81526004016106a090612570565b610a4c600061140c565b565b6000610a5a600161145e565b90508015610a72576000805461ff0019166101001790555b610a7a6114eb565b610ac46040518060400160405280600e81526020016d155b99195c99dc9bdd5b99105c9d60921b81525060405180604001604052806002815260200161554160f01b81525061151a565b8015610b0a576000805461ff0019169055604051600181527f7f26b83ff96e1f2b6a682f133852f6798a09c465da95921460cefb38474024989060200160405180910390a15b50565b6060606680546105a8906124ac565b8051604514610b2a57600080fd5b600281015160048083015190606090610b46908590604161154b565b9050610b558361ffff16611658565b610b628261ffff16611658565b610b6b8161169d565b610b7733848484610e47565b50505050565b6097546001600160a01b03163314610ba75760405162461bcd60e51b81526004016106a090612570565b604080516080810182526001600160a01b038581168252602080830186815261ffff8681168587015260006060860181905260cb54909116815260c9835294909420835181546001600160a01b03191693169290921782559251805192939192610c179260018501920190611f21565b50604082810151600292909201805460609094015161ffff908116620100000263ffffffff19909516938116939093179390931790925560cb5482516001600160a01b038716815284831660208201529116917fe5ed1e9b90cf13e3117e90db99b9f6ab9f686f0fba6070659ae45f73a1739b37910160405180910390a260cb805460019190600090610caf90849061ffff166125a5565b92506101000a81548161ffff021916908361ffff160217905550505050565b610cd93383836116e0565b5050565b6097546001600160a01b03163314610d075760405162461bcd60e51b81526004016106a090612570565b60cb5461ffff16600090815260c96020908152604090912082516107d692600190920191840190611f21565b610d3d3383611179565b610d595760405162461bcd60e51b81526004016106a0906124e7565b610b77848484846117af565b6000818152606760205260409020546060906001600160a01b0316610d8957600080fd5b6000610d94836108ea565b61ffff8116600090815260c960205260409020600101805491925090610db9906124ac565b80601f0160208091040260200160405190810160405280929190818152602001828054610de5906124ac565b8015610e325780601f10610e0757610100808354040283529160200191610e32565b820191906000526020600020905b815481529060010190602001808311610e1557829003601f168201915b5050505050915050919050565b6107d6338484845b61ffff808416600090815260c9602052604081206002015490916201000090910416610e937f0000000000000000000000000000000000000000000000000000000000000000866125cb565b610e9d91906125a5565b61ffff858116600090815260c9602052604090206002908101805493831694506001939092610ed591859162010000909104166125a5565b82546101009290920a61ffff818102199093169183160217909155858116600090815260c960205260409020600201548082166201000090910490911611159050610f795760405162461bcd60e51b815260206004820152602e60248201527f546f74616c20737570706c7920686173206265656e206d696e74656420666f7260448201526d103a3434b990383937b532b1ba1760911b60648201526084016106a0565b610f9a828051602091820120600090815260ca909152604090205460ff1690565b15610fdb5760405162461bcd60e51b815260206004820152601160248201527010dbd91948185b1c9958591e481d5cd959607a1b60448201526064016106a0565b8151602080840191909120600090815260ca82526040808220805460ff1916600117905561ffff8716825260c99092522054611022906001600160a01b03168585856117e2565b6110625760405162461bcd60e51b815260206004820152601160248201527014da59db985d1d5c99481a5b9d985b1a59607a1b60448201526064016106a0565b61106c8582611874565b5050505050565b6097546001600160a01b0316331461109d5760405162461bcd60e51b81526004016106a090612570565b6001600160a01b0381166111025760405162461bcd60e51b815260206004820152602660248201527f4f776e61626c653a206e6577206f776e657220697320746865207a65726f206160448201526564647265737360d01b60648201526084016106a0565b610b0a8161140c565b600081815260696020526040902080546001600160a01b0319166001600160a01b03841690811790915581906111408261091a565b6001600160a01b03167f8c5be1e5ebec7d5bd14f71427d1e84f3dd0314c0f7b2291e5b200ac8c7c3b92560405160405180910390a45050565b6000818152606760205260408120546001600160a01b03166111f25760405162461bcd60e51b815260206004820152602c60248201527f4552433732313a206f70657261746f7220717565727920666f72206e6f6e657860448201526b34b9ba32b73a103a37b5b2b760a11b60648201526084016106a0565b60006111fd8361091a565b9050806001600160a01b0316846001600160a01b0316148061124457506001600160a01b038082166000908152606a602090815260408083209388168352929052205460ff165b806112685750836001600160a01b031661125d8461062b565b6001600160a01b0316145b949350505050565b826001600160a01b03166112838261091a565b6001600160a01b0316146112e75760405162461bcd60e51b815260206004820152602560248201527f4552433732313a207472616e736665722066726f6d20696e636f72726563742060448201526437bbb732b960d91b60648201526084016106a0565b6001600160a01b0382166113495760405162461bcd60e51b8152602060048201526024808201527f4552433732313a207472616e7366657220746f20746865207a65726f206164646044820152637265737360e01b60648201526084016106a0565b61135460008261110b565b6001600160a01b038316600090815260686020526040812080546001929061137d9084906125f5565b90915550506001600160a01b03821660009081526068602052604081208054600192906113ab90849061260c565b909155505060008181526067602052604080822080546001600160a01b0319166001600160a01b0386811691821790925591518493918716917fddf252ad1be2c89b69c2b068fc378daa952ba7f163c4a11628f55a4df523b3ef91a4505050565b609780546001600160a01b038381166001600160a01b0319831681179093556040519116919082907f8be0079c531659141344cd1fd0a4f28419497f9722a3daafe3b4186f6b6457e090600090a35050565b60008054610100900460ff16156114a5578160ff1660011480156114815750303b155b61149d5760405162461bcd60e51b81526004016106a090612624565b506000919050565b60005460ff8084169116106114cc5760405162461bcd60e51b81526004016106a090612624565b506000805460ff191660ff92909216919091179055600190565b919050565b600054610100900460ff166115125760405162461bcd60e51b81526004016106a090612672565b610a4c61188e565b600054610100900460ff166115415760405162461bcd60e51b81526004016106a090612672565b610cd982826118be565b60608161155981601f61260c565b10156115985760405162461bcd60e51b815260206004820152600e60248201526d736c6963655f6f766572666c6f7760901b60448201526064016106a0565b6115a2828461260c565b845110156115e65760405162461bcd60e51b8152602060048201526011602482015270736c6963655f6f75744f66426f756e647360781b60448201526064016106a0565b606082158015611605576040519150600082526020820160405261164f565b6040519150601f8416801560200281840101858101878315602002848b0101015b8183101561163e578051835260209283019201611626565b5050858452601f01601f1916604052505b50949350505050565b610b0a8160405160240161166e91815260200190565b60408051601f198184030181529190526020810180516001600160e01b031663f5b1bba960e01b17905261190c565b610b0a816040516024016116b19190612086565b60408051601f198184030181529190526020810180516001600160e01b03166305f3bfab60e11b17905261190c565b816001600160a01b0316836001600160a01b031614156117425760405162461bcd60e51b815260206004820152601960248201527f4552433732313a20617070726f766520746f2063616c6c65720000000000000060448201526064016106a0565b6001600160a01b038381166000818152606a6020908152604080832094871680845294825291829020805460ff191686151590811790915591519182527f17307eab39ab6107e8899845ad3d59bd9653f200f220920489ca2b5937696c31910160405180910390a3505050565b6117ba848484611270565b6117c68484848461192d565b610b775760405162461bcd60e51b81526004016106a0906126bd565b6000806117ef85856104e4565b60405161190160f01b60208201527f0000000000000000000000000000000000000000000000000000000000000000602282015260428101829052909150600090606201604051602081830303815290604052805190602001209050866001600160a01b031661185f8286611a37565b6001600160a01b031614979650505050505050565b610cd9828260405180602001604052806000815250611a5b565b600054610100900460ff166118b55760405162461bcd60e51b81526004016106a090612672565b610a4c3361140c565b600054610100900460ff166118e55760405162461bcd60e51b81526004016106a090612672565b81516118f8906065906020850190611f21565b5080516107d6906066906020840190611f21565b80516a636f6e736f6c652e6c6f67602083016000808483855afa5050505050565b60006001600160a01b0384163b15611a2f57604051630a85bd0160e11b81526001600160a01b0385169063150b7a029061197190339089908890889060040161270f565b602060405180830381600087803b15801561198b57600080fd5b505af19250505080156119bb575060408051601f3d908101601f191682019092526119b89181019061274c565b60015b611a15573d8080156119e9576040519150601f19603f3d011682016040523d82523d6000602084013e6119ee565b606091505b508051611a0d5760405162461bcd60e51b81526004016106a0906126bd565b805181602001fd5b6001600160e01b031916630a85bd0160e11b149050611268565b506001611268565b6000806000611a468585611a8e565b91509150611a5381611afe565b509392505050565b611a658383611cb9565b611a72600084848461192d565b6107d65760405162461bcd60e51b81526004016106a0906126bd565b600080825160411415611ac55760208301516040840151606085015160001a611ab987828585611dfb565b94509450505050611af7565b825160401415611aef5760208301516040840151611ae4868383611ee8565b935093505050611af7565b506000905060025b9250929050565b6000816004811115611b1257611b12612769565b1415611b1b5750565b6001816004811115611b2f57611b2f612769565b1415611b7d5760405162461bcd60e51b815260206004820152601860248201527f45434453413a20696e76616c6964207369676e6174757265000000000000000060448201526064016106a0565b6002816004811115611b9157611b91612769565b1415611bdf5760405162461bcd60e51b815260206004820152601f60248201527f45434453413a20696e76616c6964207369676e6174757265206c656e6774680060448201526064016106a0565b6003816004811115611bf357611bf3612769565b1415611c4c5760405162461bcd60e51b815260206004820152602260248201527f45434453413a20696e76616c6964207369676e6174757265202773272076616c604482015261756560f01b60648201526084016106a0565b6004816004811115611c6057611c60612769565b1415610b0a5760405162461bcd60e51b815260206004820152602260248201527f45434453413a20696e76616c6964207369676e6174757265202776272076616c604482015261756560f01b60648201526084016106a0565b6001600160a01b038216611d0f5760405162461bcd60e51b815260206004820181905260248201527f4552433732313a206d696e7420746f20746865207a65726f206164647265737360448201526064016106a0565b6000818152606760205260409020546001600160a01b031615611d745760405162461bcd60e51b815260206004820152601c60248201527f4552433732313a20746f6b656e20616c7265616479206d696e7465640000000060448201526064016106a0565b6001600160a01b0382166000908152606860205260408120805460019290611d9d90849061260c565b909155505060008181526067602052604080822080546001600160a01b0319166001600160a01b03861690811790915590518392907fddf252ad1be2c89b69c2b068fc378daa952ba7f163c4a11628f55a4df523b3ef908290a45050565b6000807f7fffffffffffffffffffffffffffffff5d576e7357a4501ddfe92f46681b20a0831115611e325750600090506003611edf565b8460ff16601b14158015611e4a57508460ff16601c14155b15611e5b5750600090506004611edf565b6040805160008082526020820180845289905260ff881692820192909252606081018690526080810185905260019060a0016020604051602081039080840390855afa158015611eaf573d6000803e3d6000fd5b5050604051601f1901519150506001600160a01b038116611ed857600060019250925050611edf565b9150600090505b94509492505050565b6000806001600160ff1b03831681611f0560ff86901c601b61260c565b9050611f1387828885611dfb565b935093505050935093915050565b828054611f2d906124ac565b90600052602060002090601f016020900481019282611f4f5760008555611f95565b82601f10611f6857805160ff1916838001178555611f95565b82800160010185558215611f95579182015b82811115611f95578251825591602001919060010190611f7a565b50611fa1929150611fa5565b5090565b5b80821115611fa15760008155600101611fa6565b803561ffff811681146114e657600080fd5b60008060408385031215611fdf57600080fd5b611fe883611fba565b9150611ff660208401611fba565b90509250929050565b6001600160e01b031981168114610b0a57600080fd5b60006020828403121561202757600080fd5b813561203281611fff565b9392505050565b6000815180845260005b8181101561205f57602081850181015186830182015201612043565b81811115612071576000602083870101525b50601f01601f19169290920160200192915050565b6020815260006120326020830184612039565b6000602082840312156120ab57600080fd5b5035919050565b80356001600160a01b03811681146114e657600080fd5b600080604083850312156120dc57600080fd5b6120e5836120b2565b946020939093013593505050565b60008060006060848603121561210857600080fd5b612111846120b2565b925061211f602085016120b2565b9150604084013590509250925092565b60006020828403121561214157600080fd5b61203282611fba565b6001600160a01b038516815260806020820181905260009061216e90830186612039565b61ffff9485166040840152929093166060909101529392505050565b60006020828403121561219c57600080fd5b612032826120b2565b634e487b7160e01b600052604160045260246000fd5b600082601f8301126121cc57600080fd5b813567ffffffffffffffff808211156121e7576121e76121a5565b604051601f8301601f19908116603f0116810190828211818310171561220f5761220f6121a5565b8160405283815286602085880101111561222857600080fd5b836020870160208301376000602085830101528094505050505092915050565b60006020828403121561225a57600080fd5b813567ffffffffffffffff81111561227157600080fd5b611268848285016121bb565b60008060006060848603121561229257600080fd5b61229b846120b2565b9250602084013567ffffffffffffffff8111156122b757600080fd5b6122c3868287016121bb565b9250506122d260408501611fba565b90509250925092565b600080604083850312156122ee57600080fd5b6122f7836120b2565b91506020830135801515811461230c57600080fd5b809150509250929050565b6000806040838503121561232a57600080fd5b61233383611fba565b9150602083013567ffffffffffffffff81111561234f57600080fd5b61235b858286016121bb565b9150509250929050565b6000806000806080858703121561237b57600080fd5b612384856120b2565b9350612392602086016120b2565b925060408501359150606085013567ffffffffffffffff8111156123b557600080fd5b6123c1878288016121bb565b91505092959194509250565b6000806000606084860312156123e257600080fd5b6123eb84611fba565b92506123f960208501611fba565b9150604084013567ffffffffffffffff81111561241557600080fd5b612421868287016121bb565b9150509250925092565b6000806000806080858703121561244157600080fd5b61244a856120b2565b935061245860208601611fba565b925061246660408601611fba565b9150606085013567ffffffffffffffff8111156123b557600080fd5b6000806040838503121561249557600080fd5b61249e836120b2565b9150611ff6602084016120b2565b600181811c908216806124c057607f821691505b602082108114156124e157634e487b7160e01b600052602260045260246000fd5b50919050565b60208082526031908201527f4552433732313a207472616e736665722063616c6c6572206973206e6f74206f6040820152701ddb995c881b9bdc88185c1c1c9bdd9959607a1b606082015260800190565b634e487b7160e01b600052601160045260246000fd5b60008261256b57634e487b7160e01b600052601260045260246000fd5b500490565b6020808252818101527f4f776e61626c653a2063616c6c6572206973206e6f7420746865206f776e6572604082015260600190565b600061ffff8083168185168083038211156125c2576125c2612538565b01949350505050565b600061ffff808316818516818304811182151516156125ec576125ec612538565b02949350505050565b60008282101561260757612607612538565b500390565b6000821982111561261f5761261f612538565b500190565b6020808252602e908201527f496e697469616c697a61626c653a20636f6e747261637420697320616c72656160408201526d191e481a5b9a5d1a585b1a5e995960921b606082015260800190565b6020808252602b908201527f496e697469616c697a61626c653a20636f6e7472616374206973206e6f74206960408201526a6e697469616c697a696e6760a81b606082015260800190565b60208082526032908201527f4552433732313a207472616e7366657220746f206e6f6e20455243373231526560408201527131b2b4bb32b91034b6b83632b6b2b73a32b960711b606082015260800190565b6001600160a01b038581168252841660208201526040810183905260806060820181905260009061274290830184612039565b9695505050505050565b60006020828403121561275e57600080fd5b815161203281611fff565b634e487b7160e01b600052602160045260246000fdfea2646970667358221220b5f2b93aaa7df911c7e1eaa2393c0cc0af1f5764a244b1e47a88c35a02f5655264736f6c63430008090033",
  "devdoc": {
    "kind": "dev",
    "methods": {
      "approve(address,uint256)": {
        "details": "See {IERC721-approve}."
      },
      "balanceOf(address)": {
        "details": "See {IERC721-balanceOf}."
      },
      "getApproved(uint256)": {
        "details": "See {IERC721-getApproved}."
      },
      "isApprovedForAll(address,address)": {
        "details": "See {IERC721-isApprovedForAll}."
      },
      "name()": {
        "details": "See {IERC721Metadata-name}."
      },
      "owner()": {
        "details": "Returns the address of the current owner."
      },
      "ownerOf(uint256)": {
        "details": "See {IERC721-ownerOf}."
      },
      "renounceOwnership()": {
        "details": "Leaves the contract without owner. It will not be possible to call `onlyOwner` functions anymore. Can only be called by the current owner. NOTE: Renouncing ownership will leave the contract without an owner, thereby removing any functionality that is only available to the owner."
      },
      "safeTransferFrom(address,address,uint256)": {
        "details": "See {IERC721-safeTransferFrom}."
      },
      "safeTransferFrom(address,address,uint256,bytes)": {
        "details": "See {IERC721-safeTransferFrom}."
      },
      "setApprovalForAll(address,bool)": {
        "details": "See {IERC721-setApprovalForAll}."
      },
      "supportsInterface(bytes4)": {
        "details": "See {IERC165-supportsInterface}."
      },
      "symbol()": {
        "details": "See {IERC721Metadata-symbol}."
      },
      "tokenURI(uint256)": {
        "details": "Returns an URI for a given token ID Throws if the token ID does not exist. May return an empty string.",
        "params": {
          "tokenId": "uint256 ID of the token to query"
        }
      },
      "transferFrom(address,address,uint256)": {
        "details": "See {IERC721-transferFrom}."
      },
      "transferOwnership(address)": {
        "details": "Transfers ownership of the contract to a new account (`newOwner`). Can only be called by the current owner."
      }
    },
    "version": 1
  },
  "userdoc": {
    "kind": "user",
    "methods": {
      "mintTokenTo(address,uint16,uint16,bytes)": {
        "notice": "Custom accessor to create a unique token"
      }
    },
    "version": 1
  },
  "storageLayout": {
    "storage": [
      {
        "astId": 130,
        "contract": "contracts/UndergroundArt.sol:UndergroundArt",
        "label": "_initialized",
        "offset": 0,
        "slot": "0",
        "type": "t_uint8"
      },
      {
        "astId": 133,
        "contract": "contracts/UndergroundArt.sol:UndergroundArt",
        "label": "_initializing",
        "offset": 1,
        "slot": "0",
        "type": "t_bool"
      },
      {
        "astId": 1601,
        "contract": "contracts/UndergroundArt.sol:UndergroundArt",
        "label": "__gap",
        "offset": 0,
        "slot": "1",
        "type": "t_array(t_uint256)50_storage"
      },
      {
        "astId": 2255,
        "contract": "contracts/UndergroundArt.sol:UndergroundArt",
        "label": "__gap",
        "offset": 0,
        "slot": "51",
        "type": "t_array(t_uint256)50_storage"
      },
      {
        "astId": 294,
        "contract": "contracts/UndergroundArt.sol:UndergroundArt",
        "label": "_name",
        "offset": 0,
        "slot": "101",
        "type": "t_string_storage"
      },
      {
        "astId": 296,
        "contract": "contracts/UndergroundArt.sol:UndergroundArt",
        "label": "_symbol",
        "offset": 0,
        "slot": "102",
        "type": "t_string_storage"
      },
      {
        "astId": 300,
        "contract": "contracts/UndergroundArt.sol:UndergroundArt",
        "label": "_owners",
        "offset": 0,
        "slot": "103",
        "type": "t_mapping(t_uint256,t_address)"
      },
      {
        "astId": 304,
        "contract": "contracts/UndergroundArt.sol:UndergroundArt",
        "label": "_balances",
        "offset": 0,
        "slot": "104",
        "type": "t_mapping(t_address,t_uint256)"
      },
      {
        "astId": 308,
        "contract": "contracts/UndergroundArt.sol:UndergroundArt",
        "label": "_tokenApprovals",
        "offset": 0,
        "slot": "105",
        "type": "t_mapping(t_uint256,t_address)"
      },
      {
        "astId": 314,
        "contract": "contracts/UndergroundArt.sol:UndergroundArt",
        "label": "_operatorApprovals",
        "offset": 0,
        "slot": "106",
        "type": "t_mapping(t_address,t_mapping(t_address,t_bool))"
      },
      {
        "astId": 1155,
        "contract": "contracts/UndergroundArt.sol:UndergroundArt",
        "label": "__gap",
        "offset": 0,
        "slot": "107",
        "type": "t_array(t_uint256)44_storage"
      },
      {
        "astId": 10,
        "contract": "contracts/UndergroundArt.sol:UndergroundArt",
        "label": "_owner",
        "offset": 0,
        "slot": "151",
        "type": "t_address"
      },
      {
        "astId": 122,
        "contract": "contracts/UndergroundArt.sol:UndergroundArt",
        "label": "__gap",
        "offset": 0,
        "slot": "152",
        "type": "t_array(t_uint256)49_storage"
      },
      {
        "astId": 2641,
        "contract": "contracts/UndergroundArt.sol:UndergroundArt",
        "label": "artProjects",
        "offset": 0,
        "slot": "201",
        "type": "t_mapping(t_uint16,t_struct(ArtProject)2628_storage)"
      },
      {
        "astId": 2645,
        "contract": "contracts/UndergroundArt.sol:UndergroundArt",
        "label": "usedSignatureHashes",
        "offset": 0,
        "slot": "202",
        "type": "t_mapping(t_bytes32,t_bool)"
      },
      {
        "astId": 2647,
        "contract": "contracts/UndergroundArt.sol:UndergroundArt",
        "label": "projectCount",
        "offset": 0,
        "slot": "203",
        "type": "t_uint16"
      }
    ],
    "types": {
      "t_address": {
        "encoding": "inplace",
        "label": "address",
        "numberOfBytes": "20"
      },
      "t_array(t_uint256)44_storage": {
        "base": "t_uint256",
        "encoding": "inplace",
        "label": "uint256[44]",
        "numberOfBytes": "1408"
      },
      "t_array(t_uint256)49_storage": {
        "base": "t_uint256",
        "encoding": "inplace",
        "label": "uint256[49]",
        "numberOfBytes": "1568"
      },
      "t_array(t_uint256)50_storage": {
        "base": "t_uint256",
        "encoding": "inplace",
        "label": "uint256[50]",
        "numberOfBytes": "1600"
      },
      "t_bool": {
        "encoding": "inplace",
        "label": "bool",
        "numberOfBytes": "1"
      },
      "t_bytes32": {
        "encoding": "inplace",
        "label": "bytes32",
        "numberOfBytes": "32"
      },
      "t_mapping(t_address,t_bool)": {
        "encoding": "mapping",
        "key": "t_address",
        "label": "mapping(address => bool)",
        "numberOfBytes": "32",
        "value": "t_bool"
      },
      "t_mapping(t_address,t_mapping(t_address,t_bool))": {
        "encoding": "mapping",
        "key": "t_address",
        "label": "mapping(address => mapping(address => bool))",
        "numberOfBytes": "32",
        "value": "t_mapping(t_address,t_bool)"
      },
      "t_mapping(t_address,t_uint256)": {
        "encoding": "mapping",
        "key": "t_address",
        "label": "mapping(address => uint256)",
        "numberOfBytes": "32",
        "value": "t_uint256"
      },
      "t_mapping(t_bytes32,t_bool)": {
        "encoding": "mapping",
        "key": "t_bytes32",
        "label": "mapping(bytes32 => bool)",
        "numberOfBytes": "32",
        "value": "t_bool"
      },
      "t_mapping(t_uint16,t_struct(ArtProject)2628_storage)": {
        "encoding": "mapping",
        "key": "t_uint16",
        "label": "mapping(uint16 => struct UndergroundArt.ArtProject)",
        "numberOfBytes": "32",
        "value": "t_struct(ArtProject)2628_storage"
      },
      "t_mapping(t_uint256,t_address)": {
        "encoding": "mapping",
        "key": "t_uint256",
        "label": "mapping(uint256 => address)",
        "numberOfBytes": "32",
        "value": "t_address"
      },
      "t_string_storage": {
        "encoding": "bytes",
        "label": "string",
        "numberOfBytes": "32"
      },
      "t_struct(ArtProject)2628_storage": {
        "encoding": "inplace",
        "label": "struct UndergroundArt.ArtProject",
        "members": [
          {
            "astId": 2621,
            "contract": "contracts/UndergroundArt.sol:UndergroundArt",
            "label": "artistAddress",
            "offset": 0,
            "slot": "0",
            "type": "t_address"
          },
          {
            "astId": 2623,
            "contract": "contracts/UndergroundArt.sol:UndergroundArt",
            "label": "metadataURI",
            "offset": 0,
            "slot": "1",
            "type": "t_string_storage"
          },
          {
            "astId": 2625,
            "contract": "contracts/UndergroundArt.sol:UndergroundArt",
            "label": "totalSupply",
            "offset": 0,
            "slot": "2",
            "type": "t_uint16"
          },
          {
            "astId": 2627,
            "contract": "contracts/UndergroundArt.sol:UndergroundArt",
            "label": "mintedCount",
            "offset": 2,
            "slot": "2",
            "type": "t_uint16"
          }
        ],
        "numberOfBytes": "96"
      },
      "t_uint16": {
        "encoding": "inplace",
        "label": "uint16",
        "numberOfBytes": "2"
      },
      "t_uint256": {
        "encoding": "inplace",
        "label": "uint256",
        "numberOfBytes": "32"
      },
      "t_uint8": {
        "encoding": "inplace",
        "label": "uint8",
        "numberOfBytes": "1"
      }
    }
  }
}